{
  "_format": "hh-sol-artifact-1",
  "contractName": "AliveRegistryV2",
  "sourceName": "contracts/NewContracts/RegistryContracts/AliveRegistryV2.sol",
  "abi": [
    {
      "anonymous": false,
      "inputs": [
        {
          "indexed": false,
          "internalType": "address[]",
          "name": "managers",
          "type": "address[]"
        }
      ],
      "name": "AddManagers",
      "type": "event"
    },
    {
      "anonymous": false,
      "inputs": [
        {
          "indexed": false,
          "internalType": "address",
          "name": "newSongImp",
          "type": "address"
        },
        {
          "indexed": false,
          "internalType": "uint256",
          "name": "maxMintAmount",
          "type": "uint256"
        }
      ],
      "name": "AddNewSongImp",
      "type": "event"
    },
    {
      "anonymous": false,
      "inputs": [
        {
          "indexed": false,
          "internalType": "address",
          "name": "oldAdmin",
          "type": "address"
        },
        {
          "indexed": false,
          "internalType": "address",
          "name": "newAdmin",
          "type": "address"
        }
      ],
      "name": "ChangeAdmin",
      "type": "event"
    },
    {
      "anonymous": false,
      "inputs": [
        {
          "indexed": false,
          "internalType": "address[]",
          "name": "managers",
          "type": "address[]"
        }
      ],
      "name": "RemoveManagers",
      "type": "event"
    },
    {
      "anonymous": false,
      "inputs": [
        {
          "indexed": false,
          "internalType": "address",
          "name": "to",
          "type": "address"
        },
        {
          "indexed": false,
          "internalType": "uint8",
          "name": "version",
          "type": "uint8"
        }
      ],
      "name": "UpgradeAliveBandImp",
      "type": "event"
    },
    {
      "anonymous": false,
      "inputs": [
        {
          "indexed": false,
          "internalType": "uint8",
          "name": "songType",
          "type": "uint8"
        },
        {
          "indexed": false,
          "internalType": "address",
          "name": "to",
          "type": "address"
        },
        {
          "indexed": false,
          "internalType": "uint8",
          "name": "version",
          "type": "uint8"
        }
      ],
      "name": "UpgradeAliveSongImp",
      "type": "event"
    },
    {
      "anonymous": false,
      "inputs": [
        {
          "indexed": false,
          "internalType": "address",
          "name": "to",
          "type": "address"
        },
        {
          "indexed": false,
          "internalType": "uint8",
          "name": "version",
          "type": "uint8"
        }
      ],
      "name": "UpgradeHouse",
      "type": "event"
    },
    {
      "anonymous": false,
      "inputs": [
        {
          "indexed": false,
          "internalType": "address",
          "name": "to",
          "type": "address"
        },
        {
          "indexed": false,
          "internalType": "uint8",
          "name": "version",
          "type": "uint8"
        }
      ],
      "name": "UpgradeRegistry",
      "type": "event"
    },
    {
      "inputs": [
        {
          "internalType": "address[]",
          "name": "_newManagerWallets",
          "type": "address[]"
        }
      ],
      "name": "addMangerWallets",
      "outputs": [],
      "stateMutability": "nonpayable",
      "type": "function"
    },
    {
      "inputs": [
        {
          "internalType": "address",
          "name": "_newSongImp",
          "type": "address"
        },
        {
          "internalType": "uint256",
          "name": "_maxMintAmount",
          "type": "uint256"
        }
      ],
      "name": "addNewSongImp",
      "outputs": [],
      "stateMutability": "nonpayable",
      "type": "function"
    },
    {
      "inputs": [],
      "name": "adminAddress",
      "outputs": [
        {
          "internalType": "address",
          "name": "",
          "type": "address"
        }
      ],
      "stateMutability": "view",
      "type": "function"
    },
    {
      "inputs": [],
      "name": "aliveBandBeacon",
      "outputs": [
        {
          "internalType": "contract AliveBandBeacon",
          "name": "",
          "type": "address"
        }
      ],
      "stateMutability": "view",
      "type": "function"
    },
    {
      "inputs": [],
      "name": "aliveHouseRoyaltyReceiver",
      "outputs": [
        {
          "internalType": "address",
          "name": "",
          "type": "address"
        }
      ],
      "stateMutability": "view",
      "type": "function"
    },
    {
      "inputs": [
        {
          "internalType": "uint8",
          "name": "",
          "type": "uint8"
        }
      ],
      "name": "aliveSongByType",
      "outputs": [
        {
          "internalType": "address",
          "name": "impAddress",
          "type": "address"
        },
        {
          "internalType": "uint256",
          "name": "maxMintAmountPerTx",
          "type": "uint256"
        },
        {
          "internalType": "contract AliveSongBeacon",
          "name": "aliveSongBeacon",
          "type": "address"
        },
        {
          "internalType": "uint8",
          "name": "songVersion",
          "type": "uint8"
        }
      ],
      "stateMutability": "view",
      "type": "function"
    },
    {
      "inputs": [],
      "name": "bandVersion",
      "outputs": [
        {
          "internalType": "uint8",
          "name": "",
          "type": "uint8"
        }
      ],
      "stateMutability": "view",
      "type": "function"
    },
    {
      "inputs": [
        {
          "internalType": "address",
          "name": "_to",
          "type": "address"
        }
      ],
      "name": "changeAdmin",
      "outputs": [],
      "stateMutability": "nonpayable",
      "type": "function"
    },
    {
      "inputs": [
        {
          "internalType": "contract TransparentUpgradeableProxy",
          "name": "proxy",
          "type": "address"
        },
        {
          "internalType": "address",
          "name": "newAdmin",
          "type": "address"
        }
      ],
      "name": "changeProxyAdmin",
      "outputs": [],
      "stateMutability": "nonpayable",
      "type": "function"
    },
    {
      "inputs": [],
      "name": "feePercent",
      "outputs": [
        {
          "internalType": "uint8",
          "name": "",
          "type": "uint8"
        }
      ],
      "stateMutability": "view",
      "type": "function"
    },
    {
      "inputs": [
        {
          "internalType": "uint8",
          "name": "_songType",
          "type": "uint8"
        }
      ],
      "name": "getAliveSongImp",
      "outputs": [
        {
          "components": [
            {
              "internalType": "address",
              "name": "impAddress",
              "type": "address"
            },
            {
              "internalType": "uint256",
              "name": "maxMintAmountPerTx",
              "type": "uint256"
            },
            {
              "internalType": "contract AliveSongBeacon",
              "name": "aliveSongBeacon",
              "type": "address"
            },
            {
              "internalType": "uint8",
              "name": "songVersion",
              "type": "uint8"
            }
          ],
          "internalType": "struct AliveRegistry.AliveSongImp",
          "name": "",
          "type": "tuple"
        }
      ],
      "stateMutability": "view",
      "type": "function"
    },
    {
      "inputs": [
        {
          "internalType": "uint8",
          "name": "_songType",
          "type": "uint8"
        }
      ],
      "name": "getAliveSongMaxMintPerTxByType",
      "outputs": [
        {
          "internalType": "uint256",
          "name": "",
          "type": "uint256"
        }
      ],
      "stateMutability": "view",
      "type": "function"
    },
    {
      "inputs": [
        {
          "internalType": "contract TransparentUpgradeableProxy",
          "name": "proxy",
          "type": "address"
        }
      ],
      "name": "getProxyAdmin",
      "outputs": [
        {
          "internalType": "address",
          "name": "",
          "type": "address"
        }
      ],
      "stateMutability": "view",
      "type": "function"
    },
    {
      "inputs": [
        {
          "internalType": "contract TransparentUpgradeableProxy",
          "name": "proxy",
          "type": "address"
        }
      ],
      "name": "getProxyImplementation",
      "outputs": [
        {
          "internalType": "address",
          "name": "",
          "type": "address"
        }
      ],
      "stateMutability": "view",
      "type": "function"
    },
    {
      "inputs": [],
      "name": "houseVersion",
      "outputs": [
        {
          "internalType": "uint8",
          "name": "",
          "type": "uint8"
        }
      ],
      "stateMutability": "view",
      "type": "function"
    },
    {
      "inputs": [
        {
          "internalType": "address",
          "name": "_aliveHouseRoyaltyReceiver",
          "type": "address"
        },
        {
          "internalType": "uint8",
          "name": "_feePercent",
          "type": "uint8"
        },
        {
          "internalType": "address",
          "name": "_managerWallet",
          "type": "address"
        },
        {
          "internalType": "address",
          "name": "_bandImp",
          "type": "address"
        },
        {
          "internalType": "address[]",
          "name": "_songImps",
          "type": "address[]"
        },
        {
          "internalType": "uint256[]",
          "name": "_maxMintAmountsPerTx",
          "type": "uint256[]"
        },
        {
          "internalType": "address",
          "name": "_splitsAddress",
          "type": "address"
        },
        {
          "internalType": "address",
          "name": "_admin",
          "type": "address"
        }
      ],
      "name": "initialize",
      "outputs": [],
      "stateMutability": "nonpayable",
      "type": "function"
    },
    {
      "inputs": [
        {
          "internalType": "address",
          "name": "",
          "type": "address"
        }
      ],
      "name": "isManagerWallet",
      "outputs": [
        {
          "internalType": "bool",
          "name": "",
          "type": "bool"
        }
      ],
      "stateMutability": "view",
      "type": "function"
    },
    {
      "inputs": [],
      "name": "registryVersion",
      "outputs": [
        {
          "internalType": "uint8",
          "name": "",
          "type": "uint8"
        }
      ],
      "stateMutability": "view",
      "type": "function"
    },
    {
      "inputs": [
        {
          "internalType": "address[]",
          "name": "_removeManagerWallets",
          "type": "address[]"
        }
      ],
      "name": "removeManagerWallets",
      "outputs": [],
      "stateMutability": "nonpayable",
      "type": "function"
    },
    {
      "inputs": [
        {
          "internalType": "address",
          "name": "_aliveHouseRoyaltyReceiver",
          "type": "address"
        },
        {
          "internalType": "uint8",
          "name": "_feePercent",
          "type": "uint8"
        },
        {
          "internalType": "address",
          "name": "_managerWallet",
          "type": "address"
        },
        {
          "internalType": "address",
          "name": "_bandImp",
          "type": "address"
        },
        {
          "internalType": "address[]",
          "name": "_songImps",
          "type": "address[]"
        },
        {
          "internalType": "uint256[]",
          "name": "_maxMintAmountsPerTx",
          "type": "uint256[]"
        },
        {
          "internalType": "address",
          "name": "_splitsAddress",
          "type": "address"
        }
      ],
      "name": "reset",
      "outputs": [],
      "stateMutability": "nonpayable",
      "type": "function"
    },
    {
      "inputs": [
        {
          "internalType": "uint256",
          "name": "_maxMintAmount",
          "type": "uint256"
        }
      ],
      "name": "setInitialMaxMintAmountPerTx",
      "outputs": [],
      "stateMutability": "nonpayable",
      "type": "function"
    },
    {
      "inputs": [
        {
          "internalType": "string",
          "name": "_testVal",
          "type": "string"
        }
      ],
      "name": "setVersionTest",
      "outputs": [],
      "stateMutability": "nonpayable",
      "type": "function"
    },
    {
      "inputs": [],
      "name": "splitsAddress",
      "outputs": [
        {
          "internalType": "address",
          "name": "",
          "type": "address"
        }
      ],
      "stateMutability": "view",
      "type": "function"
    },
    {
      "inputs": [],
      "name": "totalSongTypes",
      "outputs": [
        {
          "internalType": "uint8",
          "name": "",
          "type": "uint8"
        }
      ],
      "stateMutability": "view",
      "type": "function"
    },
    {
      "inputs": [
        {
          "internalType": "address",
          "name": "_newTreasuryWallet",
          "type": "address"
        }
      ],
      "name": "updateAliveHouseRoyaltyReceiver",
      "outputs": [],
      "stateMutability": "nonpayable",
      "type": "function"
    },
    {
      "inputs": [
        {
          "internalType": "uint8",
          "name": "_songType",
          "type": "uint8"
        },
        {
          "internalType": "uint256",
          "name": "_maxMintAmount",
          "type": "uint256"
        }
      ],
      "name": "updateMaxMintAmountPerTxBySongType",
      "outputs": [],
      "stateMutability": "nonpayable",
      "type": "function"
    },
    {
      "inputs": [
        {
          "internalType": "uint256[]",
          "name": "_maxMintAmountsPerTx",
          "type": "uint256[]"
        }
      ],
      "name": "updateMaxMintAmountsPerTx",
      "outputs": [],
      "stateMutability": "nonpayable",
      "type": "function"
    },
    {
      "inputs": [
        {
          "internalType": "uint8",
          "name": "_newFeePercent",
          "type": "uint8"
        }
      ],
      "name": "updateRoyaltyFee",
      "outputs": [],
      "stateMutability": "nonpayable",
      "type": "function"
    },
    {
      "inputs": [
        {
          "internalType": "address",
          "name": "_newSplit",
          "type": "address"
        }
      ],
      "name": "updateSplitsAddress",
      "outputs": [],
      "stateMutability": "nonpayable",
      "type": "function"
    },
    {
      "inputs": [
        {
          "internalType": "address",
          "name": "_to",
          "type": "address"
        }
      ],
      "name": "upgradeAliveBandImp",
      "outputs": [
        {
          "internalType": "bool",
          "name": "",
          "type": "bool"
        }
      ],
      "stateMutability": "nonpayable",
      "type": "function"
    },
    {
      "inputs": [
        {
          "internalType": "uint8",
          "name": "_songType",
          "type": "uint8"
        },
        {
          "internalType": "address",
          "name": "_to",
          "type": "address"
        }
      ],
      "name": "upgradeAliveSongImp",
      "outputs": [
        {
          "internalType": "bool",
          "name": "",
          "type": "bool"
        }
      ],
      "stateMutability": "nonpayable",
      "type": "function"
    },
    {
      "inputs": [
        {
          "internalType": "contract TransparentUpgradeableProxy",
          "name": "proxy",
          "type": "address"
        },
        {
          "internalType": "address",
          "name": "implementation",
          "type": "address"
        },
        {
          "internalType": "bytes",
          "name": "data",
          "type": "bytes"
        }
      ],
      "name": "upgradeAndCall",
      "outputs": [],
      "stateMutability": "payable",
      "type": "function"
    },
    {
      "inputs": [
        {
          "internalType": "contract TransparentUpgradeableProxy",
          "name": "proxy",
          "type": "address"
        },
        {
          "internalType": "address",
          "name": "implementation",
          "type": "address"
        },
        {
          "internalType": "uint8",
          "name": "contractNum",
          "type": "uint8"
        }
      ],
      "name": "upgradeVersion",
      "outputs": [],
      "stateMutability": "nonpayable",
      "type": "function"
    },
    {
      "inputs": [],
      "name": "versionTest",
      "outputs": [
        {
          "internalType": "string",
          "name": "",
          "type": "string"
        }
      ],
      "stateMutability": "view",
      "type": "function"
    }
  ],
  "bytecode": "0x608060405234801561001057600080fd5b50613c37806100206000396000f3fe608060405260043610620002235760003560e01c80637fd6f15c1162000123578063ab57682711620000ad578063eabced451162000078578063eabced45146200074d578063f3b7dead1462000771578063fac576631462000796578063fba33a8114620007bb578063fc6f946814620007fc57600080fd5b8063ab576827146200067a578063b3553ee914620006e1578063bb744bca1462000703578063bfb16475146200072857600080fd5b80639623609d11620000ee5780639623609d14620005f2578063a33e5c661462000609578063a64890e8146200062e578063a99d9944146200065357600080fd5b80637fd6f15c14620005675780638c57301514620005835780638f28397014620005a85780639489253c14620005cd57600080fd5b80633010f2b611620001b157806365137ea6116200017c57806365137ea614620004b5578063684514a314620004d757806371b33f0e14620004f8578063796a0a3f146200051d5780637eff275e146200054257600080fd5b80633010f2b614620004035780633f195e301462000425578063411ecfb7146200046b5780635c883360146200049057600080fd5b80631417dbf111620001f25780631417dbf1146200036d578063204e1c7a146200039457806321e29a8814620003b957806322cf015614620003de57600080fd5b80630214a02114620002285780630980b2b014620002675780630f9be51c14620002f257806310573f2e1462000328575b600080fd5b3480156200023557600080fd5b506002546200024a906001600160a01b031681565b6040516001600160a01b0390911681526020015b60405180910390f35b3480156200027457600080fd5b50620002be62000286366004620023a3565b6007602052600090815260409020805460018201546002909201546001600160a01b039182169291811690600160a01b900460ff1684565b604080516001600160a01b0395861681526020810194909452919093169082015260ff90911660608201526080016200025e565b348015620002ff57600080fd5b5060085462000315906301000000900460ff1681565b60405160ff90911681526020016200025e565b3480156200033557600080fd5b506200035c6200034736600462001fcf565b60066020526000908152604090205460ff1681565b60405190151581526020016200025e565b3480156200037a57600080fd5b50620003926200038c36600462001fcf565b6200081e565b005b348015620003a157600080fd5b506200024a620003b336600462001fcf565b62000876565b348015620003c657600080fd5b5062000392620003d83660046200233f565b6200090d565b348015620003eb57600080fd5b5062000392620003fd366004620022f2565b62000926565b3480156200041057600080fd5b506003546200024a906001600160a01b031681565b3480156200043257600080fd5b506200045c62000444366004620023a3565b60ff1660009081526007602052604090206001015490565b6040519081526020016200025e565b3480156200047857600080fd5b50620003926200048a36600462002014565b62000a8c565b3480156200049d57600080fd5b5062000392620004af36600462002111565b62000c2f565b348015620004c257600080fd5b50600854620003159062010000900460ff1681565b348015620004e457600080fd5b506008546200031590610100900460ff1681565b3480156200050557600080fd5b506200039262000517366004620023a3565b6200100c565b3480156200052a57600080fd5b50620003926200053c36600462002042565b62001075565b3480156200054f57600080fd5b50620003926200056136600462002239565b6200138c565b3480156200057457600080fd5b50600854620003159060ff1681565b3480156200059057600080fd5b5062000392620005a2366004620021f5565b6200141b565b348015620005b557600080fd5b5062000392620005c736600462001fcf565b620014f0565b348015620005da57600080fd5b506200035c620005ec366004620023c0565b62001586565b620003926200060336600462002276565b6200172d565b3480156200061657600080fd5b506200039262000628366004620021f5565b620017c5565b3480156200063b57600080fd5b50620003926200064d3660046200238a565b620018ad565b3480156200066057600080fd5b506200066b620018df565b6040516200025e9190620024c2565b3480156200068757600080fd5b506200069f62000699366004620023a3565b62001975565b6040805182516001600160a01b0390811682526020808501519083015283830151169181019190915260609182015160ff16918101919091526080016200025e565b348015620006ee57600080fd5b506005546200024a906001600160a01b031681565b3480156200071057600080fd5b506200039262000722366004620021f5565b62001a37565b3480156200073557600080fd5b506200039262000747366004620023de565b62001b1f565b3480156200075a57600080fd5b506008546200031590640100000000900460ff1681565b3480156200077e57600080fd5b506200024a6200079036600462001fcf565b62001bc9565b348015620007a357600080fd5b506200035c620007b536600462001fcf565b62001bf0565b348015620007c857600080fd5b5062000392620007da36600462001fcf565b600380546001600160a01b0319166001600160a01b0392909216919091179055565b3480156200080957600080fd5b506004546200024a906001600160a01b031681565b6004546001600160a01b03163314620008545760405162461bcd60e51b81526004016200084b90620024d7565b60405180910390fd5b600280546001600160a01b0319166001600160a01b0392909216919091179055565b6000806000836001600160a01b03166040516200089d90635c60da1b60e01b815260040190565b600060405180830381855afa9150503d8060008114620008da576040519150601f19603f3d011682016040523d82523d6000602084013e620008df565b606091505b509150915081620008ef57600080fd5b8080602001905181019062000905919062001ff5565b949350505050565b80516200092290600990602084019062001d6a565b5050565b6004546001600160a01b03163314620009535760405162461bcd60e51b81526004016200084b90620024d7565b6200095f838362001d0e565b60ff8116620009f257600880546301000000900460ff169060036200098483620026a9565b82546101009290920a60ff818102199093169183160217909155600854604080516001600160a01b0387168152630100000090920490921660208201527f7155141d659d8c892fe6ca710463a0dfa4e30cb6f86e8da292a1037c4c20fffb92500160405180910390a1505050565b8060ff166001141562000a875760088054640100000000900460ff1690600462000a1c83620026a9565b82546101009290920a60ff818102199093169183160217909155600854604080516001600160a01b038716815264010000000090920490921660208201527fb1239537ce8774a498c4af9c76adb7ed24fc1f450dac3387f79b34ea8266137792500160405180910390a15b505050565b6004546001600160a01b0316331462000ab95760405162461bcd60e51b81526004016200084b90620024d7565b6000811162000adc5760405162461bcd60e51b81526004016200084b9062002580565b60085462000af490610100900460ff16600162002626565b600860016101000a81548160ff021916908360ff1602179055506040518060800160405280836001600160a01b031681526020018281526020018360405162000b3d9062001df9565b6001600160a01b039091168152602001604051809103906000f08015801562000b6a573d6000803e3d6000fd5b506001600160a01b0390811682526001602092830181905260085460ff6101009091048116600090815260078552604090819020865181546001600160a01b031916908616178155868601519381019390935585810151600290930180546060909701519385166001600160a81b031990971696909617600160a01b939092169290920217909355825190851681529081018390527f798da2409fd264e1d38b1cc50531695794b4fcd903e6a0d71744abb6ae2ea12591015b60405180910390a15050565b600054610100900460ff1662000c4c5760005460ff161562000c50565b303b155b62000cb55760405162461bcd60e51b815260206004820152602e60248201527f496e697469616c697a61626c653a20636f6e747261637420697320616c72656160448201526d191e481a5b9a5d1a585b1a5e995960921b60648201526084016200084b565b600054610100900460ff1615801562000cd8576000805461ffff19166101011790555b60648860ff161062000cfe5760405162461bcd60e51b81526004016200084b90620024fc565b600a60019081556001600160a01b0388811660009081526006602052604090819020805460ff1916909317909255600280546001600160a01b031916918c1691909117905551869062000d519062001e07565b6001600160a01b039091168152602001604051809103906000f08015801562000d7e573d6000803e3d6000fd5b50600580546001600160a01b039283166001600160a01b03199182161790915586516008805460ff9092166101000261ff0019909216919091179055600480549285169290911691909117905560005b60085460ff6101009091048116908216101562000fbd576000858260ff168151811062000e0b57634e487b7160e01b600052603260045260246000fd5b602002602001015160001462000e4f57858260ff168151811062000e3f57634e487b7160e01b600052603260045260246000fd5b6020026020010151905062000e54565b506001545b6040518060800160405280888460ff168151811062000e8357634e487b7160e01b600052603260045260246000fd5b60200260200101516001600160a01b03168152602001878460ff168151811062000ebd57634e487b7160e01b600052603260045260246000fd5b60200260200101518152602001888460ff168151811062000eee57634e487b7160e01b600052603260045260246000fd5b602002602001015160405162000f049062001df9565b6001600160a01b039091168152602001604051809103906000f08015801562000f31573d6000803e3d6000fd5b506001600160a01b0390811682526001602092830181905294850160ff818116600090815260078552604090819020865181549086166001600160a01b031990911617815594860151978501979097559584015160029093018054606090950151909616600160a01b026001600160a81b03199094169290911691909117919091179092555062000dce565b50600380546001600160a01b0319166001600160a01b0385161790556008805464ffffff00001916640101010000179055801562001001576000805461ff00191690555b505050505050505050565b6004546001600160a01b03163314620010395760405162461bcd60e51b81526004016200084b90620024d7565b60648160ff16106200105f5760405162461bcd60e51b81526004016200084b90620024fc565b6008805460ff191660ff92909216919091179055565b6004546001600160a01b03163314620010a25760405162461bcd60e51b81526004016200084b90620024d7565b60648660ff1610620010c85760405162461bcd60e51b81526004016200084b90620024fc565b600a60019081556001600160a01b0386811660009081526006602052604090819020805460ff1916909317909255600280546001600160a01b031916918a169190911790555184906200111b9062001e07565b6001600160a01b039091168152602001604051809103906000f08015801562001148573d6000803e3d6000fd5b50600580546001600160a01b0319166001600160a01b039290921691909117905560005b83518160ff16101562001351576000838260ff16815181106200119f57634e487b7160e01b600052603260045260246000fd5b6020026020010151600014620011e357838260ff1681518110620011d357634e487b7160e01b600052603260045260246000fd5b60200260200101519050620011e8565b506001545b6040518060800160405280868460ff16815181106200121757634e487b7160e01b600052603260045260246000fd5b60200260200101516001600160a01b03168152602001858460ff16815181106200125157634e487b7160e01b600052603260045260246000fd5b60200260200101518152602001868460ff16815181106200128257634e487b7160e01b600052603260045260246000fd5b6020026020010151604051620012989062001df9565b6001600160a01b039091168152602001604051809103906000f080158015620012c5573d6000803e3d6000fd5b506001600160a01b0390811682526001602092830181905294850160ff818116600090815260078552604090819020865181549086166001600160a01b031990911617815594860151978501979097559584015160029093018054606090950151909616600160a01b026001600160a81b0319909416929091169190911791909117909255506200116c565b50600380546001600160a01b039092166001600160a01b031990921691909117905550506008805462ff000019166201000017905550505050565b6004546001600160a01b03163314620013b95760405162461bcd60e51b81526004016200084b90620024d7565b6040516308f2839760e41b81526001600160a01b038281166004830152831690638f283970906024015b600060405180830381600087803b158015620013fe57600080fd5b505af115801562001413573d6000803e3d6000fd5b505050505050565b6004546001600160a01b03163314620014485760405162461bcd60e51b81526004016200084b90620024d7565b60005b60085460ff6101009091048116908216101562000a8757600083838360ff168181106200148857634e487b7160e01b600052603260045260246000fd5b90506020020135600014620014ca5783838360ff16818110620014bb57634e487b7160e01b600052603260045260246000fd5b905060200201359050620014cf565b506001545b600191820160ff81166000908152600760205260409020909201556200144b565b6004546001600160a01b031633146200151d5760405162461bcd60e51b81526004016200084b90620024d7565b600454604080516001600160a01b03928316815291831660208301527fcf9b665e0639e0b81a8db37b60ac7ddf45aeb1b484e11adeb7dff4bf4a3a6258910160405180910390a1600480546001600160a01b0319166001600160a01b0392909216919091179055565b6004546000906001600160a01b03163314620015b65760405162461bcd60e51b81526004016200084b90620024d7565b60008360ff16118015620015d8575060085460ff610100909104811690841611155b620015f75760405162461bcd60e51b81526004016200084b906200253d565b60ff831660009081526007602052604090819020600201549051630e0dc3b960e11b81526001600160a01b03848116600483015290911690631c1b877290602401600060405180830381600087803b1580156200165357600080fd5b505af115801562001668573d6000803e3d6000fd5b50505060ff80851660009081526007602052604090206002018054600160a01b9004909116915060146200169c83620026a9565b82546101009290920a60ff8181021990931691831602179091558481166000818152600760209081526040918290206002015482519384526001600160a01b03881691840191909152600160a01b9004909216918101919091527f40285681655860eb96191553b39e0f651a132a3f83bfbc9f268ba4646ba16430915060600160405180910390a150600192915050565b6004546001600160a01b031633146200175a5760405162461bcd60e51b81526004016200084b90620024d7565b60405163278f794360e11b81526001600160a01b03841690634f1ef2869034906200178c90869086906004016200244a565b6000604051808303818588803b158015620017a657600080fd5b505af1158015620017bb573d6000803e3d6000fd5b5050505050505050565b6004546001600160a01b03163314620017f25760405162461bcd60e51b81526004016200084b90620024d7565b60005b8181101562001879576000600660008585858181106200182557634e487b7160e01b600052603260045260246000fd5b90506020020160208101906200183c919062001fcf565b6001600160a01b031681526020810191909152604001600020805460ff19169115159190911790558062001870816200268b565b915050620017f5565b507f96b899640d4155ed6e380545044f61a6e1e9f87e76a12b3e533c7c30005c473f828260405162000c2392919062002470565b6004546001600160a01b03163314620018da5760405162461bcd60e51b81526004016200084b90620024d7565b600155565b60098054620018ee906200264e565b80601f01602080910402602001604051908101604052809291908181526020018280546200191c906200264e565b80156200196d5780601f1062001941576101008083540402835291602001916200196d565b820191906000526020600020905b8154815290600101906020018083116200194f57829003601f168201915b505050505081565b60408051608081018252600080825260208201819052918101829052606081019190915260008260ff16118015620019bb575060085460ff610100909104811690831611155b620019da5760405162461bcd60e51b81526004016200084b906200253d565b5060ff908116600090815260076020908152604091829020825160808101845281546001600160a01b03908116825260018301549382019390935260029091015491821692810192909252600160a01b9004909116606082015290565b6004546001600160a01b0316331462001a645760405162461bcd60e51b81526004016200084b90620024d7565b60005b8181101562001aeb5760016006600085858581811062001a9757634e487b7160e01b600052603260045260246000fd5b905060200201602081019062001aae919062001fcf565b6001600160a01b031681526020810191909152604001600020805460ff19169115159190911790558062001ae2816200268b565b91505062001a67565b507fadbd65150f651ff47b415b7de846e3b9685a2835cd7fc118f7748cfd11ead51a828260405162000c2392919062002470565b6004546001600160a01b0316331462001b4c5760405162461bcd60e51b81526004016200084b90620024d7565b60008260ff1611801562001b6e575060085460ff610100909104811690831611155b62001b8d5760405162461bcd60e51b81526004016200084b906200253d565b6000811162001bb05760405162461bcd60e51b81526004016200084b9062002580565b60ff909116600090815260076020526040902060010155565b6000806000836001600160a01b03166040516200089d906303e1469160e61b815260040190565b6004546000906001600160a01b0316331462001c205760405162461bcd60e51b81526004016200084b90620024d7565b600554604051630e0dc3b960e11b81526001600160a01b03848116600483015290911690631c1b877290602401600060405180830381600087803b15801562001c6857600080fd5b505af115801562001c7d573d6000803e3d6000fd5b50506008805462010000900460ff1692509050600262001c9d83620026a9565b82546101009290920a60ff818102199093169183160217909155600854604080516001600160a01b03871681526201000090920490921660208201527feec990966b436b3c2e647cd68e4aaf99db7ebf0373ee8ed79d2f31f5b54f580092500160405180910390a15060015b919050565b6004546001600160a01b0316331462001d3b5760405162461bcd60e51b81526004016200084b90620024d7565b604051631b2ce7f360e11b81526001600160a01b038281166004830152831690633659cfe690602401620013e3565b82805462001d78906200264e565b90600052602060002090601f01602090048101928262001d9c576000855562001de7565b82601f1062001db757805160ff191683800117855562001de7565b8280016001018555821562001de7579182015b8281111562001de757825182559160200191906001019062001dca565b5062001df592915062001e15565b5090565b610a78806200271283390190565b610a78806200318a83390190565b5b8082111562001df5576000815560010162001e16565b600067ffffffffffffffff83111562001e495762001e49620026e2565b62001e5e601f8401601f1916602001620025cb565b905082815283838301111562001e7357600080fd5b828260208301376000602084830101529392505050565b60008083601f84011262001e9c578182fd5b50813567ffffffffffffffff81111562001eb4578182fd5b6020830191508360208260051b850101111562001ed057600080fd5b9250929050565b600082601f83011262001ee8578081fd5b8135602062001f0162001efb83620025ff565b620025cb565b80838252828201915082860187848660051b890101111562001f21578586fd5b855b8581101562001f4c57813562001f3981620026f8565b8452928401929084019060010162001f23565b5090979650505050505050565b600082601f83011262001f6a578081fd5b8135602062001f7d62001efb83620025ff565b80838252828201915082860187848660051b890101111562001f9d578586fd5b855b8581101562001f4c5781358452928401929084019060010162001f9f565b803560ff8116811462001d0957600080fd5b60006020828403121562001fe1578081fd5b813562001fee81620026f8565b9392505050565b60006020828403121562002007578081fd5b815162001fee81620026f8565b6000806040838503121562002027578081fd5b82356200203481620026f8565b946020939093013593505050565b600080600080600080600060e0888a0312156200205d578283fd5b87356200206a81620026f8565b96506200207a6020890162001fbd565b955060408801356200208c81620026f8565b945060608801356200209e81620026f8565b9350608088013567ffffffffffffffff80821115620020bb578485fd5b620020c98b838c0162001ed7565b945060a08a0135915080821115620020df578384fd5b50620020ee8a828b0162001f59565b92505060c08801356200210181620026f8565b8091505092959891949750929550565b600080600080600080600080610100898b0312156200212e578081fd5b88356200213b81620026f8565b97506200214b60208a0162001fbd565b965060408901356200215d81620026f8565b955060608901356200216f81620026f8565b9450608089013567ffffffffffffffff808211156200218c578283fd5b6200219a8c838d0162001ed7565b955060a08b0135915080821115620021b0578283fd5b50620021bf8b828c0162001f59565b93505060c0890135620021d281620026f8565b915060e0890135620021e481620026f8565b809150509295985092959890939650565b6000806020838503121562002208578182fd5b823567ffffffffffffffff8111156200221f578283fd5b6200222d8582860162001e8a565b90969095509350505050565b600080604083850312156200224c578182fd5b82356200225981620026f8565b915060208301356200226b81620026f8565b809150509250929050565b6000806000606084860312156200228b578081fd5b83356200229881620026f8565b92506020840135620022aa81620026f8565b9150604084013567ffffffffffffffff811115620022c6578182fd5b8401601f81018613620022d7578182fd5b620022e88682356020840162001e2c565b9150509250925092565b60008060006060848603121562002307578081fd5b83356200231481620026f8565b925060208401356200232681620026f8565b9150620023366040850162001fbd565b90509250925092565b60006020828403121562002351578081fd5b813567ffffffffffffffff81111562002368578182fd5b8201601f8101841362002379578182fd5b620009058482356020840162001e2c565b6000602082840312156200239c578081fd5b5035919050565b600060208284031215620023b5578081fd5b62001fee8262001fbd565b60008060408385031215620023d3578182fd5b620022598362001fbd565b60008060408385031215620023f1578182fd5b620020348362001fbd565b60008151808452815b81811015620024235760208185018101518683018201520162002405565b81811115620024355782602083870101525b50601f01601f19169290920160200192915050565b6001600160a01b03831681526040602082018190526000906200090590830184620023fc565b60208082528181018390526000908460408401835b86811015620024b75782356200249b81620026f8565b6001600160a01b03168252918301919083019060010162002485565b509695505050505050565b60208152600062001fee6020830184620023fc565b6020808252600b908201526a4f6e6c792041646d696e2160a81b604082015260600190565b60208082526021908201527f50657263656e74616765206d757374206265206c657373207468616e203130306040820152602160f81b606082015260800190565b60208082526023908201527f5468657265206973206e6f20536f6e67207468617420796f752073656c65637460408201526265642160e81b606082015260800190565b6020808252602b908201527f546865206d6178206d696e7420616d6f756e74206f6620736f6e67206d75737460408201526a206265206f76657220302160a81b606082015260800190565b604051601f8201601f1916810167ffffffffffffffff81118282101715620025f757620025f7620026e2565b604052919050565b600067ffffffffffffffff8211156200261c576200261c620026e2565b5060051b60200190565b600060ff821660ff84168060ff03821115620026465762002646620026cc565b019392505050565b600181811c908216806200266357607f821691505b602082108114156200268557634e487b7160e01b600052602260045260246000fd5b50919050565b6000600019821415620026a257620026a2620026cc565b5060010190565b600060ff821660ff811415620026c357620026c3620026cc565b60010192915050565b634e487b7160e01b600052601160045260246000fd5b634e487b7160e01b600052604160045260246000fd5b6001600160a01b03811681146200270e57600080fd5b5056fe60a060405234801561001057600080fd5b50604051610a78380380610a7883398101604081905261002f916100e5565b61003833610088565b80604051610045906100d8565b6001600160a01b039091168152602001604051809103906000f080158015610071573d6000803e3d6000fd5b5060601b6001600160601b03191660805250610113565b600080546001600160a01b038381166001600160a01b0319831681178455604051919092169283917f8be0079c531659141344cd1fd0a4f28419497f9722a3daafe3b4186f6b6457e09190a35050565b6105258061055383390190565b6000602082840312156100f6578081fd5b81516001600160a01b038116811461010c578182fd5b9392505050565b60805160601c61041561013e6000396000818160a501528181610112015261017501526104156000f3fe608060405234801561001057600080fd5b50600436106100625760003560e01c80631c1b8772146100675780635c60da1b1461007c5780635df16896146100a0578063715018a6146100c75780638da5cb5b146100cf578063f2fde38b146100e0575b600080fd5b61007a61007536600461038f565b6100f3565b005b610084610171565b6040516001600160a01b03909116815260200160405180910390f35b6100847f000000000000000000000000000000000000000000000000000000000000000081565b61007a610209565b6000546001600160a01b0316610084565b61007a6100ee36600461038f565b610274565b604051631b2ce7f360e11b81526001600160a01b0382811660048301527f00000000000000000000000000000000000000000000000000000000000000001690633659cfe690602401600060405180830381600087803b15801561015657600080fd5b505af115801561016a573d6000803e3d6000fd5b5050505050565b60007f00000000000000000000000000000000000000000000000000000000000000006001600160a01b0316635c60da1b6040518163ffffffff1660e01b815260040160206040518083038186803b1580156101cc57600080fd5b505afa1580156101e0573d6000803e3d6000fd5b505050506040513d601f19601f8201168201806040525081019061020491906103b2565b905090565b6000546001600160a01b031633146102685760405162461bcd60e51b815260206004820181905260248201527f4f776e61626c653a2063616c6c6572206973206e6f7420746865206f776e657260448201526064015b60405180910390fd5b610272600061033f565b565b6000546001600160a01b031633146102ce5760405162461bcd60e51b815260206004820181905260248201527f4f776e61626c653a2063616c6c6572206973206e6f7420746865206f776e6572604482015260640161025f565b6001600160a01b0381166103335760405162461bcd60e51b815260206004820152602660248201527f4f776e61626c653a206e6577206f776e657220697320746865207a65726f206160448201526564647265737360d01b606482015260840161025f565b61033c8161033f565b50565b600080546001600160a01b038381166001600160a01b0319831681178455604051919092169283917f8be0079c531659141344cd1fd0a4f28419497f9722a3daafe3b4186f6b6457e09190a35050565b6000602082840312156103a0578081fd5b81356103ab816103ca565b9392505050565b6000602082840312156103c3578081fd5b81516103ab815b6001600160a01b038116811461033c57600080fdfea26469706673582212208cbde6cf025742b2f36359245ec757b33ba2db31ebea62e1f44c25d5f2dfc47264736f6c63430008040033608060405234801561001057600080fd5b5060405161052538038061052583398101604081905261002f91610151565b61003833610047565b61004181610097565b5061017f565b600080546001600160a01b038381166001600160a01b0319831681178455604051919092169283917f8be0079c531659141344cd1fd0a4f28419497f9722a3daafe3b4186f6b6457e09190a35050565b6100aa8161014260201b61020a1760201c565b6101205760405162461bcd60e51b815260206004820152603360248201527f5570677261646561626c65426561636f6e3a20696d706c656d656e746174696f60448201527f6e206973206e6f74206120636f6e747261637400000000000000000000000000606482015260840160405180910390fd5b600180546001600160a01b0319166001600160a01b0392909216919091179055565b6001600160a01b03163b151590565b600060208284031215610162578081fd5b81516001600160a01b0381168114610178578182fd5b9392505050565b6103978061018e6000396000f3fe608060405234801561001057600080fd5b50600436106100575760003560e01c80633659cfe61461005c5780635c60da1b14610071578063715018a61461009a5780638da5cb5b146100a2578063f2fde38b146100b3575b600080fd5b61006f61006a3660046102fe565b6100c6565b005b6001546001600160a01b03165b6040516001600160a01b03909116815260200160405180910390f35b61006f610139565b6000546001600160a01b031661007e565b61006f6100c13660046102fe565b61016f565b6000546001600160a01b031633146100f95760405162461bcd60e51b81526004016100f09061032c565b60405180910390fd5b61010281610219565b6040516001600160a01b038216907fbc7cd75a20ee27fd9adebab32041f755214dbc6bffa90cc0225b39da2e5c2d3b90600090a250565b6000546001600160a01b031633146101635760405162461bcd60e51b81526004016100f09061032c565b61016d60006102ae565b565b6000546001600160a01b031633146101995760405162461bcd60e51b81526004016100f09061032c565b6001600160a01b0381166101fe5760405162461bcd60e51b815260206004820152602660248201527f4f776e61626c653a206e6577206f776e657220697320746865207a65726f206160448201526564647265737360d01b60648201526084016100f0565b610207816102ae565b50565b6001600160a01b03163b151590565b6001600160a01b0381163b61028c5760405162461bcd60e51b815260206004820152603360248201527f5570677261646561626c65426561636f6e3a20696d706c656d656e746174696f6044820152721b881a5cc81b9bdd08184818dbdb9d1c9858dd606a1b60648201526084016100f0565b600180546001600160a01b0319166001600160a01b0392909216919091179055565b600080546001600160a01b038381166001600160a01b0319831681178455604051919092169283917f8be0079c531659141344cd1fd0a4f28419497f9722a3daafe3b4186f6b6457e09190a35050565b60006020828403121561030f578081fd5b81356001600160a01b0381168114610325578182fd5b9392505050565b6020808252818101527f4f776e61626c653a2063616c6c6572206973206e6f7420746865206f776e657260408201526060019056fea2646970667358221220b10efbd9b58f106df798d2be3af2ac632aa9637719879ddce199c76df2c4d53f64736f6c6343000804003360a060405234801561001057600080fd5b50604051610a78380380610a7883398101604081905261002f916100e5565b61003833610088565b80604051610045906100d8565b6001600160a01b039091168152602001604051809103906000f080158015610071573d6000803e3d6000fd5b5060601b6001600160601b03191660805250610113565b600080546001600160a01b038381166001600160a01b0319831681178455604051919092169283917f8be0079c531659141344cd1fd0a4f28419497f9722a3daafe3b4186f6b6457e09190a35050565b6105258061055383390190565b6000602082840312156100f6578081fd5b81516001600160a01b038116811461010c578182fd5b9392505050565b60805160601c61041561013e6000396000818160be01528181610112015261017501526104156000f3fe608060405234801561001057600080fd5b50600436106100625760003560e01c80631c1b8772146100675780635c60da1b1461007c578063715018a6146100a05780638da5cb5b146100a8578063b3553ee9146100b9578063f2fde38b146100e0575b600080fd5b61007a61007536600461038f565b6100f3565b005b610084610171565b6040516001600160a01b03909116815260200160405180910390f35b61007a610209565b6000546001600160a01b0316610084565b6100847f000000000000000000000000000000000000000000000000000000000000000081565b61007a6100ee36600461038f565b610274565b604051631b2ce7f360e11b81526001600160a01b0382811660048301527f00000000000000000000000000000000000000000000000000000000000000001690633659cfe690602401600060405180830381600087803b15801561015657600080fd5b505af115801561016a573d6000803e3d6000fd5b5050505050565b60007f00000000000000000000000000000000000000000000000000000000000000006001600160a01b0316635c60da1b6040518163ffffffff1660e01b815260040160206040518083038186803b1580156101cc57600080fd5b505afa1580156101e0573d6000803e3d6000fd5b505050506040513d601f19601f8201168201806040525081019061020491906103b2565b905090565b6000546001600160a01b031633146102685760405162461bcd60e51b815260206004820181905260248201527f4f776e61626c653a2063616c6c6572206973206e6f7420746865206f776e657260448201526064015b60405180910390fd5b610272600061033f565b565b6000546001600160a01b031633146102ce5760405162461bcd60e51b815260206004820181905260248201527f4f776e61626c653a2063616c6c6572206973206e6f7420746865206f776e6572604482015260640161025f565b6001600160a01b0381166103335760405162461bcd60e51b815260206004820152602660248201527f4f776e61626c653a206e6577206f776e657220697320746865207a65726f206160448201526564647265737360d01b606482015260840161025f565b61033c8161033f565b50565b600080546001600160a01b038381166001600160a01b0319831681178455604051919092169283917f8be0079c531659141344cd1fd0a4f28419497f9722a3daafe3b4186f6b6457e09190a35050565b6000602082840312156103a0578081fd5b81356103ab816103ca565b9392505050565b6000602082840312156103c3578081fd5b81516103ab815b6001600160a01b038116811461033c57600080fdfea2646970667358221220bc24bae1cb9b28a9b7d56d363033cd98a9476f9f3269ed76b6754ceeb6de542964736f6c63430008040033608060405234801561001057600080fd5b5060405161052538038061052583398101604081905261002f91610151565b61003833610047565b61004181610097565b5061017f565b600080546001600160a01b038381166001600160a01b0319831681178455604051919092169283917f8be0079c531659141344cd1fd0a4f28419497f9722a3daafe3b4186f6b6457e09190a35050565b6100aa8161014260201b61020a1760201c565b6101205760405162461bcd60e51b815260206004820152603360248201527f5570677261646561626c65426561636f6e3a20696d706c656d656e746174696f60448201527f6e206973206e6f74206120636f6e747261637400000000000000000000000000606482015260840160405180910390fd5b600180546001600160a01b0319166001600160a01b0392909216919091179055565b6001600160a01b03163b151590565b600060208284031215610162578081fd5b81516001600160a01b0381168114610178578182fd5b9392505050565b6103978061018e6000396000f3fe608060405234801561001057600080fd5b50600436106100575760003560e01c80633659cfe61461005c5780635c60da1b14610071578063715018a61461009a5780638da5cb5b146100a2578063f2fde38b146100b3575b600080fd5b61006f61006a3660046102fe565b6100c6565b005b6001546001600160a01b03165b6040516001600160a01b03909116815260200160405180910390f35b61006f610139565b6000546001600160a01b031661007e565b61006f6100c13660046102fe565b61016f565b6000546001600160a01b031633146100f95760405162461bcd60e51b81526004016100f09061032c565b60405180910390fd5b61010281610219565b6040516001600160a01b038216907fbc7cd75a20ee27fd9adebab32041f755214dbc6bffa90cc0225b39da2e5c2d3b90600090a250565b6000546001600160a01b031633146101635760405162461bcd60e51b81526004016100f09061032c565b61016d60006102ae565b565b6000546001600160a01b031633146101995760405162461bcd60e51b81526004016100f09061032c565b6001600160a01b0381166101fe5760405162461bcd60e51b815260206004820152602660248201527f4f776e61626c653a206e6577206f776e657220697320746865207a65726f206160448201526564647265737360d01b60648201526084016100f0565b610207816102ae565b50565b6001600160a01b03163b151590565b6001600160a01b0381163b61028c5760405162461bcd60e51b815260206004820152603360248201527f5570677261646561626c65426561636f6e3a20696d706c656d656e746174696f6044820152721b881a5cc81b9bdd08184818dbdb9d1c9858dd606a1b60648201526084016100f0565b600180546001600160a01b0319166001600160a01b0392909216919091179055565b600080546001600160a01b038381166001600160a01b0319831681178455604051919092169283917f8be0079c531659141344cd1fd0a4f28419497f9722a3daafe3b4186f6b6457e09190a35050565b60006020828403121561030f578081fd5b81356001600160a01b0381168114610325578182fd5b9392505050565b6020808252818101527f4f776e61626c653a2063616c6c6572206973206e6f7420746865206f776e657260408201526060019056fea2646970667358221220b10efbd9b58f106df798d2be3af2ac632aa9637719879ddce199c76df2c4d53f64736f6c63430008040033a2646970667358221220084440f9dc48bb8c51eecaa3dbf604823eeb520a206f2b5475f3a73138a80dce64736f6c63430008040033",
  "linkReferences": {},
  "deployedLinkReferences": {}
}