{
  "_format": "hh-sol-artifact-1",
  "contractName": "AliveHouse",
  "sourceName": "contracts/NewContracts/AliveHouse.sol",
  "abi": [
    {
      "anonymous": false,
      "inputs": [
        {
          "indexed": false,
          "internalType": "uint256",
          "name": "bandId",
          "type": "uint256"
        },
        {
          "indexed": false,
          "internalType": "string",
          "name": "bandName",
          "type": "string"
        },
        {
          "indexed": false,
          "internalType": "address",
          "name": "bandAddress",
          "type": "address"
        },
        {
          "indexed": false,
          "internalType": "address",
          "name": "bandAdmin",
          "type": "address"
        }
      ],
      "name": "BandCreated",
      "type": "event"
    },
    {
      "inputs": [],
      "name": "aliveRegistry",
      "outputs": [
        {
          "internalType": "address",
          "name": "",
          "type": "address"
        }
      ],
      "stateMutability": "view",
      "type": "function"
    },
    {
      "inputs": [
        {
          "internalType": "uint256",
          "name": "",
          "type": "uint256"
        }
      ],
      "name": "allBands",
      "outputs": [
        {
          "internalType": "uint256",
          "name": "bandId",
          "type": "uint256"
        },
        {
          "internalType": "string",
          "name": "bandName",
          "type": "string"
        },
        {
          "internalType": "address",
          "name": "bandAddress",
          "type": "address"
        },
        {
          "internalType": "address",
          "name": "bandAdmin",
          "type": "address"
        }
      ],
      "stateMutability": "view",
      "type": "function"
    },
    {
      "inputs": [
        {
          "internalType": "address",
          "name": "_bandAdmin",
          "type": "address"
        },
        {
          "internalType": "string",
          "name": "_bandName",
          "type": "string"
        }
      ],
      "name": "createAliveBand",
      "outputs": [
        {
          "internalType": "address",
          "name": "",
          "type": "address"
        }
      ],
      "stateMutability": "nonpayable",
      "type": "function"
    },
    {
      "inputs": [],
      "name": "getAllBands",
      "outputs": [
        {
          "components": [
            {
              "internalType": "uint256",
              "name": "bandId",
              "type": "uint256"
            },
            {
              "internalType": "string",
              "name": "bandName",
              "type": "string"
            },
            {
              "internalType": "address",
              "name": "bandAddress",
              "type": "address"
            },
            {
              "internalType": "address",
              "name": "bandAdmin",
              "type": "address"
            }
          ],
          "internalType": "struct AliveHouse.Band[]",
          "name": "",
          "type": "tuple[]"
        }
      ],
      "stateMutability": "view",
      "type": "function"
    },
    {
      "inputs": [
        {
          "internalType": "uint256",
          "name": "_id",
          "type": "uint256"
        }
      ],
      "name": "getBandById",
      "outputs": [
        {
          "components": [
            {
              "internalType": "uint256",
              "name": "bandId",
              "type": "uint256"
            },
            {
              "internalType": "string",
              "name": "bandName",
              "type": "string"
            },
            {
              "internalType": "address",
              "name": "bandAddress",
              "type": "address"
            },
            {
              "internalType": "address",
              "name": "bandAdmin",
              "type": "address"
            }
          ],
          "internalType": "struct AliveHouse.Band",
          "name": "",
          "type": "tuple"
        }
      ],
      "stateMutability": "view",
      "type": "function"
    },
    {
      "inputs": [
        {
          "internalType": "address",
          "name": "_aliveRegistry",
          "type": "address"
        }
      ],
      "name": "initialize",
      "outputs": [],
      "stateMutability": "nonpayable",
      "type": "function"
    }
  ],
  "bytecode": "0x608060405234801561001057600080fd5b506116ed806100206000396000f3fe60806040523480156200001157600080fd5b50600436106200006a5760003560e01c80631122ed77146200006f5780635b9822b814620000a3578063b5289a5d14620000c9578063c1449b5714620000e2578063c4d66de8146200010b578063cc942bad1462000124575b600080fd5b6200008662000080366004620009da565b6200013e565b6040516001600160a01b0390911681526020015b60405180910390f35b620000ba620000b436600462000ae6565b620004ea565b6040516200009a919062000c2f565b620000d3620005df565b6040516200009a919062000bca565b620000f9620000f336600462000ae6565b6200070a565b6040516200009a949392919062000c44565b620001226200011c366004620009b4565b620007e4565b005b60005462000086906201000090046001600160a01b031681565b6000805460405163082b9f9760e11b8152336004820152620100009091046001600160a01b0316906310573f2e9060240160206040518083038186803b1580156200018857600080fd5b505afa1580156200019d573d6000803e3d6000fd5b505050506040513d601f19601f82011682018060405250810190620001c3919062000aa5565b15156001146200020b5760405162461bcd60e51b815260206004820152600e60248201526d4f6e6c7920476f7665726e6f722160901b60448201526064015b60405180910390fd5b600180546000916200021e919062000c80565b60008054604051929350909163a035c08560e01b916200025791859188918a916201000090046001600160a01b03169060240162000c44565b604051602081830303815290604052906001600160e01b0319166020820180516001600160e01b038381831617835250505050905060008060029054906101000a90046001600160a01b03166001600160a01b031663b3553ee96040518163ffffffff1660e01b815260040160206040518083038186803b158015620002dc57600080fd5b505afa158015620002f1573d6000803e3d6000fd5b505050506040513d601f19601f8201168201806040525081019062000317919062000ac7565b826040516200032690620008c6565b6200033392919062000b9c565b604051809103906000f08015801562000350573d6000803e3d6000fd5b5090506200035d620008d4565b83815260208082018781526001600160a01b0384811660408501528916606084015260018054808201825560009190915283517fb10e2d527612073b26eecdfd717e6a320cf44b4afac2b0732d9fcbe2b7fa0cf66004909202918201908155915180518594620003f2937fb10e2d527612073b26eecdfd717e6a320cf44b4afac2b0732d9fcbe2b7fa0cf7019201906200090e565b50604082810151600280840180546001600160a01b039384166001600160a01b031991821617909155606090950151600390940180549490921693909416929092179091556000868152602092835220825181558183015180518493620004619260018501929101906200090e565b506040828101516002830180546001600160a01b03199081166001600160a01b039384161790915560609094015160039093018054909416921691909117909155517f6c5c797ac242b27c4baa852a9b9af623b9ede17fe98266f0b4425934ae2fb90190620004d8908690899086908c9062000c44565b60405180910390a15095945050505050565b620004f4620008d4565b60026000838152602001908152602001600020604051806080016040529081600082015481526020016001820180546200052e9062000ca5565b80601f01602080910402602001604051908101604052809291908181526020018280546200055c9062000ca5565b8015620005ad5780601f106200058157610100808354040283529160200191620005ad565b820191906000526020600020905b8154815290600101906020018083116200058f57829003601f168201915b505050918352505060028201546001600160a01b03908116602083015260039092015490911660409091015292915050565b60606001805480602002602001604051908101604052809291908181526020016000905b8282101562000701578382906000526020600020906004020160405180608001604052908160008201548152602001600182018054620006439062000ca5565b80601f0160208091040260200160405190810160405280929190818152602001828054620006719062000ca5565b8015620006c25780601f106200069657610100808354040283529160200191620006c2565b820191906000526020600020905b815481529060010190602001808311620006a457829003601f168201915b505050918352505060028201546001600160a01b0390811660208084019190915260039093015416604090910152908252600192909201910162000603565b50505050905090565b600181815481106200071b57600080fd5b60009182526020909120600490910201805460018201805491935090620007429062000ca5565b80601f0160208091040260200160405190810160405280929190818152602001828054620007709062000ca5565b8015620007c15780601f106200079557610100808354040283529160200191620007c1565b820191906000526020600020905b815481529060010190602001808311620007a357829003601f168201915b50505050600283015460039093015491926001600160a01b039081169216905084565b600054610100900460ff16620008015760005460ff161562000805565b303b155b6200086a5760405162461bcd60e51b815260206004820152602e60248201527f496e697469616c697a61626c653a20636f6e747261637420697320616c72656160448201526d191e481a5b9a5d1a585b1a5e995960921b606482015260840162000202565b600054610100900460ff161580156200088d576000805461ffff19166101011790555b6000805462010000600160b01b031916620100006001600160a01b038516021790558015620008c2576000805461ff00191690555b5050565b6109a68062000d1283390190565b6040518060800160405280600081526020016060815260200160006001600160a01b0316815260200160006001600160a01b031681525090565b8280546200091c9062000ca5565b90600052602060002090601f0160209004810192826200094057600085556200098b565b82601f106200095b57805160ff19168380011785556200098b565b828001600101855582156200098b579182015b828111156200098b5782518255916020019190600101906200096e565b50620009999291506200099d565b5090565b5b808211156200099957600081556001016200099e565b600060208284031215620009c6578081fd5b8135620009d38162000cf8565b9392505050565b60008060408385031215620009ed578081fd5b8235620009fa8162000cf8565b9150602083013567ffffffffffffffff8082111562000a17578283fd5b818501915085601f83011262000a2b578283fd5b81358181111562000a405762000a4062000ce2565b604051601f8201601f19908116603f0116810190838211818310171562000a6b5762000a6b62000ce2565b8160405282815288602084870101111562000a84578586fd5b82602086016020830137856020848301015280955050505050509250929050565b60006020828403121562000ab7578081fd5b81518015158114620009d3578182fd5b60006020828403121562000ad9578081fd5b8151620009d38162000cf8565b60006020828403121562000af8578081fd5b5035919050565b60008151808452815b8181101562000b265760208185018101518683018201520162000b08565b8181111562000b385782602083870101525b50601f01601f19169290920160200192915050565b80518252600060208201516080602085015262000b6e608085018262000aff565b6040848101516001600160a01b03908116918701919091526060948501511693909401929092525090919050565b6001600160a01b038316815260406020820181905260009062000bc29083018462000aff565b949350505050565b6000602080830181845280855180835260408601915060408160051b8701019250838701855b8281101562000c2257603f1988860301845262000c0f85835162000b4d565b9450928501929085019060010162000bf0565b5092979650505050505050565b602081526000620009d3602083018462000b4d565b84815260806020820152600062000c5f608083018662000aff565b6001600160a01b039485166040840152929093166060909101529392505050565b6000821982111562000ca057634e487b7160e01b81526011600452602481fd5b500190565b600181811c9082168062000cba57607f821691505b6020821081141562000cdc57634e487b7160e01b600052602260045260246000fd5b50919050565b634e487b7160e01b600052604160045260246000fd5b6001600160a01b038116811462000d0e57600080fd5b5056fe60806040526040516109a63803806109a68339810160408190526100229161048f565b61004d60017fa3f0ad74e5423aebfd80d3ef4346578335a9a72aeaee59ff6cb3582b35133d5161059a565b60008051602061095f8339815191521461007757634e487b7160e01b600052600160045260246000fd5b6100838282600061008a565b50506105ff565b61009383610164565b6040516001600160a01b038416907f1cf3b03a6cf19fa2baba4df148e9dcabedea7f8a5c07840e207e5c089be95d3e90600090a26000825111806100d45750805b1561015f5761015d836001600160a01b0316635c60da1b6040518163ffffffff1660e01b815260040160206040518083038186803b15801561011557600080fd5b505afa158015610129573d6000803e3d6000fd5b505050506040513d601f19601f8201168201806040525081019061014d9190610475565b8361030460201b6100291760201c565b505b505050565b6101778161033060201b6100551760201c565b6101d65760405162461bcd60e51b815260206004820152602560248201527f455243313936373a206e657720626561636f6e206973206e6f74206120636f6e6044820152641d1c9858dd60da1b60648201526084015b60405180910390fd5b610259816001600160a01b0316635c60da1b6040518163ffffffff1660e01b815260040160206040518083038186803b15801561021257600080fd5b505afa158015610226573d6000803e3d6000fd5b505050506040513d601f19601f8201168201806040525081019061024a9190610475565b61033060201b6100551760201c565b6102be5760405162461bcd60e51b815260206004820152603060248201527f455243313936373a20626561636f6e20696d706c656d656e746174696f6e206960448201526f1cc81b9bdd08184818dbdb9d1c9858dd60821b60648201526084016101cd565b806102e360008051602061095f83398151915260001b61033f60201b6100641760201c565b80546001600160a01b0319166001600160a01b039290921691909117905550565b6060610329838360405180606001604052806027815260200161097f60279139610342565b9392505050565b6001600160a01b03163b151590565b90565b60606001600160a01b0384163b6103aa5760405162461bcd60e51b815260206004820152602660248201527f416464726573733a2064656c65676174652063616c6c20746f206e6f6e2d636f6044820152651b9d1c9858dd60d21b60648201526084016101cd565b600080856001600160a01b0316856040516103c5919061054b565b600060405180830381855af49150503d8060008114610400576040519150601f19603f3d011682016040523d82523d6000602084013e610405565b606091505b509092509050610416828286610420565b9695505050505050565b6060831561042f575081610329565b82511561043f5782518084602001fd5b8160405162461bcd60e51b81526004016101cd9190610567565b80516001600160a01b038116811461047057600080fd5b919050565b600060208284031215610486578081fd5b61032982610459565b600080604083850312156104a1578081fd5b6104aa83610459565b60208401519092506001600160401b03808211156104c6578283fd5b818501915085601f8301126104d9578283fd5b8151818111156104eb576104eb6105e9565b604051601f8201601f19908116603f01168101908382118183101715610513576105136105e9565b8160405282815288602084870101111561052b578586fd5b61053c8360208301602088016105bd565b80955050505050509250929050565b6000825161055d8184602087016105bd565b9190910192915050565b60208152600082518060208401526105868160408501602087016105bd565b601f01601f19169190910160400192915050565b6000828210156105b857634e487b7160e01b81526011600452602481fd5b500390565b60005b838110156105d85781810151838201526020016105c0565b8381111561015d5750506000910152565b634e487b7160e01b600052604160045260246000fd5b6103518061060e6000396000f3fe60806040523661001357610011610017565b005b6100115b610027610022610067565b61010f565b565b606061004e83836040518060600160405280602781526020016102f560279139610133565b9392505050565b6001600160a01b03163b151590565b90565b600061009a7fa3f0ad74e5423aebfd80d3ef4346578335a9a72aeaee59ff6cb3582b35133d50546001600160a01b031690565b6001600160a01b0316635c60da1b6040518163ffffffff1660e01b815260040160206040518083038186803b1580156100d257600080fd5b505afa1580156100e6573d6000803e3d6000fd5b505050506040513d601f19601f8201168201806040525081019061010a919061024e565b905090565b3660008037600080366000845af43d6000803e80801561012e573d6000f35b3d6000fd5b60606001600160a01b0384163b6101a05760405162461bcd60e51b815260206004820152602660248201527f416464726573733a2064656c65676174652063616c6c20746f206e6f6e2d636f6044820152651b9d1c9858dd60d21b60648201526084015b60405180910390fd5b600080856001600160a01b0316856040516101bb9190610275565b600060405180830381855af49150503d80600081146101f6576040519150601f19603f3d011682016040523d82523d6000602084013e6101fb565b606091505b509150915061020b828286610215565b9695505050505050565b6060831561022457508161004e565b8251156102345782518084602001fd5b8160405162461bcd60e51b81526004016101979190610291565b60006020828403121561025f578081fd5b81516001600160a01b038116811461004e578182fd5b600082516102878184602087016102c4565b9190910192915050565b60208152600082518060208401526102b08160408501602087016102c4565b601f01601f19169190910160400192915050565b60005b838110156102df5781810151838201526020016102c7565b838111156102ee576000848401525b5050505056fe416464726573733a206c6f772d6c6576656c2064656c65676174652063616c6c206661696c6564a264697066735822122016ea08a7841a46184a644096b040aec774c73ce0c22b71eae6153978cbf35d5664736f6c63430008040033a3f0ad74e5423aebfd80d3ef4346578335a9a72aeaee59ff6cb3582b35133d50416464726573733a206c6f772d6c6576656c2064656c65676174652063616c6c206661696c6564a2646970667358221220f796b8988b287023627456a3daa6f038fa79a638dd95f5a53482c0d30c5cb42264736f6c63430008040033",
  "linkReferences": {},
  "deployedLinkReferences": {}
}