{
  "_format": "hh-sol-artifact-1",
  "contractName": "AliveDutchSong",
  "sourceName": "contracts/NewContracts/Songs/AliveDutchSong.sol",
  "abi": [
    {
      "inputs": [],
      "name": "ApprovalCallerNotOwnerNorApproved",
      "type": "error"
    },
    {
      "inputs": [],
      "name": "ApprovalQueryForNonexistentToken",
      "type": "error"
    },
    {
      "inputs": [],
      "name": "ApproveToCaller",
      "type": "error"
    },
    {
      "inputs": [],
      "name": "BalanceQueryForZeroAddress",
      "type": "error"
    },
    {
      "inputs": [],
      "name": "MintERC2309QuantityExceedsLimit",
      "type": "error"
    },
    {
      "inputs": [],
      "name": "MintToZeroAddress",
      "type": "error"
    },
    {
      "inputs": [],
      "name": "MintZeroQuantity",
      "type": "error"
    },
    {
      "inputs": [],
      "name": "OwnerQueryForNonexistentToken",
      "type": "error"
    },
    {
      "inputs": [],
      "name": "OwnershipNotInitializedForExtraData",
      "type": "error"
    },
    {
      "inputs": [],
      "name": "TransferCallerNotOwnerNorApproved",
      "type": "error"
    },
    {
      "inputs": [],
      "name": "TransferFromIncorrectOwner",
      "type": "error"
    },
    {
      "inputs": [],
      "name": "TransferToNonERC721ReceiverImplementer",
      "type": "error"
    },
    {
      "inputs": [],
      "name": "TransferToZeroAddress",
      "type": "error"
    },
    {
      "inputs": [],
      "name": "URIQueryForNonexistentToken",
      "type": "error"
    },
    {
      "anonymous": false,
      "inputs": [
        {
          "indexed": true,
          "internalType": "address",
          "name": "owner",
          "type": "address"
        },
        {
          "indexed": true,
          "internalType": "address",
          "name": "approved",
          "type": "address"
        },
        {
          "indexed": true,
          "internalType": "uint256",
          "name": "tokenId",
          "type": "uint256"
        }
      ],
      "name": "Approval",
      "type": "event"
    },
    {
      "anonymous": false,
      "inputs": [
        {
          "indexed": true,
          "internalType": "address",
          "name": "owner",
          "type": "address"
        },
        {
          "indexed": true,
          "internalType": "address",
          "name": "operator",
          "type": "address"
        },
        {
          "indexed": false,
          "internalType": "bool",
          "name": "approved",
          "type": "bool"
        }
      ],
      "name": "ApprovalForAll",
      "type": "event"
    },
    {
      "anonymous": false,
      "inputs": [
        {
          "indexed": false,
          "internalType": "address",
          "name": "owner",
          "type": "address"
        },
        {
          "indexed": false,
          "internalType": "uint256",
          "name": "tokenID",
          "type": "uint256"
        }
      ],
      "name": "ClaimAllDrop",
      "type": "event"
    },
    {
      "anonymous": false,
      "inputs": [
        {
          "indexed": false,
          "internalType": "address",
          "name": "owner",
          "type": "address"
        },
        {
          "indexed": false,
          "internalType": "uint256",
          "name": "dropID",
          "type": "uint256"
        },
        {
          "indexed": false,
          "internalType": "uint256",
          "name": "tokenID",
          "type": "uint256"
        },
        {
          "indexed": false,
          "internalType": "uint256",
          "name": "amount",
          "type": "uint256"
        }
      ],
      "name": "ClaimDrop",
      "type": "event"
    },
    {
      "anonymous": false,
      "inputs": [
        {
          "indexed": true,
          "internalType": "uint256",
          "name": "fromTokenId",
          "type": "uint256"
        },
        {
          "indexed": false,
          "internalType": "uint256",
          "name": "toTokenId",
          "type": "uint256"
        },
        {
          "indexed": true,
          "internalType": "address",
          "name": "from",
          "type": "address"
        },
        {
          "indexed": true,
          "internalType": "address",
          "name": "to",
          "type": "address"
        }
      ],
      "name": "ConsecutiveTransfer",
      "type": "event"
    },
    {
      "anonymous": false,
      "inputs": [
        {
          "indexed": false,
          "internalType": "address",
          "name": "account",
          "type": "address"
        }
      ],
      "name": "Paused",
      "type": "event"
    },
    {
      "anonymous": false,
      "inputs": [
        {
          "indexed": true,
          "internalType": "bytes32",
          "name": "role",
          "type": "bytes32"
        },
        {
          "indexed": true,
          "internalType": "bytes32",
          "name": "previousAdminRole",
          "type": "bytes32"
        },
        {
          "indexed": true,
          "internalType": "bytes32",
          "name": "newAdminRole",
          "type": "bytes32"
        }
      ],
      "name": "RoleAdminChanged",
      "type": "event"
    },
    {
      "anonymous": false,
      "inputs": [
        {
          "indexed": true,
          "internalType": "bytes32",
          "name": "role",
          "type": "bytes32"
        },
        {
          "indexed": true,
          "internalType": "address",
          "name": "account",
          "type": "address"
        },
        {
          "indexed": true,
          "internalType": "address",
          "name": "sender",
          "type": "address"
        }
      ],
      "name": "RoleGranted",
      "type": "event"
    },
    {
      "anonymous": false,
      "inputs": [
        {
          "indexed": true,
          "internalType": "bytes32",
          "name": "role",
          "type": "bytes32"
        },
        {
          "indexed": true,
          "internalType": "address",
          "name": "account",
          "type": "address"
        },
        {
          "indexed": true,
          "internalType": "address",
          "name": "sender",
          "type": "address"
        }
      ],
      "name": "RoleRevoked",
      "type": "event"
    },
    {
      "anonymous": false,
      "inputs": [
        {
          "indexed": false,
          "internalType": "address",
          "name": "owner",
          "type": "address"
        },
        {
          "indexed": false,
          "internalType": "uint256",
          "name": "quantity",
          "type": "uint256"
        },
        {
          "indexed": false,
          "internalType": "uint256",
          "name": "totalSupply",
          "type": "uint256"
        },
        {
          "indexed": false,
          "internalType": "address",
          "name": "songAddress",
          "type": "address"
        }
      ],
      "name": "SongMinted",
      "type": "event"
    },
    {
      "anonymous": false,
      "inputs": [
        {
          "indexed": true,
          "internalType": "address",
          "name": "from",
          "type": "address"
        },
        {
          "indexed": true,
          "internalType": "address",
          "name": "to",
          "type": "address"
        },
        {
          "indexed": true,
          "internalType": "uint256",
          "name": "tokenId",
          "type": "uint256"
        }
      ],
      "name": "Transfer",
      "type": "event"
    },
    {
      "anonymous": false,
      "inputs": [
        {
          "indexed": false,
          "internalType": "address",
          "name": "account",
          "type": "address"
        }
      ],
      "name": "Unpaused",
      "type": "event"
    },
    {
      "inputs": [],
      "name": "DEFAULT_ADMIN_ROLE",
      "outputs": [
        {
          "internalType": "bytes32",
          "name": "",
          "type": "bytes32"
        }
      ],
      "stateMutability": "view",
      "type": "function"
    },
    {
      "inputs": [
        {
          "internalType": "address",
          "name": "",
          "type": "address"
        },
        {
          "internalType": "uint256",
          "name": "",
          "type": "uint256"
        }
      ],
      "name": "addressTokenIds",
      "outputs": [
        {
          "internalType": "uint256",
          "name": "",
          "type": "uint256"
        }
      ],
      "stateMutability": "view",
      "type": "function"
    },
    {
      "inputs": [],
      "name": "aliveRegistry",
      "outputs": [
        {
          "internalType": "address",
          "name": "",
          "type": "address"
        }
      ],
      "stateMutability": "view",
      "type": "function"
    },
    {
      "inputs": [
        {
          "internalType": "uint256",
          "name": "",
          "type": "uint256"
        }
      ],
      "name": "allDrops",
      "outputs": [
        {
          "internalType": "uint256",
          "name": "dropID",
          "type": "uint256"
        },
        {
          "internalType": "uint256",
          "name": "dropTotalAmount",
          "type": "uint256"
        },
        {
          "internalType": "uint256",
          "name": "dropPerNFT",
          "type": "uint256"
        },
        {
          "internalType": "uint256",
          "name": "totalClaimed",
          "type": "uint256"
        },
        {
          "internalType": "uint256",
          "name": "dropNumber",
          "type": "uint256"
        }
      ],
      "stateMutability": "view",
      "type": "function"
    },
    {
      "inputs": [
        {
          "internalType": "address",
          "name": "to",
          "type": "address"
        },
        {
          "internalType": "uint256",
          "name": "tokenId",
          "type": "uint256"
        }
      ],
      "name": "approve",
      "outputs": [],
      "stateMutability": "nonpayable",
      "type": "function"
    },
    {
      "inputs": [
        {
          "internalType": "address",
          "name": "owner",
          "type": "address"
        }
      ],
      "name": "balanceOf",
      "outputs": [
        {
          "internalType": "uint256",
          "name": "",
          "type": "uint256"
        }
      ],
      "stateMutability": "view",
      "type": "function"
    },
    {
      "inputs": [],
      "name": "band",
      "outputs": [
        {
          "internalType": "address",
          "name": "",
          "type": "address"
        }
      ],
      "stateMutability": "view",
      "type": "function"
    },
    {
      "inputs": [
        {
          "internalType": "address[]",
          "name": "_arrayOfReceivers",
          "type": "address[]"
        },
        {
          "internalType": "uint256",
          "name": "_amountForEach",
          "type": "uint256"
        }
      ],
      "name": "batchAirDrop",
      "outputs": [],
      "stateMutability": "nonpayable",
      "type": "function"
    },
    {
      "inputs": [
        {
          "internalType": "uint256",
          "name": "tokenId",
          "type": "uint256"
        }
      ],
      "name": "burn",
      "outputs": [],
      "stateMutability": "nonpayable",
      "type": "function"
    },
    {
      "inputs": [],
      "name": "ceilPrice",
      "outputs": [
        {
          "internalType": "uint256",
          "name": "",
          "type": "uint256"
        }
      ],
      "stateMutability": "view",
      "type": "function"
    },
    {
      "inputs": [
        {
          "internalType": "uint256",
          "name": "tokenID",
          "type": "uint256"
        }
      ],
      "name": "claimAllDrop",
      "outputs": [
        {
          "internalType": "bool",
          "name": "success",
          "type": "bool"
        }
      ],
      "stateMutability": "nonpayable",
      "type": "function"
    },
    {
      "inputs": [
        {
          "internalType": "uint256",
          "name": "dropID",
          "type": "uint256"
        },
        {
          "internalType": "uint256",
          "name": "tokenID",
          "type": "uint256"
        }
      ],
      "name": "claimDrop",
      "outputs": [
        {
          "internalType": "bool",
          "name": "",
          "type": "bool"
        }
      ],
      "stateMutability": "nonpayable",
      "type": "function"
    },
    {
      "inputs": [
        {
          "internalType": "uint256",
          "name": "",
          "type": "uint256"
        },
        {
          "internalType": "uint256",
          "name": "",
          "type": "uint256"
        }
      ],
      "name": "claimedOfTokenId",
      "outputs": [
        {
          "internalType": "bool",
          "name": "",
          "type": "bool"
        }
      ],
      "stateMutability": "view",
      "type": "function"
    },
    {
      "inputs": [],
      "name": "contractURI",
      "outputs": [
        {
          "internalType": "string",
          "name": "",
          "type": "string"
        }
      ],
      "stateMutability": "view",
      "type": "function"
    },
    {
      "inputs": [],
      "name": "discountRate",
      "outputs": [
        {
          "internalType": "uint256",
          "name": "",
          "type": "uint256"
        }
      ],
      "stateMutability": "view",
      "type": "function"
    },
    {
      "inputs": [],
      "name": "floorPrice",
      "outputs": [
        {
          "internalType": "uint256",
          "name": "",
          "type": "uint256"
        }
      ],
      "stateMutability": "view",
      "type": "function"
    },
    {
      "inputs": [],
      "name": "getAllDrops",
      "outputs": [
        {
          "components": [
            {
              "internalType": "uint256",
              "name": "dropID",
              "type": "uint256"
            },
            {
              "internalType": "uint256",
              "name": "dropTotalAmount",
              "type": "uint256"
            },
            {
              "internalType": "uint256",
              "name": "dropPerNFT",
              "type": "uint256"
            },
            {
              "internalType": "uint256",
              "name": "totalClaimed",
              "type": "uint256"
            },
            {
              "internalType": "uint256",
              "name": "dropNumber",
              "type": "uint256"
            }
          ],
          "internalType": "struct AliveCommonSong.Drop[]",
          "name": "",
          "type": "tuple[]"
        }
      ],
      "stateMutability": "view",
      "type": "function"
    },
    {
      "inputs": [
        {
          "internalType": "address",
          "name": "_owner",
          "type": "address"
        }
      ],
      "name": "getAllTokensByOwner",
      "outputs": [
        {
          "internalType": "uint256[]",
          "name": "",
          "type": "uint256[]"
        }
      ],
      "stateMutability": "view",
      "type": "function"
    },
    {
      "inputs": [
        {
          "internalType": "uint256",
          "name": "tokenId",
          "type": "uint256"
        }
      ],
      "name": "getApproved",
      "outputs": [
        {
          "internalType": "address",
          "name": "",
          "type": "address"
        }
      ],
      "stateMutability": "view",
      "type": "function"
    },
    {
      "inputs": [
        {
          "internalType": "uint256",
          "name": "tokenID",
          "type": "uint256"
        }
      ],
      "name": "getClaimStatusByTokenID",
      "outputs": [
        {
          "internalType": "bool[]",
          "name": "",
          "type": "bool[]"
        }
      ],
      "stateMutability": "view",
      "type": "function"
    },
    {
      "inputs": [],
      "name": "getContractURI",
      "outputs": [
        {
          "internalType": "string",
          "name": "",
          "type": "string"
        }
      ],
      "stateMutability": "view",
      "type": "function"
    },
    {
      "inputs": [
        {
          "internalType": "uint256",
          "name": "_quantity",
          "type": "uint256"
        }
      ],
      "name": "getPrice",
      "outputs": [
        {
          "internalType": "uint256",
          "name": "price",
          "type": "uint256"
        }
      ],
      "stateMutability": "view",
      "type": "function"
    },
    {
      "inputs": [
        {
          "internalType": "bytes32",
          "name": "role",
          "type": "bytes32"
        }
      ],
      "name": "getRoleAdmin",
      "outputs": [
        {
          "internalType": "bytes32",
          "name": "",
          "type": "bytes32"
        }
      ],
      "stateMutability": "view",
      "type": "function"
    },
    {
      "inputs": [
        {
          "internalType": "bytes32",
          "name": "role",
          "type": "bytes32"
        },
        {
          "internalType": "address",
          "name": "account",
          "type": "address"
        }
      ],
      "name": "grantRole",
      "outputs": [],
      "stateMutability": "nonpayable",
      "type": "function"
    },
    {
      "inputs": [
        {
          "internalType": "bytes32",
          "name": "role",
          "type": "bytes32"
        },
        {
          "internalType": "address",
          "name": "account",
          "type": "address"
        }
      ],
      "name": "hasRole",
      "outputs": [
        {
          "internalType": "bool",
          "name": "",
          "type": "bool"
        }
      ],
      "stateMutability": "view",
      "type": "function"
    },
    {
      "inputs": [
        {
          "internalType": "address",
          "name": "_aliveRegistry",
          "type": "address"
        },
        {
          "internalType": "address",
          "name": "_royaltyReceiverSecondary",
          "type": "address"
        },
        {
          "internalType": "uint96",
          "name": "_royaltyFeesInBips",
          "type": "uint96"
        },
        {
          "internalType": "address",
          "name": "_royaltyReceiverSplit",
          "type": "address"
        },
        {
          "internalType": "uint96",
          "name": "_offchainRoyaltyPercentageInBips",
          "type": "uint96"
        },
        {
          "internalType": "string",
          "name": "_songURI",
          "type": "string"
        },
        {
          "internalType": "string",
          "name": "_contractURI",
          "type": "string"
        },
        {
          "internalType": "address",
          "name": "_artist",
          "type": "address"
        },
        {
          "internalType": "uint256",
          "name": "_songId",
          "type": "uint256"
        },
        {
          "internalType": "uint256[5]",
          "name": "_songInfos",
          "type": "uint256[5]"
        }
      ],
      "name": "initialize",
      "outputs": [],
      "stateMutability": "nonpayable",
      "type": "function"
    },
    {
      "inputs": [
        {
          "internalType": "address",
          "name": "owner",
          "type": "address"
        },
        {
          "internalType": "address",
          "name": "operator",
          "type": "address"
        }
      ],
      "name": "isApprovedForAll",
      "outputs": [
        {
          "internalType": "bool",
          "name": "",
          "type": "bool"
        }
      ],
      "stateMutability": "view",
      "type": "function"
    },
    {
      "inputs": [],
      "name": "maxMintAmount",
      "outputs": [
        {
          "internalType": "uint256",
          "name": "",
          "type": "uint256"
        }
      ],
      "stateMutability": "view",
      "type": "function"
    },
    {
      "inputs": [
        {
          "internalType": "address",
          "name": "_to",
          "type": "address"
        },
        {
          "internalType": "uint256",
          "name": "_quantity",
          "type": "uint256"
        }
      ],
      "name": "mint",
      "outputs": [],
      "stateMutability": "payable",
      "type": "function"
    },
    {
      "inputs": [],
      "name": "mintRoyaltyReceiver",
      "outputs": [
        {
          "internalType": "address",
          "name": "",
          "type": "address"
        }
      ],
      "stateMutability": "view",
      "type": "function"
    },
    {
      "inputs": [
        {
          "internalType": "uint256",
          "name": "_tokenId",
          "type": "uint256"
        }
      ],
      "name": "myTotalBalance",
      "outputs": [
        {
          "internalType": "uint256",
          "name": "",
          "type": "uint256"
        }
      ],
      "stateMutability": "view",
      "type": "function"
    },
    {
      "inputs": [],
      "name": "name",
      "outputs": [
        {
          "internalType": "string",
          "name": "",
          "type": "string"
        }
      ],
      "stateMutability": "view",
      "type": "function"
    },
    {
      "inputs": [],
      "name": "newDrop",
      "outputs": [],
      "stateMutability": "payable",
      "type": "function"
    },
    {
      "inputs": [],
      "name": "offchainRoyaltyPercentageInBips",
      "outputs": [
        {
          "internalType": "uint256",
          "name": "",
          "type": "uint256"
        }
      ],
      "stateMutability": "view",
      "type": "function"
    },
    {
      "inputs": [
        {
          "internalType": "uint256",
          "name": "tokenId",
          "type": "uint256"
        }
      ],
      "name": "ownerOf",
      "outputs": [
        {
          "internalType": "address",
          "name": "",
          "type": "address"
        }
      ],
      "stateMutability": "view",
      "type": "function"
    },
    {
      "inputs": [],
      "name": "pause",
      "outputs": [],
      "stateMutability": "nonpayable",
      "type": "function"
    },
    {
      "inputs": [],
      "name": "paused",
      "outputs": [
        {
          "internalType": "bool",
          "name": "",
          "type": "bool"
        }
      ],
      "stateMutability": "view",
      "type": "function"
    },
    {
      "inputs": [
        {
          "internalType": "bytes32",
          "name": "role",
          "type": "bytes32"
        },
        {
          "internalType": "address",
          "name": "account",
          "type": "address"
        }
      ],
      "name": "renounceRole",
      "outputs": [],
      "stateMutability": "nonpayable",
      "type": "function"
    },
    {
      "inputs": [
        {
          "internalType": "bytes32",
          "name": "role",
          "type": "bytes32"
        },
        {
          "internalType": "address",
          "name": "account",
          "type": "address"
        }
      ],
      "name": "revokeRole",
      "outputs": [],
      "stateMutability": "nonpayable",
      "type": "function"
    },
    {
      "inputs": [
        {
          "internalType": "uint256",
          "name": "_tokenId",
          "type": "uint256"
        },
        {
          "internalType": "uint256",
          "name": "_salePrice",
          "type": "uint256"
        }
      ],
      "name": "royaltyInfo",
      "outputs": [
        {
          "internalType": "address",
          "name": "",
          "type": "address"
        },
        {
          "internalType": "uint256",
          "name": "",
          "type": "uint256"
        }
      ],
      "stateMutability": "view",
      "type": "function"
    },
    {
      "inputs": [
        {
          "internalType": "address",
          "name": "from",
          "type": "address"
        },
        {
          "internalType": "address",
          "name": "to",
          "type": "address"
        },
        {
          "internalType": "uint256",
          "name": "tokenId",
          "type": "uint256"
        }
      ],
      "name": "safeTransferFrom",
      "outputs": [],
      "stateMutability": "nonpayable",
      "type": "function"
    },
    {
      "inputs": [
        {
          "internalType": "address",
          "name": "from",
          "type": "address"
        },
        {
          "internalType": "address",
          "name": "to",
          "type": "address"
        },
        {
          "internalType": "uint256",
          "name": "tokenId",
          "type": "uint256"
        },
        {
          "internalType": "bytes",
          "name": "_data",
          "type": "bytes"
        }
      ],
      "name": "safeTransferFrom",
      "outputs": [],
      "stateMutability": "nonpayable",
      "type": "function"
    },
    {
      "inputs": [
        {
          "internalType": "address",
          "name": "operator",
          "type": "address"
        },
        {
          "internalType": "bool",
          "name": "approved",
          "type": "bool"
        }
      ],
      "name": "setApprovalForAll",
      "outputs": [],
      "stateMutability": "nonpayable",
      "type": "function"
    },
    {
      "inputs": [
        {
          "internalType": "string",
          "name": "_uri",
          "type": "string"
        }
      ],
      "name": "setContractURI",
      "outputs": [],
      "stateMutability": "nonpayable",
      "type": "function"
    },
    {
      "inputs": [
        {
          "internalType": "uint256",
          "name": "_tokenId",
          "type": "uint256"
        },
        {
          "internalType": "address payable",
          "name": "_royaltiesReceipientAddress",
          "type": "address"
        },
        {
          "internalType": "uint96",
          "name": "_percentageBasisPoints",
          "type": "uint96"
        }
      ],
      "name": "setRoyalties",
      "outputs": [],
      "stateMutability": "nonpayable",
      "type": "function"
    },
    {
      "inputs": [
        {
          "internalType": "string",
          "name": "_uri",
          "type": "string"
        }
      ],
      "name": "setURI",
      "outputs": [],
      "stateMutability": "nonpayable",
      "type": "function"
    },
    {
      "inputs": [],
      "name": "songId",
      "outputs": [
        {
          "internalType": "uint256",
          "name": "",
          "type": "uint256"
        }
      ],
      "stateMutability": "view",
      "type": "function"
    },
    {
      "inputs": [],
      "name": "songType",
      "outputs": [
        {
          "internalType": "uint8",
          "name": "",
          "type": "uint8"
        }
      ],
      "stateMutability": "view",
      "type": "function"
    },
    {
      "inputs": [],
      "name": "startedAt",
      "outputs": [
        {
          "internalType": "uint256",
          "name": "",
          "type": "uint256"
        }
      ],
      "stateMutability": "view",
      "type": "function"
    },
    {
      "inputs": [
        {
          "internalType": "bytes4",
          "name": "interfaceId",
          "type": "bytes4"
        }
      ],
      "name": "supportsInterface",
      "outputs": [
        {
          "internalType": "bool",
          "name": "",
          "type": "bool"
        }
      ],
      "stateMutability": "view",
      "type": "function"
    },
    {
      "inputs": [],
      "name": "symbol",
      "outputs": [
        {
          "internalType": "string",
          "name": "",
          "type": "string"
        }
      ],
      "stateMutability": "view",
      "type": "function"
    },
    {
      "inputs": [
        {
          "internalType": "uint256",
          "name": "tokenId",
          "type": "uint256"
        }
      ],
      "name": "tokenURI",
      "outputs": [
        {
          "internalType": "string",
          "name": "",
          "type": "string"
        }
      ],
      "stateMutability": "view",
      "type": "function"
    },
    {
      "inputs": [],
      "name": "totalSupply",
      "outputs": [
        {
          "internalType": "uint256",
          "name": "",
          "type": "uint256"
        }
      ],
      "stateMutability": "view",
      "type": "function"
    },
    {
      "inputs": [
        {
          "internalType": "address",
          "name": "from",
          "type": "address"
        },
        {
          "internalType": "address",
          "name": "to",
          "type": "address"
        },
        {
          "internalType": "uint256",
          "name": "tokenId",
          "type": "uint256"
        }
      ],
      "name": "transferFrom",
      "outputs": [],
      "stateMutability": "nonpayable",
      "type": "function"
    },
    {
      "inputs": [],
      "name": "unpause",
      "outputs": [],
      "stateMutability": "nonpayable",
      "type": "function"
    },
    {
      "inputs": [
        {
          "internalType": "address",
          "name": "receiver",
          "type": "address"
        },
        {
          "internalType": "uint96",
          "name": "feeNumerator",
          "type": "uint96"
        }
      ],
      "name": "updateRoyalty",
      "outputs": [],
      "stateMutability": "nonpayable",
      "type": "function"
    },
    {
      "inputs": [
        {
          "internalType": "uint256",
          "name": "time",
          "type": "uint256"
        }
      ],
      "name": "updateStartAt",
      "outputs": [],
      "stateMutability": "nonpayable",
      "type": "function"
    }
  ],
  "bytecode": "0x608060405234801561001057600080fd5b50614477806100206000396000f3fe6080604052600436106103765760003560e01c8063678e1d94116101d1578063b88d4fde11610102578063e7572230116100a0578063f21f537d1161006f578063f21f537d14610a61578063f50c7e4114610a78578063f52308d714610a80578063fe2233be14610aa057600080fd5b8063e7572230146109df578063e8a3d485146109ff578063e985e9c514610a14578063e9fda7d414610a3457600080fd5b8063cc942bad116100dc578063cc942bad14610967578063d547741f14610988578063daa83c6d146109a8578063e6c0e6d5146109c857600080fd5b8063b88d4fde146108fa578063c7c8b7fd1461091a578063c87b56dd1461094757600080fd5b8063942aa5ae1161016f578063a217fddf11610149578063a217fddf1461088d578063a22cb465146108a2578063a54d02ff146108c2578063ad5b882c146108d957600080fd5b8063942aa5ae1461081057806395d89b41146108305780639d45c3f71461084557600080fd5b80639129f7cf116101ab5780639129f7cf146107a257806391d14854146107b95780639363c812146107d9578063938e3d7b146107f057600080fd5b8063678e1d941461074d57806370a082311461076d5780638456cb591461078d57600080fd5b8063288b6a47116102ab57806340c10f191161024957806353e46e4d1161022357806353e46e4d146106de5780635c975abb146106f55780635f5f19051461070d5780636352211e1461072d57600080fd5b806340c10f191461068b57806342842e0e1461069e57806342966c68146106be57600080fd5b806336568abe1161028557806336568abe1461062157806337929eb4146106415780633c2726d4146106565780633f4ba83a1461067657600080fd5b8063288b6a47146105a25780632a55205a146105c25780632f2ff15d1461060157600080fd5b806310ea891a11610318578063222be930116102f2578063222be93014610519578063239c70ae1461053b57806323b872dd14610552578063248a9ca31461057257600080fd5b806310ea891a146104b5578063143094db146104d657806318160ddd146104f657600080fd5b8063081812fc11610354578063081812fc146103f457806308c695991461042c578063095ea7b3146104595780631007c8e91461047957600080fd5b806301ffc9a71461037b57806302fe5305146103b057806306fdde03146103d2575b600080fd5b34801561038757600080fd5b5061039b610396366004613e4f565b610ac0565b60405190151581526020015b60405180910390f35b3480156103bc57600080fd5b506103d06103cb366004613e87565b610ae0565b005b3480156103de57600080fd5b506103e7610b82565b6040516103a79190614137565b34801561040057600080fd5b5061041461040f366004613e13565b610c1d565b6040516001600160a01b0390911681526020016103a7565b34801561043857600080fd5b5061044c610447366004613e13565b610c6a565b6040516103a7919061404b565b34801561046557600080fd5b506103d0610474366004613cde565b610d42565b34801561048557600080fd5b5061039b610494366004613f0f565b61012d60209081526000928352604080842090915290825290205460ff1681565b3480156104c157600080fd5b5061013054610414906001600160a01b031681565b3480156104e257600080fd5b506103d06104f1366004613ed2565b610df0565b34801561050257600080fd5b5061050b610e8a565b6040519081526020016103a7565b34801561052557600080fd5b5061052e610eaa565b6040516103a79190614091565b34801561054757600080fd5b5061050b6101345481565b34801561055e57600080fd5b506103d061056d366004613b12565b610f3c565b34801561057e57600080fd5b5061050b61058d366004613e13565b60009081526097602052604090206001015490565b3480156105ae57600080fd5b5061039b6105bd366004613f0f565b61112b565b3480156105ce57600080fd5b506105e26105dd366004613f0f565b611275565b604080516001600160a01b0390931683526020830191909152016103a7565b34801561060d57600080fd5b506103d061061c366004613e2b565b611321565b34801561062d57600080fd5b506103d061063c366004613e2b565b611347565b34801561064d57600080fd5b506103e76113c1565b34801561066257600080fd5b5061050b610671366004613e13565b6113d1565b34801561068257600080fd5b506103d061150b565b6103d0610699366004613cde565b6115e1565b3480156106aa57600080fd5b506103d06106b9366004613b12565b611a8d565b3480156106ca57600080fd5b506103d06106d9366004613e13565b611aa8565b3480156106ea57600080fd5b5061050b6101395481565b34801561070157600080fd5b5060c95460ff1661039b565b34801561071957600080fd5b506103d0610728366004613bcf565b611ab6565b34801561073957600080fd5b50610414610748366004613e13565b611dce565b34801561075957600080fd5b506103d0610768366004613e13565b611dd9565b34801561077957600080fd5b5061050b610788366004613aa2565b611e69565b34801561079957600080fd5b506103d0611ed2565b3480156107ae57600080fd5b5061050b6101335481565b3480156107c557600080fd5b5061039b6107d4366004613e2b565b611fa6565b3480156107e557600080fd5b5061050b61013a5481565b3480156107fc57600080fd5b506103d061080b366004613e87565b611fd1565b34801561081c57600080fd5b5061039b61082b366004613e13565b61206f565b34801561083c57600080fd5b506103e76121ea565b34801561085157600080fd5b50610865610860366004613e13565b612202565b604080519586526020860194909452928401919091526060830152608082015260a0016103a7565b34801561089957600080fd5b5061050b600081565b3480156108ae57600080fd5b506103d06108bd366004613cb1565b612244565b3480156108ce57600080fd5b5061050b6101375481565b3480156108e557600080fd5b5061012f54610414906001600160a01b031681565b34801561090657600080fd5b506103d0610915366004613b52565b6122eb565b34801561092657600080fd5b50610138546109359060ff1681565b60405160ff90911681526020016103a7565b34801561095357600080fd5b506103e7610962366004613e13565b612335565b34801561097357600080fd5b5061012e54610414906001600160a01b031681565b34801561099457600080fd5b506103d06109a3366004613e2b565b6123b0565b3480156109b457600080fd5b506103d06109c3366004613d09565b6123d6565b3480156109d457600080fd5b5061050b61013c5481565b3480156109eb57600080fd5b5061050b6109fa366004613e13565b61246a565b348015610a0b57600080fd5b506103e76124f8565b348015610a2057600080fd5b5061039b610a2f366004613ada565b612587565b348015610a4057600080fd5b50610a54610a4f366004613aa2565b6125c4565b6040516103a791906140ff565b348015610a6d57600080fd5b5061050b61013b5481565b6103d06126c0565b348015610a8c57600080fd5b5061050b610a9b366004613cde565b61298b565b348015610aac57600080fd5b506103d0610abb366004613d3d565b6129bd565b6000610acb82612b3f565b80610ada5750610ada82612b8d565b92915050565b61012e5460405163082b9f9760e11b81523360048201526001600160a01b03909116906310573f2e9060240160206040518083038186803b158015610b2457600080fd5b505afa158015610b38573d6000803e3d6000fd5b505050506040513d601f19601f82011682018060405250810190610b5c9190613df7565b1515600114610b6a57600080fd5b8051610b7e906101319060208401906138f8565b5050565b6060610b8c612bc2565b6002018054610b9a9061431c565b80601f0160208091040260200160405190810160405280929190818152602001828054610bc69061431c565b8015610c135780601f10610be857610100808354040283529160200191610c13565b820191906000526020600020905b815481529060010190602001808311610bf657829003601f168201915b5050505050905090565b6000610c2882612be6565b610c45576040516333d1c03960e21b815260040160405180910390fd5b610c4d612bc2565b60009283526006016020525060409020546001600160a01b031690565b6101355460609060008167ffffffffffffffff811115610c9a57634e487b7160e01b600052604160045260246000fd5b604051908082528060200260200182016040528015610cc3578160200160208202803683370190505b50905060015b828111610d3a57600081815261012d6020908152604080832088845290915290205460ff1682610cfa6001846142c2565b81518110610d1857634e487b7160e01b600052603260045260246000fd5b9115156020928302919091019091015280610d3281614357565b915050610cc9565b509392505050565b6000610d4d82611dce565b9050336001600160a01b03821614610d8657610d698133612587565b610d86576040516367d9dca160e11b815260040160405180910390fd5b82610d8f612bc2565b6000848152600691909101602052604080822080546001600160a01b0319166001600160a01b0394851617905551849286811692908516917f8c5be1e5ebec7d5bd14f71427d1e84f3dd0314c0f7b2291e5b200ac8c7c3b9259190a4505050565b61012e5460405163082b9f9760e11b81523360048201526001600160a01b03909116906310573f2e9060240160206040518083038186803b158015610e3457600080fd5b505afa158015610e48573d6000803e3d6000fd5b505050506040513d601f19601f82011682018060405250810190610e6c9190613df7565b1515600114610e7a57600080fd5b610e85838383612c2f565b505050565b60006001610e96612bc2565b60010154610ea2612bc2565b540303919050565b6060610135805480602002602001604051908101604052809291908181526020016000905b82821015610f3357838290600052602060002090600502016040518060a00160405290816000820154815260200160018201548152602001600282015481526020016003820154815260200160048201548152505081526020019060010190610ecf565b50505050905090565b6000610f4782612cfa565b9050836001600160a01b0316816001600160a01b031614610f7a5760405162a1148160e81b815260040160405180910390fd5b600080610f8684612d89565b91509150610fab8187610f963390565b6001600160a01b039081169116811491141790565b610fd657610fb98633612587565b610fd657604051632ce44b5f60e11b815260040160405180910390fd5b6001600160a01b038516610ffd57604051633a954ecd60e21b815260040160405180910390fd5b801561100857600082555b611010612bc2565b6001600160a01b038716600090815260059190910160205260409020805460001901905561103c612bc2565b6001600160a01b03861660008181526005929092016020526040909120805460010190554260a01b17600160e11b17611073612bc2565b60008681526004919091016020526040902055600160e11b83166110e2576001840161109d612bc2565b600082815260049190910160205260409020546110e0576110bc612bc2565b5481146110e057836110cc612bc2565b600083815260049190910160205260409020555b505b83856001600160a01b0316876001600160a01b03167fddf252ad1be2c89b69c2b068fc378daa952ba7f163c4a11628f55a4df523b3ef60405160405180910390a4505050505050565b6000600260fb5414156111595760405162461bcd60e51b81526004016111509061420f565b60405180910390fd5b600260fb55610135548311156111a65760405162461bcd60e51b8152602060048201526012602482015271111c9bdc08191bd95cdb89dd08195e1a5cdd60721b6044820152606401611150565b6101356111b46001856142c2565b815481106111d257634e487b7160e01b600052603260045260246000fd5b9060005260206000209060050201600401546101356001856111f491906142c2565b8154811061121257634e487b7160e01b600052603260045260246000fd5b9060005260206000209060050201600301541061125e5760405162461bcd60e51b815260206004820152600a60248201526944726f7020656d70747960b01b6044820152606401611150565b6112688383612db1565b5060018060fb5592915050565b60008281526066602090815260408083208151808301909252546001600160a01b038116808352600160a01b9091046001600160601b03169282019290925282916112ea5750604080518082019091526065546001600160a01b0381168252600160a01b90046001600160601b031660208201525b602081015160009061271090611309906001600160601b0316876142a3565b611313919061428f565b915196919550909350505050565b60008281526097602052604090206001015461133d8133612f8d565b610e858383612ff1565b6001600160a01b03811633146113b75760405162461bcd60e51b815260206004820152602f60248201527f416363657373436f6e74726f6c3a2063616e206f6e6c792072656e6f756e636560448201526e103937b632b9903337b91039b2b63360891b6064820152608401611150565b610b7e8282613077565b60606101328054610b9a9061431c565b610135546000906114135760405162461bcd60e51b815260206004820152600c60248201526b1b9bc8191c9bdc1cc81e595d60a21b6044820152606401611150565b60006001805b61013554811161150257610135600182038154811061144857634e487b7160e01b600052603260045260246000fd5b906000526020600020906005020160040154610135600183038154811061147f57634e487b7160e01b600052603260045260246000fd5b9060005260206000209060050201600301541080156114b95750600081815261012d6020908152604080832088845290915290205460ff16155b156114fa5761013560018203815481106114e357634e487b7160e01b600052603260045260246000fd5b906000526020600020906005020160020154830192505b600101611419565b50909392505050565b61012e5460405163082b9f9760e11b81523360048201526001600160a01b03909116906310573f2e9060240160206040518083038186803b15801561154f57600080fd5b505afa158015611563573d6000803e3d6000fd5b505050506040513d601f19601f820116820180604052508101906115879190613df7565b1515600114806115aa57506115aa60008051602061440283398151915233611fa6565b806115bb57506115bb600033611fa6565b6115d75760405162461bcd60e51b81526004016111509061419e565b6115df6130de565b565b60c95460ff16156116275760405162461bcd60e51b815260206004820152601060248201526f14185d5cd8589b194e881c185d5cd95960821b6044820152606401611150565b600260fb54141561164a5760405162461bcd60e51b81526004016111509061420f565b600260fb5561012e54610138546040516303f195e360e41b815260ff90911660048201526001600160a01b0390911690633f195e309060240160206040518083038186803b15801561169b57600080fd5b505afa1580156116af573d6000803e3d6000fd5b505050506040513d601f19601f820116820180604052508101906116d39190613eba565b81106117365760405162461bcd60e51b815260206004820152602c60248201527f596f752063616e206d696e7420536f6e6773206d6f7265207468616e204c696d60448201526b697420706572206d696e742160a01b6064820152608401611150565b6101345481611743610e8a565b61174d9190614277565b111561179b5760405162461bcd60e51b815260206004820152601b60248201527f43616e2774206d696e74206d6f7265207468616e204c696d69742100000000006044820152606401611150565b600081116117eb5760405162461bcd60e51b815260206004820152601a60248201527f596f75206d757374206d696e74206d6f7265207468616e2030210000000000006044820152606401611150565b60006117f68261246a565b90508034101561183e5760405162461bcd60e51b8152602060048201526013602482015272496e73756666696369656e742066756e64732160681b6044820152606401611150565b8034111561187e57336108fc61185483346142c2565b6040518115909202916000818181858888f1935050505015801561187c573d6000803e3d6000fd5b505b61012e5460408051631ff5bc5760e21b815290516000926001600160a01b031691637fd6f15c916004808301926020929190829003018186803b1580156118c457600080fd5b505afa1580156118d8573d6000803e3d6000fd5b505050506040513d601f19601f820116820180604052508101906118fc9190613f30565b60ff1690506000606461190f83856142a3565b611919919061428f565b905061012e60009054906101000a90046001600160a01b03166001600160a01b0316630214a0216040518163ffffffff1660e01b815260040160206040518083038186803b15801561196a57600080fd5b505afa15801561197e573d6000803e3d6000fd5b505050506040513d601f19601f820116820180604052508101906119a29190613abe565b6001600160a01b03166108fc829081150290604051600060405180830381858888f193505050501580156119da573d6000803e3d6000fd5b5061012f546001600160a01b03166108fc6119f583866142c2565b6040518115909202916000818181858888f19350505050158015611a1d573d6000803e3d6000fd5b50611a288585613171565b7f604068490629504047613c80d2350f62dca38c81f8a5fbcc10f2be65f246a9438585611a53610e8a565b604080516001600160a01b03909416845260208401929092529082015230606082015260800160405180910390a15050600160fb55505050565b610e85838383604051806020016040528060008152506122eb565b611ab381600161327e565b50565b600054610100900460ff16611ad15760005460ff1615611ad5565b303b155b611b385760405162461bcd60e51b815260206004820152602e60248201527f496e697469616c697a61626c653a20636f6e747261637420697320616c72656160448201526d191e481a5b9a5d1a585b1a5e995960921b6064820152608401611150565b600054610100900460ff16158015611b5a576000805461ffff19166101011790555b60008051602061442283398151915254610100900460ff16611b8f576000805160206144228339815191525460ff1615611b93565b303b155b611c055760405162461bcd60e51b815260206004820152603760248201527f455243373231415f5f496e697469616c697a61626c653a20636f6e747261637460448201527f20697320616c726561647920696e697469616c697a65640000000000000000006064820152608401611150565b60008051602061442283398151915254610100900460ff16158015611c4157600080516020614422833981519152805461ffff19166101011790555b611c8560405180604001604052806007815260200166416c697665453360c81b8152506040518060400160405280600381526020016241453360e81b8152506133f8565b611c90600086612ff1565b611ca860008051602061440283398151915286612ff1565b611cd27f65d7a28e3265b37a6474929f336521b332c1681b933f6cb9f3376673440d862a86612ff1565b6101308054336001600160a01b03199182161790915561012e805482166001600160a01b038f81169190911790915561012f8054909216908b161790556001600160601b03881661013355611d278b8b613436565b6101378490558651611d41906101319060208a01906138f8565b508551611d56906101329060208901906138f8565b50610138805460ff19166003179055825161013455602083015161013955604083015161013a55606083015161013b55608083015161013c558015611dae57600080516020614422833981519152805461ff00191690555b508015611dc1576000805461ff00191690555b5050505050505050505050565b6000610ada82612cfa565b61012e5460405163082b9f9760e11b81523360048201526001600160a01b03909116906310573f2e9060240160206040518083038186803b158015611e1d57600080fd5b505afa158015611e31573d6000803e3d6000fd5b505050506040513d601f19601f82011682018060405250810190611e559190613df7565b1515600114611e6357600080fd5b61013b55565b60006001600160a01b038216611e92576040516323d3ad8160e21b815260040160405180910390fd5b67ffffffffffffffff611ea3612bc2565b6005016000846001600160a01b03166001600160a01b0316815260200190815260200160002054169050919050565b61012e5460405163082b9f9760e11b81523360048201526001600160a01b03909116906310573f2e9060240160206040518083038186803b158015611f1657600080fd5b505afa158015611f2a573d6000803e3d6000fd5b505050506040513d601f19601f82011682018060405250810190611f4e9190613df7565b151560011480611f715750611f7160008051602061440283398151915233611fa6565b80611f825750611f82600033611fa6565b611f9e5760405162461bcd60e51b81526004016111509061419e565b6115df6134f0565b60009182526097602090815260408084206001600160a01b0393909316845291905290205460ff1690565b61012e5460405163082b9f9760e11b81523360048201526001600160a01b03909116906310573f2e9060240160206040518083038186803b15801561201557600080fd5b505afa158015612029573d6000803e3d6000fd5b505050506040513d601f19601f8201168201806040525081019061204d9190613df7565b151560011461205b57600080fd5b8051610b7e906101329060208401906138f8565b6000600260fb5414156120945760405162461bcd60e51b81526004016111509061420f565b600260fb55610135546120d85760405162461bcd60e51b815260206004820152600c60248201526b139bc8191c9bdc1cc81e595d60a21b6044820152606401611150565b60015b61013554811161219257600081815261012d6020908152604080832086845290915290205460ff1615801561217b5750610135600182038154811061213057634e487b7160e01b600052603260045260246000fd5b906000526020600020906005020160040154610135600183038154811061216757634e487b7160e01b600052603260045260246000fd5b906000526020600020906005020160030154105b1561218a5761218a8184612db1565b6001016120db565b507fc8d822c89968f73aa167a9d5674842ed0061ebb408251f640f72e72d6ecc3fda6121bd83611dce565b604080516001600160a01b039092168252602082018590520160405180910390a15060018060fb55919050565b60606121f4612bc2565b6003018054610b9a9061431c565b610135818154811061221357600080fd5b6000918252602090912060059091020180546001820154600283015460038401546004909401549294509092909185565b6001600160a01b03821633141561226e5760405163b06307db60e01b815260040160405180910390fd5b80612277612bc2565b336000818152600792909201602090815260408084206001600160a01b03881680865290835293819020805460ff19169515159590951790945592518415158152919290917f17307eab39ab6107e8899845ad3d59bd9653f200f220920489ca2b5937696c31910160405180910390a35050565b6122f6848484610f3c565b6001600160a01b0383163b1561232f576123128484848461356b565b61232f576040516368d2bf6b60e11b815260040160405180910390fd5b50505050565b606061234082612be6565b61235d57604051630a14c4b560e41b815260040160405180910390fd5b6000612367613662565b905080516000141561238857604051806020016040528060008152506123a9565b806040516020016123999190613f7d565b6040516020818303038152906040525b9392505050565b6000828152609760205260409020600101546123cc8133612f8d565b610e858383613077565b61012e5460405163082b9f9760e11b81523360048201526001600160a01b03909116906310573f2e9060240160206040518083038186803b15801561241a57600080fd5b505afa15801561242e573d6000803e3d6000fd5b505050506040513d601f19601f820116820180604052508101906124529190613df7565b151560011461246057600080fd5b610b7e8282613436565b600061013b54421161247b57600080fd5b600061013b544261248c91906142c2565b905060008161013c5461249f91906142a3565b9050610139548111806124c2575080610139546124bc91906142c2565b61013a54115b156124de578361013a546124d691906142a3565b949350505050565b8381610139546124ee91906142c2565b6124d691906142a3565b61013280546125069061431c565b80601f01602080910402602001604051908101604052809291908181526020018280546125329061431c565b801561257f5780601f106125545761010080835404028352916020019161257f565b820191906000526020600020905b81548152906001019060200180831161256257829003601f168201915b505050505081565b6000612591612bc2565b6001600160a01b039384166000908152600791909101602090815260408083209490951682529290925250205460ff1690565b6001600160a01b038116600090815261013660205260408120546060918167ffffffffffffffff81111561260857634e487b7160e01b600052604160045260246000fd5b604051908082528060200260200182016040528015612631578160200160208202803683370190505b50905060005b82811015610d3a576001600160a01b03851660009081526101366020526040902080548290811061267857634e487b7160e01b600052603260045260246000fd5b90600052602060002001548282815181106126a357634e487b7160e01b600052603260045260246000fd5b6020908102919091010152806126b881614357565b915050612637565b61012e5460405163082b9f9760e11b81523360048201526001600160a01b03909116906310573f2e9060240160206040518083038186803b15801561270457600080fd5b505afa158015612718573d6000803e3d6000fd5b505050506040513d601f19601f8201168201806040525081019061273c9190613df7565b15156001148061275f575061275f60008051602061440283398151915233611fa6565b806127705750612770600033611fa6565b61278c5760405162461bcd60e51b81526004016111509061419e565b670de0b6b3a764000034116127f85760405162461bcd60e51b815260206004820152602c60248201527f4d696e2064726f7020616d6f756e74206d75737420626520626967676572207460448201526b68616e20312065746865722160a01b6064820152608401611150565b600061280b34612806610e8a565b613672565b61013554909150600090612820906001614277565b905060006040518060a0016040528083815260200134815260200184815260200160008152602001612850610e8a565b9052610135805460018101825560009190915281517fdf37d27e88e3bd0b85262482997e409a463f5be0ebb19232abf994dd8474090d60059092029182015560208201517fdf37d27e88e3bd0b85262482997e409a463f5be0ebb19232abf994dd8474090e82015560408201517fdf37d27e88e3bd0b85262482997e409a463f5be0ebb19232abf994dd8474090f82015560608201517fdf37d27e88e3bd0b85262482997e409a463f5be0ebb19232abf994dd8474091082015560808201517fdf37d27e88e3bd0b85262482997e409a463f5be0ebb19232abf994dd8474091190910155905061293e610e8a565b6129489034614372565b15610e8557336108fc612959610e8a565b6129639034614372565b6040518115909202916000818181858888f1935050505015801561232f573d6000803e3d6000fd5b61013660205281600052604060002081815481106129a857600080fd5b90600052602060002001600091509150505481565b61012e5460405163082b9f9760e11b81523360048201526001600160a01b03909116906310573f2e9060240160206040518083038186803b158015612a0157600080fd5b505afa158015612a15573d6000803e3d6000fd5b505050506040513d601f19601f82011682018060405250810190612a399190613df7565b151560011480612a5c5750612a5c60008051602061440283398151915233611fa6565b80612a6d5750612a6d600033611fa6565b612a895760405162461bcd60e51b81526004016111509061419e565b61013454818351612a9a91906142a3565b612aa2610e8a565b612aac9190614277565b1115612afa5760405162461bcd60e51b815260206004820152601b60248201527f63616e2774206d696e74206d6f7265207468616e20737570706c7900000000006044820152606401611150565b60005b8251811015610e8557612b37838281518110612b2957634e487b7160e01b600052603260045260246000fd5b602002602001015183613171565b600101612afd565b60006301ffc9a760e01b6001600160e01b031983161480612b7057506380ac58cd60e01b6001600160e01b03198316145b80610ada5750506001600160e01b031916635b5e139f60e01b1490565b60006001600160e01b0319821663152a902d60e11b1480610ada57506301ffc9a760e01b6001600160e01b0319831614610ada565b7f2569078dfb4b0305704d3008e7403993ae9601b85f7ae5e742de3de8f8011c4090565b600081600111158015612c005750612bfc612bc2565b5482105b8015610ada5750600160e01b612c14612bc2565b60008481526004919091016020526040902054161592915050565b6127106001600160601b0382161115612c5a5760405162461bcd60e51b8152600401611150906141c5565b6001600160a01b038216612cb05760405162461bcd60e51b815260206004820152601b60248201527f455243323938313a20496e76616c696420706172616d657465727300000000006044820152606401611150565b6040805180820182526001600160a01b0393841681526001600160601b0392831660208083019182526000968752606690529190942093519051909116600160a01b029116179055565b60008180600111612d7057612d0d612bc2565b54811015612d70576000612d1f612bc2565b600083815260049190910160205260409020549050600160e01b8116612d6e575b806123a957612d4d612bc2565b60001990920160008181526004939093016020526040909220549050612d40565b505b604051636f96cda160e11b815260040160405180910390fd5b6000806000612d96612bc2565b60009485526006016020525050604090912080549092909150565b600082815261012d6020908152604080832084845290915290205460ff1615612e0e5760405162461bcd60e51b815260206004820152600f60248201526e105b1c9958591e4818db185a5b5959608a1b6044820152606401611150565b612e1781611dce565b6001600160a01b03166108fc610135612e316001866142c2565b81548110612e4f57634e487b7160e01b600052603260045260246000fd5b9060005260206000209060050201600201549081150290604051600060405180830381858888f19350505050158015612e8c573d6000803e3d6000fd5b50600082815261012d602090815260408083208484529091529020805460ff191660011790557fc4eb2a79938c9ef60d6162cf270d0ae3369b01dc2adaa2d48a8416e760c8e0dd612edc82611dce565b8383610135612eec6001846142c2565b81548110612f0a57634e487b7160e01b600052603260045260246000fd5b600091825260209182902060026005909202010154604080516001600160a01b03909616865291850193909352830152606082015260800160405180910390a16101356001830381548110612f6f57634e487b7160e01b600052603260045260246000fd5b60009182526020909120600360059092020101805460010190555050565b612f978282611fa6565b610b7e57612faf816001600160a01b03166014613693565b612fba836020613693565b604051602001612fcb929190613f99565b60408051601f198184030181529082905262461bcd60e51b825261115091600401614137565b612ffb8282611fa6565b610b7e5760008281526097602090815260408083206001600160a01b03851684529091529020805460ff191660011790556130333390565b6001600160a01b0316816001600160a01b0316837f2f8788117e7eff1d82e926ec794901d17c78024a50270940304540a733656f0d60405160405180910390a45050565b6130818282611fa6565b15610b7e5760008281526097602090815260408083206001600160a01b0385168085529252808320805460ff1916905551339285917ff6391f5c32d9c69d2a47ea670b442974b53935d1edc7fd64eb21e047a839171b9190a45050565b60c95460ff166131275760405162461bcd60e51b815260206004820152601460248201527314185d5cd8589b194e881b9bdd081c185d5cd95960621b6044820152606401611150565b60c9805460ff191690557f5db9ee0a495bf2e6ff9c91a7834c1ba4fdd244a5e8aa4e537bd38aeae4b073aa335b6040516001600160a01b03909116815260200160405180910390a1565b600061317b612bc2565b5490506001600160a01b0383166131a457604051622e076360e81b815260040160405180910390fd5b816131c25760405163b562e8dd60e01b815260040160405180910390fd5b6801000000000000000182026131d6612bc2565b6001600160a01b038516600081815260059290920160205260409091208054929092019091554260a01b6001841460e11b1717613211612bc2565b60008381526004919091016020526040902055808281015b6040516001830192906001600160a01b038716906000907fddf252ad1be2c89b69c2b068fc378daa952ba7f163c4a11628f55a4df523b3ef908290a48082106132295780613275612bc2565b5550610e859050565b600061328983612cfa565b90508060008061329886612d89565b9150915084156132d8576132ad818433610f96565b6132d8576132bb8333612587565b6132d857604051632ce44b5f60e11b815260040160405180910390fd5b80156132e357600082555b6fffffffffffffffffffffffffffffffff6132fc612bc2565b6001600160a01b038516600081815260059290920160205260409091208054929092019091554260a01b17600360e01b17613335612bc2565b60008881526004919091016020526040902055600160e11b84166133a4576001860161335f612bc2565b600082815260049190910160205260409020546133a25761337e612bc2565b5481146133a2578461338e612bc2565b600083815260049190910160205260409020555b505b60405186906000906001600160a01b038616907fddf252ad1be2c89b69c2b068fc378daa952ba7f163c4a11628f55a4df523b3ef908390a46133e4612bc2565b600190810180549091019055505050505050565b60008051602061442283398151915254610100900460ff1661342c5760405162461bcd60e51b81526004016111509061414a565b610b7e8282613875565b6127106001600160601b03821611156134615760405162461bcd60e51b8152600401611150906141c5565b6001600160a01b0382166134b75760405162461bcd60e51b815260206004820152601960248201527f455243323938313a20696e76616c6964207265636569766572000000000000006044820152606401611150565b604080518082019091526001600160a01b039092168083526001600160601b039091166020909201829052600160a01b90910217606555565b60c95460ff16156135365760405162461bcd60e51b815260206004820152601060248201526f14185d5cd8589b194e881c185d5cd95960821b6044820152606401611150565b60c9805460ff191660011790557f62e78cea01bee320cd4e420270b5ea74000d11b0c9f74754ebdbfc544b05a2586131543390565b604051630a85bd0160e11b81526000906001600160a01b0385169063150b7a02906135a090339089908890889060040161400e565b602060405180830381600087803b1580156135ba57600080fd5b505af19250505080156135ea575060408051601f3d908101601f191682019092526135e791810190613e6b565b60015b613645573d808015613618576040519150601f19603f3d011682016040523d82523d6000602084013e61361d565b606091505b50805161363d576040516368d2bf6b60e11b815260040160405180910390fd5b805181602001fd5b6001600160e01b031916630a85bd0160e11b149050949350505050565b60606101318054610b9a9061431c565b60008161367f8185614372565b61368990856142c2565b6123a9919061428f565b606060006136a28360026142a3565b6136ad906002614277565b67ffffffffffffffff8111156136d357634e487b7160e01b600052604160045260246000fd5b6040519080825280601f01601f1916602001820160405280156136fd576020820181803683370190505b509050600360fc1b8160008151811061372657634e487b7160e01b600052603260045260246000fd5b60200101906001600160f81b031916908160001a905350600f60fb1b8160018151811061376357634e487b7160e01b600052603260045260246000fd5b60200101906001600160f81b031916908160001a90535060006137878460026142a3565b613792906001614277565b90505b6001811115613826576f181899199a1a9b1b9c1cb0b131b232b360811b85600f16601081106137d457634e487b7160e01b600052603260045260246000fd5b1a60f81b8282815181106137f857634e487b7160e01b600052603260045260246000fd5b60200101906001600160f81b031916908160001a90535060049490941c9361381f81614305565b9050613795565b5083156123a95760405162461bcd60e51b815260206004820181905260248201527f537472696e67733a20686578206c656e67746820696e73756666696369656e746044820152606401611150565b60008051602061442283398151915254610100900460ff166138a95760405162461bcd60e51b81526004016111509061414a565b816138b2612bc2565b60020190805190602001906138c89291906138f8565b50806138d2612bc2565b60030190805190602001906138e89291906138f8565b5060016138f3612bc2565b555050565b8280546139049061431c565b90600052602060002090601f016020900481019282613926576000855561396c565b82601f1061393f57805160ff191683800117855561396c565b8280016001018555821561396c579182015b8281111561396c578251825591602001919060010190613951565b5061397892915061397c565b5090565b5b80821115613978576000815560010161397d565b600067ffffffffffffffff8311156139ab576139ab6143b2565b6139be601f8401601f1916602001614246565b90508281528383830111156139d257600080fd5b828260208301376000602084830101529392505050565b80356139f4816143c8565b919050565b600082601f830112613a09578081fd5b60405160a0810181811067ffffffffffffffff82111715613a2c57613a2c6143b2565b604052808360a08101861015613a40578384fd5b835b6005811015613a61578135835260209283019290910190600101613a42565b509195945050505050565b600082601f830112613a7c578081fd5b6123a983833560208501613991565b80356001600160601b03811681146139f457600080fd5b600060208284031215613ab3578081fd5b81356123a9816143c8565b600060208284031215613acf578081fd5b81516123a9816143c8565b60008060408385031215613aec578081fd5b8235613af7816143c8565b91506020830135613b07816143c8565b809150509250929050565b600080600060608486031215613b26578081fd5b8335613b31816143c8565b92506020840135613b41816143c8565b929592945050506040919091013590565b60008060008060808587031215613b67578081fd5b8435613b72816143c8565b93506020850135613b82816143c8565b925060408501359150606085013567ffffffffffffffff811115613ba4578182fd5b8501601f81018713613bb4578182fd5b613bc387823560208401613991565b91505092959194509250565b6000806000806000806000806000806101c08b8d031215613bee578788fd5b613bf78b6139e9565b9950613c0560208c016139e9565b9850613c1360408c01613a8b565b9750613c2160608c016139e9565b9650613c2f60808c01613a8b565b955060a08b013567ffffffffffffffff80821115613c4b578687fd5b613c578e838f01613a6c565b965060c08d0135915080821115613c6c578586fd5b50613c798d828e01613a6c565b945050613c8860e08c016139e9565b92506101008b01359150613ca08c6101208d016139f9565b90509295989b9194979a5092959850565b60008060408385031215613cc3578182fd5b8235613cce816143c8565b91506020830135613b07816143dd565b60008060408385031215613cf0578182fd5b8235613cfb816143c8565b946020939093013593505050565b60008060408385031215613d1b578182fd5b8235613d26816143c8565b9150613d3460208401613a8b565b90509250929050565b60008060408385031215613d4f578182fd5b823567ffffffffffffffff80821115613d66578384fd5b818501915085601f830112613d79578384fd5b8135602082821115613d8d57613d8d6143b2565b8160051b9250613d9e818401614246565b8281528181019085830185870184018b1015613db8578889fd5b8896505b84871015613de65780359550613dd1866143c8565b85835260019690960195918301918301613dbc565b509997909101359750505050505050565b600060208284031215613e08578081fd5b81516123a9816143dd565b600060208284031215613e24578081fd5b5035919050565b60008060408385031215613e3d578182fd5b823591506020830135613b07816143c8565b600060208284031215613e60578081fd5b81356123a9816143eb565b600060208284031215613e7c578081fd5b81516123a9816143eb565b600060208284031215613e98578081fd5b813567ffffffffffffffff811115613eae578182fd5b6124d684828501613a6c565b600060208284031215613ecb578081fd5b5051919050565b600080600060608486031215613ee6578081fd5b833592506020840135613ef8816143c8565b9150613f0660408501613a8b565b90509250925092565b60008060408385031215613f21578182fd5b50508035926020909101359150565b600060208284031215613f41578081fd5b815160ff811681146123a9578182fd5b60008151808452613f698160208601602086016142d9565b601f01601f19169290920160200192915050565b60008251613f8f8184602087016142d9565b9190910192915050565b7f416363657373436f6e74726f6c3a206163636f756e7420000000000000000000815260008351613fd18160178501602088016142d9565b7001034b99036b4b9b9b4b733903937b6329607d1b60179184019182015283516140028160288401602088016142d9565b01602801949350505050565b6001600160a01b038581168252841660208201526040810183905260806060820181905260009061404190830184613f51565b9695505050505050565b6020808252825182820181905260009190848201906040850190845b81811015614085578351151583529284019291840191600101614067565b50909695505050505050565b602080825282518282018190526000919060409081850190868401855b828110156140f25781518051855286810151878601528581015186860152606080820151908601526080908101519085015260a090930192908501906001016140ae565b5091979650505050505050565b6020808252825182820181905260009190848201906040850190845b818110156140855783518352928401929184019160010161411b565b6020815260006123a96020830184613f51565b60208082526034908201527f455243373231415f5f496e697469616c697a61626c653a20636f6e7472616374604082015273206973206e6f7420696e697469616c697a696e6760601b606082015260800190565b6020808252600d908201526c37b7363c9033b7bb32b93737b960991b604082015260600190565b6020808252602a908201527f455243323938313a20726f79616c7479206665652077696c6c206578636565646040820152692073616c65507269636560b01b606082015260800190565b6020808252601f908201527f5265656e7472616e637947756172643a207265656e7472616e742063616c6c00604082015260600190565b604051601f8201601f1916810167ffffffffffffffff8111828210171561426f5761426f6143b2565b604052919050565b6000821982111561428a5761428a614386565b500190565b60008261429e5761429e61439c565b500490565b60008160001904831182151516156142bd576142bd614386565b500290565b6000828210156142d4576142d4614386565b500390565b60005b838110156142f45781810151838201526020016142dc565b8381111561232f5750506000910152565b60008161431457614314614386565b506000190190565b600181811c9082168061433057607f821691505b6020821081141561435157634e487b7160e01b600052602260045260246000fd5b50919050565b600060001982141561436b5761436b614386565b5060010190565b6000826143815761438161439c565b500690565b634e487b7160e01b600052601160045260246000fd5b634e487b7160e01b600052601260045260246000fd5b634e487b7160e01b600052604160045260246000fd5b6001600160a01b0381168114611ab357600080fd5b8015158114611ab357600080fd5b6001600160e01b031981168114611ab357600080fdfe71840dc4906352362b0cdaf79870196c8e42acafade72d5d5a6d59291253ceb1ee151c8401928dc223602bb187aff91b9a56c7cae5476ef1b3287b085a16c85fa264697066735822122088501c87b25fe30dfd7c8a06908503645af7a80ca2acf77c1d5e4120cbfd87bf64736f6c63430008040033",
  "linkReferences": {},
  "deployedLinkReferences": {}
}