{
  "_format": "hh-sol-artifact-1",
  "contractName": "AliveBand",
  "sourceName": "contracts/NewContracts/BandContracts/AliveBand.sol",
  "abi": [
    {
      "anonymous": false,
      "inputs": [
        {
          "indexed": false,
          "internalType": "address",
          "name": "oldAdmin",
          "type": "address"
        },
        {
          "indexed": false,
          "internalType": "address",
          "name": "newAdmin",
          "type": "address"
        }
      ],
      "name": "AdminChanged",
      "type": "event"
    },
    {
      "anonymous": false,
      "inputs": [
        {
          "indexed": true,
          "internalType": "bytes32",
          "name": "role",
          "type": "bytes32"
        },
        {
          "indexed": true,
          "internalType": "bytes32",
          "name": "previousAdminRole",
          "type": "bytes32"
        },
        {
          "indexed": true,
          "internalType": "bytes32",
          "name": "newAdminRole",
          "type": "bytes32"
        }
      ],
      "name": "RoleAdminChanged",
      "type": "event"
    },
    {
      "anonymous": false,
      "inputs": [
        {
          "indexed": true,
          "internalType": "bytes32",
          "name": "role",
          "type": "bytes32"
        },
        {
          "indexed": true,
          "internalType": "address",
          "name": "account",
          "type": "address"
        },
        {
          "indexed": true,
          "internalType": "address",
          "name": "sender",
          "type": "address"
        }
      ],
      "name": "RoleGranted",
      "type": "event"
    },
    {
      "anonymous": false,
      "inputs": [
        {
          "indexed": true,
          "internalType": "bytes32",
          "name": "role",
          "type": "bytes32"
        },
        {
          "indexed": true,
          "internalType": "address",
          "name": "account",
          "type": "address"
        },
        {
          "indexed": true,
          "internalType": "address",
          "name": "sender",
          "type": "address"
        }
      ],
      "name": "RoleRevoked",
      "type": "event"
    },
    {
      "anonymous": false,
      "inputs": [
        {
          "indexed": false,
          "internalType": "address",
          "name": "songAddress",
          "type": "address"
        },
        {
          "indexed": false,
          "internalType": "uint256",
          "name": "songId",
          "type": "uint256"
        },
        {
          "indexed": false,
          "internalType": "uint256",
          "name": "songType",
          "type": "uint256"
        }
      ],
      "name": "SongCreated",
      "type": "event"
    },
    {
      "anonymous": false,
      "inputs": [
        {
          "indexed": false,
          "internalType": "address",
          "name": "splitWallet",
          "type": "address"
        },
        {
          "indexed": false,
          "internalType": "uint256",
          "name": "id",
          "type": "uint256"
        }
      ],
      "name": "SplitWalletCreated",
      "type": "event"
    },
    {
      "inputs": [],
      "name": "DEFAULT_ADMIN_ROLE",
      "outputs": [
        {
          "internalType": "bytes32",
          "name": "",
          "type": "bytes32"
        }
      ],
      "stateMutability": "view",
      "type": "function"
    },
    {
      "inputs": [
        {
          "internalType": "address",
          "name": "_addr",
          "type": "address"
        }
      ],
      "name": "addMember",
      "outputs": [
        {
          "internalType": "bool",
          "name": "",
          "type": "bool"
        }
      ],
      "stateMutability": "nonpayable",
      "type": "function"
    },
    {
      "inputs": [
        {
          "internalType": "address[]",
          "name": "_addrs",
          "type": "address[]"
        }
      ],
      "name": "addMemberBulk",
      "outputs": [
        {
          "internalType": "bool",
          "name": "",
          "type": "bool"
        }
      ],
      "stateMutability": "nonpayable",
      "type": "function"
    },
    {
      "inputs": [],
      "name": "aliveRegistry",
      "outputs": [
        {
          "internalType": "address",
          "name": "",
          "type": "address"
        }
      ],
      "stateMutability": "view",
      "type": "function"
    },
    {
      "inputs": [
        {
          "internalType": "uint256",
          "name": "",
          "type": "uint256"
        }
      ],
      "name": "allSongs",
      "outputs": [
        {
          "internalType": "uint256",
          "name": "songId",
          "type": "uint256"
        },
        {
          "internalType": "uint256",
          "name": "songType",
          "type": "uint256"
        },
        {
          "internalType": "address",
          "name": "songContract",
          "type": "address"
        },
        {
          "internalType": "address",
          "name": "splitSecondaryReceiverAddress",
          "type": "address"
        },
        {
          "internalType": "address",
          "name": "splitMintReceiverAddress",
          "type": "address"
        }
      ],
      "stateMutability": "view",
      "type": "function"
    },
    {
      "inputs": [],
      "name": "bandAdmin",
      "outputs": [
        {
          "internalType": "address",
          "name": "",
          "type": "address"
        }
      ],
      "stateMutability": "view",
      "type": "function"
    },
    {
      "inputs": [],
      "name": "bandId",
      "outputs": [
        {
          "internalType": "uint256",
          "name": "",
          "type": "uint256"
        }
      ],
      "stateMutability": "view",
      "type": "function"
    },
    {
      "inputs": [],
      "name": "bandName",
      "outputs": [
        {
          "internalType": "string",
          "name": "",
          "type": "string"
        }
      ],
      "stateMutability": "view",
      "type": "function"
    },
    {
      "inputs": [
        {
          "internalType": "address",
          "name": "_royaltyReceiverSecondary",
          "type": "address"
        },
        {
          "internalType": "uint96",
          "name": "_royaltyFeesInBips",
          "type": "uint96"
        },
        {
          "internalType": "address",
          "name": "_royaltyReceiverSplit",
          "type": "address"
        },
        {
          "internalType": "uint96",
          "name": "_offchainRoyaltyPercentageInBips",
          "type": "uint96"
        },
        {
          "internalType": "string",
          "name": "_songURI",
          "type": "string"
        },
        {
          "internalType": "string",
          "name": "_contractURI",
          "type": "string"
        },
        {
          "internalType": "address",
          "name": "_artist",
          "type": "address"
        },
        {
          "internalType": "uint256[4]",
          "name": "_songInfos",
          "type": "uint256[4]"
        }
      ],
      "name": "createBondedSong",
      "outputs": [
        {
          "internalType": "address",
          "name": "",
          "type": "address"
        }
      ],
      "stateMutability": "nonpayable",
      "type": "function"
    },
    {
      "inputs": [
        {
          "internalType": "address",
          "name": "_royaltyReceiverSecondary",
          "type": "address"
        },
        {
          "internalType": "uint96",
          "name": "_royaltyFeesInBips",
          "type": "uint96"
        },
        {
          "internalType": "address",
          "name": "_royaltyReceiverSplit",
          "type": "address"
        },
        {
          "internalType": "uint96",
          "name": "_offchainRoyaltyPercentageInBips",
          "type": "uint96"
        },
        {
          "internalType": "string",
          "name": "_songURI",
          "type": "string"
        },
        {
          "internalType": "string",
          "name": "_contractURI",
          "type": "string"
        },
        {
          "internalType": "address",
          "name": "_artist",
          "type": "address"
        },
        {
          "internalType": "uint256[5]",
          "name": "_songInfos",
          "type": "uint256[5]"
        }
      ],
      "name": "createDutchSong",
      "outputs": [
        {
          "internalType": "address",
          "name": "",
          "type": "address"
        }
      ],
      "stateMutability": "nonpayable",
      "type": "function"
    },
    {
      "inputs": [
        {
          "internalType": "address",
          "name": "_royaltyReceiverSecondary",
          "type": "address"
        },
        {
          "internalType": "uint96",
          "name": "_royaltyFeesInBips",
          "type": "uint96"
        },
        {
          "internalType": "address",
          "name": "_royaltyReceiverSplit",
          "type": "address"
        },
        {
          "internalType": "uint96",
          "name": "_offchainRoyaltyPercentageInBips",
          "type": "uint96"
        },
        {
          "internalType": "string",
          "name": "_songURI",
          "type": "string"
        },
        {
          "internalType": "string",
          "name": "_contractURI",
          "type": "string"
        },
        {
          "internalType": "address",
          "name": "_artist",
          "type": "address"
        },
        {
          "internalType": "uint256[3]",
          "name": "_songInfos",
          "type": "uint256[3]"
        }
      ],
      "name": "createFixedSong",
      "outputs": [
        {
          "internalType": "address",
          "name": "",
          "type": "address"
        }
      ],
      "stateMutability": "nonpayable",
      "type": "function"
    },
    {
      "inputs": [
        {
          "internalType": "address[]",
          "name": "accounts",
          "type": "address[]"
        },
        {
          "internalType": "uint32[]",
          "name": "percentAllocations",
          "type": "uint32[]"
        }
      ],
      "name": "createSplitWallet",
      "outputs": [
        {
          "internalType": "address",
          "name": "",
          "type": "address"
        }
      ],
      "stateMutability": "nonpayable",
      "type": "function"
    },
    {
      "inputs": [],
      "name": "getAllMembers",
      "outputs": [
        {
          "internalType": "address[]",
          "name": "",
          "type": "address[]"
        }
      ],
      "stateMutability": "view",
      "type": "function"
    },
    {
      "inputs": [],
      "name": "getAllSongs",
      "outputs": [
        {
          "components": [
            {
              "internalType": "uint256",
              "name": "songId",
              "type": "uint256"
            },
            {
              "internalType": "uint256",
              "name": "songType",
              "type": "uint256"
            },
            {
              "internalType": "address",
              "name": "songContract",
              "type": "address"
            },
            {
              "internalType": "address",
              "name": "splitSecondaryReceiverAddress",
              "type": "address"
            },
            {
              "internalType": "address",
              "name": "splitMintReceiverAddress",
              "type": "address"
            }
          ],
          "internalType": "struct AliveBand.Song[]",
          "name": "",
          "type": "tuple[]"
        }
      ],
      "stateMutability": "view",
      "type": "function"
    },
    {
      "inputs": [
        {
          "internalType": "address",
          "name": "_to",
          "type": "address"
        }
      ],
      "name": "getGovernanceRole",
      "outputs": [],
      "stateMutability": "nonpayable",
      "type": "function"
    },
    {
      "inputs": [
        {
          "internalType": "bytes32",
          "name": "role",
          "type": "bytes32"
        }
      ],
      "name": "getRoleAdmin",
      "outputs": [
        {
          "internalType": "bytes32",
          "name": "",
          "type": "bytes32"
        }
      ],
      "stateMutability": "view",
      "type": "function"
    },
    {
      "inputs": [
        {
          "internalType": "uint256",
          "name": "_id",
          "type": "uint256"
        }
      ],
      "name": "getSongById",
      "outputs": [
        {
          "components": [
            {
              "internalType": "uint256",
              "name": "songId",
              "type": "uint256"
            },
            {
              "internalType": "uint256",
              "name": "songType",
              "type": "uint256"
            },
            {
              "internalType": "address",
              "name": "songContract",
              "type": "address"
            },
            {
              "internalType": "address",
              "name": "splitSecondaryReceiverAddress",
              "type": "address"
            },
            {
              "internalType": "address",
              "name": "splitMintReceiverAddress",
              "type": "address"
            }
          ],
          "internalType": "struct AliveBand.Song",
          "name": "",
          "type": "tuple"
        }
      ],
      "stateMutability": "view",
      "type": "function"
    },
    {
      "inputs": [
        {
          "internalType": "uint256",
          "name": "id",
          "type": "uint256"
        }
      ],
      "name": "getSplitWallet",
      "outputs": [
        {
          "internalType": "address",
          "name": "",
          "type": "address"
        }
      ],
      "stateMutability": "view",
      "type": "function"
    },
    {
      "inputs": [
        {
          "internalType": "address",
          "name": "_to",
          "type": "address"
        }
      ],
      "name": "grantGovernanceRole",
      "outputs": [],
      "stateMutability": "nonpayable",
      "type": "function"
    },
    {
      "inputs": [
        {
          "internalType": "bytes32",
          "name": "role",
          "type": "bytes32"
        },
        {
          "internalType": "address",
          "name": "account",
          "type": "address"
        }
      ],
      "name": "grantRole",
      "outputs": [],
      "stateMutability": "nonpayable",
      "type": "function"
    },
    {
      "inputs": [
        {
          "internalType": "bytes32",
          "name": "role",
          "type": "bytes32"
        },
        {
          "internalType": "address",
          "name": "account",
          "type": "address"
        }
      ],
      "name": "hasRole",
      "outputs": [
        {
          "internalType": "bool",
          "name": "",
          "type": "bool"
        }
      ],
      "stateMutability": "view",
      "type": "function"
    },
    {
      "inputs": [
        {
          "internalType": "uint256",
          "name": "_id",
          "type": "uint256"
        },
        {
          "internalType": "string",
          "name": "_bandName",
          "type": "string"
        },
        {
          "internalType": "address",
          "name": "_bandAdmin",
          "type": "address"
        },
        {
          "internalType": "address",
          "name": "_aliveRegistry",
          "type": "address"
        }
      ],
      "name": "initialize",
      "outputs": [],
      "stateMutability": "nonpayable",
      "type": "function"
    },
    {
      "inputs": [
        {
          "internalType": "address",
          "name": "_addr",
          "type": "address"
        }
      ],
      "name": "isContract",
      "outputs": [
        {
          "internalType": "bool",
          "name": "",
          "type": "bool"
        }
      ],
      "stateMutability": "view",
      "type": "function"
    },
    {
      "inputs": [
        {
          "internalType": "uint256",
          "name": "",
          "type": "uint256"
        }
      ],
      "name": "membersOfBand",
      "outputs": [
        {
          "internalType": "address",
          "name": "",
          "type": "address"
        }
      ],
      "stateMutability": "view",
      "type": "function"
    },
    {
      "inputs": [
        {
          "internalType": "address",
          "name": "_addr",
          "type": "address"
        }
      ],
      "name": "removeMember",
      "outputs": [
        {
          "internalType": "bool",
          "name": "",
          "type": "bool"
        }
      ],
      "stateMutability": "nonpayable",
      "type": "function"
    },
    {
      "inputs": [
        {
          "internalType": "bytes32",
          "name": "role",
          "type": "bytes32"
        },
        {
          "internalType": "address",
          "name": "account",
          "type": "address"
        }
      ],
      "name": "renounceRole",
      "outputs": [],
      "stateMutability": "nonpayable",
      "type": "function"
    },
    {
      "inputs": [
        {
          "internalType": "bytes32",
          "name": "role",
          "type": "bytes32"
        },
        {
          "internalType": "address",
          "name": "account",
          "type": "address"
        }
      ],
      "name": "revokeRole",
      "outputs": [],
      "stateMutability": "nonpayable",
      "type": "function"
    },
    {
      "inputs": [
        {
          "internalType": "bytes4",
          "name": "interfaceId",
          "type": "bytes4"
        }
      ],
      "name": "supportsInterface",
      "outputs": [
        {
          "internalType": "bool",
          "name": "",
          "type": "bool"
        }
      ],
      "stateMutability": "view",
      "type": "function"
    },
    {
      "inputs": [
        {
          "internalType": "address",
          "name": "_to",
          "type": "address"
        }
      ],
      "name": "transferAdminOwnership",
      "outputs": [],
      "stateMutability": "nonpayable",
      "type": "function"
    }
  ],
  "bytecode": "0x608060405234801561001057600080fd5b50613ac0806100206000396000f3fe60806040523480156200001157600080fd5b5060043610620001f55760003560e01c80637c0f6b351162000119578063c1c45e6811620000af578063d547741f116200007a578063d547741f14620004a7578063da67d71e14620004be578063f9475ac614620004d7578063fcefa2bf14620004ee57600080fd5b8063c1c45e681462000451578063c9c46b3b1462000468578063ca6d56dc146200047c578063cc942bad146200049357600080fd5b8063a035c08511620000f0578063a035c08514620003cc578063a217fddf14620003e3578063a2b512a214620003ec578063a6b46a6f146200040357600080fd5b80637c0f6b351462000385578063858d1311146200039e57806391d1485414620003b557600080fd5b8063323daf63116200018f5780634d043eea11620001665780634d043eea14620003365780635ec5792e14620003405780636036070014620003575780636505e17e146200036e57600080fd5b8063323daf6314620002d857806336568abe146200030857806347b9e30a146200031f57600080fd5b80631627905511620001d0578063162790551462000256578063248a9ca3146200027357806329ef686214620002a85780632f2ff15d14620002c157600080fd5b806301ffc9a714620001fa57806308a80ff514620002265780630b1ca49a146200023f575b600080fd5b620002116200020b366004620028c7565b62000514565b60405190151581526020015b60405180910390f35b6200023d62000237366004620023f2565b6200054c565b005b6200021162000250366004620023f2565b620005dc565b6200021162000267366004620023f2565b3b63ffffffff16151590565b62000299620002843660046200287c565b60009081526065602052604090206001015490565b6040519081526020016200021d565b620002b262000816565b6040516200021d919062002e41565b6200023d620002d236600462002895565b620008b5565b620002ef620002e9366004620027bf565b620008e4565b6040516001600160a01b0390911681526020016200021d565b6200023d6200031936600462002895565b62000c5d565b620002ef6200033036600462002559565b62000cdf565b62000299609b5481565b620002ef620003513660046200287c565b6200109a565b6200023d62000368366004620023f2565b620010d9565b620002ef6200037f3660046200287c565b62001185565b6200038f620011b0565b6040516200021d919062002d97565b6200023d620003af366004620023f2565b62001214565b62000211620003c636600462002895565b6200126b565b6200023d620003dd36600462002979565b62001296565b62000299600081565b62000211620003fd36600462002781565b620013bf565b6200041a620004143660046200287c565b620014ad565b6040805195865260208601949094526001600160a01b03928316938501939093528116606084015216608082015260a0016200021d565b620002ef620004623660046200266d565b620014fe565b609854620002ef906001600160a01b031681565b620002116200048d366004620023f2565b620018a1565b609754620002ef906001600160a01b031681565b6200023d620004b836600462002895565b620019cf565b620004c8620019f9565b6040516200021d919062002e93565b620002ef620004e836600462002430565b62001a8f565b62000505620004ff3660046200287c565b62001e32565b6040516200021d919062002ecf565b60006001600160e01b03198216637965db0b60e01b14806200054657506301ffc9a760e01b6001600160e01b03198316145b92915050565b620005596000336200126b565b6200056357600080fd5b6200057060003362001e99565b609880546001600160a01b0319166001600160a01b0383161790556200059860008262001f03565b604080513381526001600160a01b03831660208201527f7e644d79422f17c01e4894b5f4f588d331ebfa28653d42ae832dc59e38c9798f910160405180910390a150565b60975460405163082b9f9760e11b81523360048201526000916001600160a01b0316906310573f2e9060240160206040518083038186803b1580156200062157600080fd5b505afa15801562000636573d6000803e3d6000fd5b505050506040513d601f19601f820116820180604052508101906200065c91906200285a565b15156001146200066b57600080fd5b6001600160a01b0382166000908152609e6020526040902054620006c55760405162461bcd60e51b815260206004820152600c60248201526b3737ba10309036b2b6b132b960a11b60448201526064015b60405180910390fd5b6001600160a01b0382166000908152609e602052604081205490620006ec60018362002fc4565b90505b609954620007009060019062002fc4565b811015620007af5760996200071782600162002f87565b815481106200073657634e487b7160e01b600052603260045260246000fd5b600091825260209091200154609980546001600160a01b0390921691839081106200077157634e487b7160e01b600052603260045260246000fd5b600091825260209091200180546001600160a01b0319166001600160a01b039290921691909117905580620007a68162003064565b915050620006ef565b506099805480620007d057634e487b7160e01b600052603160045260246000fd5b60008281526020808220830160001990810180546001600160a01b03191690559092019092556001600160a01b0385168252609e9052604081205550600190505b919050565b6060609d805480602002602001604051908101604052809291908181526020016000905b82821015620008ac5760008481526020908190206040805160a08101825260058602909201805483526001808201548486015260028201546001600160a01b0390811693850193909352600382015483166060850152600490910154909116608083015290835290920191016200083a565b50505050905090565b600082815260656020526040902060010154620008d3813362001f8d565b620008df838362001f03565b505050565b60975460405163082b9f9760e11b81523360048201526000916001600160a01b0316906310573f2e9060240160206040518083038186803b1580156200092957600080fd5b505afa1580156200093e573d6000803e3d6000fd5b505050506040513d601f19601f820116820180604052508101906200096491906200285a565b1515600114806200098b57506200098b60008051602062003a6b833981519152336200126b565b620009aa5760405162461bcd60e51b8152600401620006bc9062002ea8565b60975460408051631808795b60e11b815290516000926001600160a01b031691633010f2b6916004808301926020929190829003018186803b158015620009f057600080fd5b505afa15801562000a05573d6000803e3d6000fd5b505050506040513d601f19601f8201168201806040525081019062000a2b919062002411565b90506000816001600160a01b03166352844dd387878760006040518563ffffffff1660e01b815260040162000a64949392919062002dac565b60206040518083038186803b15801562000a7d57600080fd5b505afa15801562000a92573d6000803e3d6000fd5b505050506040513d601f19601f8201168201806040525081019062000ab8919062002411565b9050803b63ffffffff1662000bfb57604051633b00fbc160e11b81526000906001600160a01b03841690637601f7829062000b00908a908a908a908790819060040162002dee565b602060405180830381600087803b15801562000b1b57600080fd5b505af115801562000b30573d6000803e3d6000fd5b505050506040513d601f19601f8201168201806040525081019062000b56919062002411565b609a8054600181019091557f44da158ba27f9252712a74ff6a55c5d531f69609f1f6e7f17c4443a8e2089be4810180546001600160a01b0319166001600160a01b038416908117909155600081815260a060209081526040918290208490558151928352820183905292935090917f128fe5c1cf27ccbb905d18b1d717d3480aee4226f75dcb548447c4bff02571e9910160405180910390a150925062000c56915050565b6001600160a01b038116600081815260a06020908152604091829020548251938452908301527f128fe5c1cf27ccbb905d18b1d717d3480aee4226f75dcb548447c4bff02571e9910160405180910390a1915062000c569050565b9392505050565b6001600160a01b038116331462000ccf5760405162461bcd60e51b815260206004820152602f60248201527f416363657373436f6e74726f6c3a2063616e206f6e6c792072656e6f756e636560448201526e103937b632b9903337b91039b2b63360891b6064820152608401620006bc565b62000cdb828262001e99565b5050565b60975460405163082b9f9760e11b81523360048201526000916001600160a01b0316906310573f2e9060240160206040518083038186803b15801562000d2457600080fd5b505afa15801562000d39573d6000803e3d6000fd5b505050506040513d601f19601f8201168201806040525081019062000d5f91906200285a565b15156001148062000d86575062000d8660008051602062003a6b833981519152336200126b565b62000da55760405162461bcd60e51b8152600401620006bc9062002ea8565b609d5460009062000db890600162002f87565b60975460405191925060009163f06d557d60e01b9162000df9916001600160a01b03909116908e908e908e908e908e908e908e908c908f9060240162002c61565b60408051601f198184030181529181526020820180516001600160e01b03166001600160e01b03199490941693909317909252609754915163ab57682760e01b8152600260048201529092506000916001600160a01b03169063ab5768279060240160806040518083038186803b15801562000e7457600080fd5b505afa15801562000e89573d6000803e3d6000fd5b505050506040513d601f19601f8201168201806040525081019062000eaf9190620028f1565b604001518260405162000ec290620021f1565b62000ecf92919062002d71565b604051809103906000f08015801562000eec573d6000803e3d6000fd5b50905062000ef9620021ff565b8181604001906001600160a01b031690816001600160a01b0316815250508381600001818152505060028160200181815250508c81606001906001600160a01b031690816001600160a01b0316815250508a81608001906001600160a01b031690816001600160a01b031681525050609d819080600181540180825580915050600190039060005260206000209060050201600090919091909150600082015181600001556020820151816001015560408201518160020160006101000a8154816001600160a01b0302191690836001600160a01b0316021790555060608201518160030160006101000a8154816001600160a01b0302191690836001600160a01b0316021790555060808201518160040160006101000a8154816001600160a01b0302191690836001600160a01b0316021790555050507fb97afbcecf01630c0b89cea937cb9b8bf3ae402f046ac0c1d073b035c1fca09e8285600260405162001082939291906001600160a01b039390931683526020830191909152604082015260600190565b60405180910390a1509b9a5050505050505050505050565b6000609a8281548110620010be57634e487b7160e01b600052603260045260246000fd5b6000918252602090912001546001600160a01b031692915050565b60975460405163082b9f9760e11b81523360048201526001600160a01b03909116906310573f2e9060240160206040518083038186803b1580156200111d57600080fd5b505afa15801562001132573d6000803e3d6000fd5b505050506040513d601f19601f820116820180604052508101906200115891906200285a565b15156001146200116757600080fd5b6200118260008051602062003a6b8339815191528262001f03565b50565b609981815481106200119657600080fd5b6000918252602090912001546001600160a01b0316905081565b606060998054806020026020016040519081016040528092919081815260200182805480156200120a57602002820191906000526020600020905b81546001600160a01b03168152600190910190602001808311620011eb575b5050505050905090565b620012216000336200126b565b6200122b57600080fd5b6200124660008051602062003a6b833981519152826200126b565b6200125057600080fd5b6200118260008051602062003a6b8339815191528262001e99565b60009182526065602090815260408084206001600160a01b0393909316845291905290205460ff1690565b600054610100900460ff16620012b35760005460ff1615620012b7565b303b155b6200131c5760405162461bcd60e51b815260206004820152602e60248201527f496e697469616c697a61626c653a20636f6e747261637420697320616c72656160448201526d191e481a5b9a5d1a585b1a5e995960921b6064820152608401620006bc565b600054610100900460ff161580156200133f576000805461ffff19166101011790555b609b8590556200135f60008051602062003a6b8339815191528462001f03565b609780546001600160a01b038085166001600160a01b03199283161790925560988054928616929091169190911790558351620013a490609c9060208701906200222d565b508015620013b8576000805461ff00191690555b5050505050565b60975460405163082b9f9760e11b81523360048201526000916001600160a01b0316906310573f2e9060240160206040518083038186803b1580156200140457600080fd5b505afa15801562001419573d6000803e3d6000fd5b505050506040513d601f19601f820116820180604052508101906200143f91906200285a565b15156001146200144e57600080fd5b60005b8251811015620014a4576200148e8382815181106200148057634e487b7160e01b600052603260045260246000fd5b6020026020010151620018a1565b50806200149b8162003064565b91505062001451565b50600192915050565b609d8181548110620014be57600080fd5b60009182526020909120600590910201805460018201546002830154600384015460049094015492945090926001600160a01b0391821692908216911685565b60975460405163082b9f9760e11b81523360048201526000916001600160a01b0316906310573f2e9060240160206040518083038186803b1580156200154357600080fd5b505afa15801562001558573d6000803e3d6000fd5b505050506040513d601f19601f820116820180604052508101906200157e91906200285a565b151560011480620015a55750620015a560008051602062003a6b833981519152336200126b565b620015c45760405162461bcd60e51b8152600401620006bc9062002ea8565b609d54600090620015d790600162002f87565b609754604051919250600091635f5f190560e01b9162001618916001600160a01b03909116908e908e908e908e908e908e908e908c908f9060240162002ce9565b60408051601f198184030181529181526020820180516001600160e01b03166001600160e01b03199490941693909317909252609754915163ab57682760e01b8152600360048201529092506000916001600160a01b03169063ab5768279060240160806040518083038186803b1580156200169357600080fd5b505afa158015620016a8573d6000803e3d6000fd5b505050506040513d601f19601f82011682018060405250810190620016ce9190620028f1565b6040015182604051620016e190620021f1565b620016ee92919062002d71565b604051809103906000f0801580156200170b573d6000803e3d6000fd5b50905062001718620021ff565b8181604001906001600160a01b031690816001600160a01b0316815250508381600001818152505060038160200181815250508c81606001906001600160a01b031690816001600160a01b0316815250508a81608001906001600160a01b031690816001600160a01b031681525050609d819080600181540180825580915050600190039060005260206000209060050201600090919091909150600082015181600001556020820151816001015560408201518160020160006101000a8154816001600160a01b0302191690836001600160a01b0316021790555060608201518160030160006101000a8154816001600160a01b0302191690836001600160a01b0316021790555060808201518160040160006101000a8154816001600160a01b0302191690836001600160a01b0316021790555050507fb97afbcecf01630c0b89cea937cb9b8bf3ae402f046ac0c1d073b035c1fca09e8285600360405162001082939291906001600160a01b039390931683526020830191909152604082015260600190565b60975460405163082b9f9760e11b81523360048201526000916001600160a01b0316906310573f2e9060240160206040518083038186803b158015620018e657600080fd5b505afa158015620018fb573d6000803e3d6000fd5b505050506040513d601f19601f820116820180604052508101906200192191906200285a565b15156001146200193057600080fd5b6001600160a01b0382166000908152609e6020526040902054156200195457600080fd5b6099546000906200196790600162002f87565b6001600160a01b0384166000818152609e60205260408120929092556099805460018181018355919093527f72a152ddfb8e864297c917af52ea6c1c68aead0fee1a62673fcc7e0c94979d0090920180546001600160a01b0319169091179055915050919050565b600082815260656020526040902060010154620019ed813362001f8d565b620008df838362001e99565b609c805462001a089062003027565b80601f016020809104026020016040519081016040528092919081815260200182805462001a369062003027565b801562001a875780601f1062001a5b5761010080835404028352916020019162001a87565b820191906000526020600020905b81548152906001019060200180831162001a6957829003601f168201915b505050505081565b60975460405163082b9f9760e11b81523360048201526000916001600160a01b0316906310573f2e9060240160206040518083038186803b15801562001ad457600080fd5b505afa15801562001ae9573d6000803e3d6000fd5b505050506040513d601f19601f8201168201806040525081019062001b0f91906200285a565b15156001148062001b36575062001b3660008051602062003a6b833981519152336200126b565b62001b555760405162461bcd60e51b8152600401620006bc9062002ea8565b609d5460009062001b6890600162002f87565b6097546040519192506000916358579f6f60e01b9162001ba9916001600160a01b03909116908e908e908e908e908e908e908e908c908f9060240162002bca565b60408051601f198184030181529181526020820180516001600160e01b03166001600160e01b03199490941693909317909252609754915163ab57682760e01b8152600160048201529092506000916001600160a01b03169063ab5768279060240160806040518083038186803b15801562001c2457600080fd5b505afa15801562001c39573d6000803e3d6000fd5b505050506040513d601f19601f8201168201806040525081019062001c5f9190620028f1565b604001518260405162001c7290620021f1565b62001c7f92919062002d71565b604051809103906000f08015801562001c9c573d6000803e3d6000fd5b50905062001ca9620021ff565b8181604001906001600160a01b031690816001600160a01b0316815250508381600001818152505060018160200181815250508c81606001906001600160a01b031690816001600160a01b0316815250508a81608001906001600160a01b031690816001600160a01b031681525050609d819080600181540180825580915050600190039060005260206000209060050201600090919091909150600082015181600001556020820151816001015560408201518160020160006101000a8154816001600160a01b0302191690836001600160a01b0316021790555060608201518160030160006101000a8154816001600160a01b0302191690836001600160a01b0316021790555060808201518160040160006101000a8154816001600160a01b0302191690836001600160a01b0316021790555050507fb97afbcecf01630c0b89cea937cb9b8bf3ae402f046ac0c1d073b035c1fca09e8285600160405162001082939291906001600160a01b039390931683526020830191909152604082015260600190565b62001e3c620021ff565b506000908152609f6020908152604091829020825160a0810184528154815260018201549281019290925260028101546001600160a01b039081169383019390935260038101548316606083015260040154909116608082015290565b62001ea582826200126b565b1562000cdb5760008281526065602090815260408083206001600160a01b0385168085529252808320805460ff1916905551339285917ff6391f5c32d9c69d2a47ea670b442974b53935d1edc7fd64eb21e047a839171b9190a45050565b62001f0f82826200126b565b62000cdb5760008281526065602090815260408083206001600160a01b03851684529091529020805460ff1916600117905562001f493390565b6001600160a01b0316816001600160a01b0316837f2f8788117e7eff1d82e926ec794901d17c78024a50270940304540a733656f0d60405160405180910390a45050565b62001f9982826200126b565b62000cdb5762001fb4816001600160a01b0316601462001ffc565b62001fc183602062001ffc565b60405160200162001fd492919062002b51565b60408051601f198184030181529082905262461bcd60e51b8252620006bc9160040162002e93565b606060006200200d83600262002fa2565b6200201a90600262002f87565b6001600160401b038111156200204057634e487b7160e01b600052604160045260246000fd5b6040519080825280601f01601f1916602001820160405280156200206b576020820181803683370190505b509050600360fc1b816000815181106200209557634e487b7160e01b600052603260045260246000fd5b60200101906001600160f81b031916908160001a905350600f60fb1b81600181518110620020d357634e487b7160e01b600052603260045260246000fd5b60200101906001600160f81b031916908160001a9053506000620020f984600262002fa2565b6200210690600162002f87565b90505b6001811115620021a0576f181899199a1a9b1b9c1cb0b131b232b360811b85600f16601081106200214a57634e487b7160e01b600052603260045260246000fd5b1a60f81b8282815181106200216f57634e487b7160e01b600052603260045260246000fd5b60200101906001600160f81b031916908160001a90535060049490941c9362002198816200300d565b905062002109565b50831562000c565760405162461bcd60e51b815260206004820181905260248201527f537472696e67733a20686578206c656e67746820696e73756666696369656e746044820152606401620006bc565b6109a680620030c583390190565b6040805160a08101825260008082526020820181905291810182905260608101829052608081019190915290565b8280546200223b9062003027565b90600052602060002090601f0160209004810192826200225f5760008555620022aa565b82601f106200227a57805160ff1916838001178555620022aa565b82800160010185558215620022aa579182015b82811115620022aa5782518255916020019190600101906200228d565b50620022b8929150620022bc565b5090565b5b80821115620022b85760008155600101620022bd565b600082601f830112620022e4578081fd5b813560206001600160401b0382111562002302576200230262003098565b8160051b6200231382820162002f54565b8381528281019086840183880185018910156200232e578687fd5b8693505b858410156200235d5780356200234881620030ae565b83526001939093019291840191840162002332565b50979650505050505050565b600082601f8301126200237a578081fd5b81356001600160401b0381111562002396576200239662003098565b620023ab601f8201601f191660200162002f54565b818152846020838601011115620023c0578283fd5b816020850160208301379081016020019190915292915050565b80356001600160601b03811681146200081157600080fd5b60006020828403121562002404578081fd5b813562000c5681620030ae565b60006020828403121562002423578081fd5b815162000c5681620030ae565b600080600080600080600080610140808a8c0312156200244e578485fd5b89356200245b81620030ae565b985060206200246c8b8201620023da565b985060408b01356200247e81620030ae565b97506200248e60608c01620023da565b965060808b01356001600160401b0380821115620024aa578788fd5b620024b88e838f0162002369565b975060a08d0135915080821115620024ce578687fd5b50620024dd8d828e0162002369565b95505060c08b0135620024f081620030ae565b935060ff8b018c1362002501578283fd5b6200250b62002edf565b8060e08d018e858f0111156200251f578586fd5b8594505b60038510156200254457803583526001949094019391830191830162002523565b50809450505050509295985092959890939650565b600080600080600080600080610160808a8c03121562002577578283fd5b89356200258481620030ae565b98506020620025958b8201620023da565b985060408b0135620025a781620030ae565b9750620025b760608c01620023da565b965060808b01356001600160401b0380821115620025d3578586fd5b620025e18e838f0162002369565b975060a08d0135915080821115620025f7578586fd5b50620026068d828e0162002369565b95505060c08b01356200261981620030ae565b935060ff8b018c136200262a578283fd5b6200263462002f0a565b8060e08d018e858f01111562002648578586fd5b8594505b6004851015620025445780358352600194909401939183019183016200264c565b600080600080600080600080610180808a8c0312156200268b578283fd5b89356200269881620030ae565b98506020620026a98b8201620023da565b985060408b0135620026bb81620030ae565b9750620026cb60608c01620023da565b965060808b01356001600160401b0380821115620026e7578586fd5b620026f58e838f0162002369565b975060a08d01359150808211156200270b578586fd5b506200271a8d828e0162002369565b95505060c08b01356200272d81620030ae565b935060ff8b018c136200273e578283fd5b6200274862002f2f565b8060e08d018e858f0111156200275c578586fd5b8594505b60058510156200254457803583526001949094019391830191830162002760565b60006020828403121562002793578081fd5b81356001600160401b03811115620027a9578182fd5b620027b784828501620022d3565b949350505050565b600080600060408486031215620027d4578081fd5b83356001600160401b0380821115620027eb578283fd5b620027f987838801620022d3565b945060208601359150808211156200280f578283fd5b818601915086601f83011262002823578283fd5b81358181111562002832578384fd5b8760208260051b850101111562002847578384fd5b6020830194508093505050509250925092565b6000602082840312156200286c578081fd5b8151801515811462000c56578182fd5b6000602082840312156200288e578081fd5b5035919050565b60008060408385031215620028a8578182fd5b823591506020830135620028bc81620030ae565b809150509250929050565b600060208284031215620028d9578081fd5b81356001600160e01b03198116811462000c56578182fd5b60006080828403121562002903578081fd5b604051608081018181106001600160401b038211171562002928576200292862003098565b60405282516200293881620030ae565b81526020838101519082015260408301516200295481620030ae565b6040820152606083015160ff811681146200296d578283fd5b60608201529392505050565b600080600080608085870312156200298f578182fd5b8435935060208501356001600160401b03811115620029ac578283fd5b620029ba8782880162002369565b9350506040850135620029cd81620030ae565b91506060850135620029df81620030ae565b939692955090935050565b6000815180845260208085019450808401835b8381101562002a245781516001600160a01b031687529582019590820190600101620029fd565b509495945050505050565b8060005b600381101562002a5457815184526020938401939091019060010162002a33565b50505050565b8060005b600481101562002a5457815184526020938401939091019060010162002a5e565b8060005b600581101562002a5457815184526020938401939091019060010162002a83565b81835260006020808501945082825b8581101562002a2457813563ffffffff811680821462002ad1578586fd5b885250958201959082019060010162002ab3565b6000815180845262002aff81602086016020860162002fde565b601f01601f19169290920160200192915050565b80518252602080820151908301526040808201516001600160a01b039081169184019190915260608083015182169084015260809182015116910152565b7f416363657373436f6e74726f6c3a206163636f756e742000000000000000000081526000835162002b8b81601785016020880162002fde565b7001034b99036b4b9b9b4b733903937b6329607d1b601791840191820152835162002bbe81602884016020880162002fde565b01602801949350505050565b6001600160a01b038b811682528a811660208301526001600160601b038a8116604084015289821660608401528816608083015261018060a0830181905260009162002c198483018a62002ae5565b915083820360c085015262002c2f828962002ae5565b925080871660e085015250508361010083015262002c5261012083018462002a2f565b9b9a5050505050505050505050565b6001600160a01b038b811682528a811660208301526001600160601b038a811660408401528982166060840152881660808301526101a060a0830181905260009162002cb08483018a62002ae5565b915083820360c085015262002cc6828962002ae5565b925080871660e085015250508361010083015262002c5261012083018462002a5a565b6001600160a01b038b811682528a811660208301526001600160601b038a811660408401528982166060840152881660808301526101c060a0830181905260009162002d388483018a62002ae5565b915083820360c085015262002d4e828962002ae5565b925080871660e085015250508361010083015262002c5261012083018462002a7f565b6001600160a01b0383168152604060208201819052600090620027b79083018462002ae5565b60208152600062000c566020830184620029ea565b60608152600062002dc16060830187620029ea565b828103602084015262002dd681868862002aa4565b91505063ffffffff8316604083015295945050505050565b60808152600062002e036080830188620029ea565b828103602084015262002e1881878962002aa4565b63ffffffff95909516604084015250506001600160a01b03919091166060909101529392505050565b6020808252825182820181905260009190848201906040850190845b8181101562002e875762002e7383855162002b13565b9284019260a0929092019160010162002e5d565b50909695505050505050565b60208152600062000c56602083018462002ae5565b6020808252600d908201526c37b7363c9033b7bb32b93737b960991b604082015260600190565b60a0810162000546828462002b13565b604051606081016001600160401b038111828210171562002f045762002f0462003098565b60405290565b604051608081016001600160401b038111828210171562002f045762002f0462003098565b60405160a081016001600160401b038111828210171562002f045762002f0462003098565b604051601f8201601f191681016001600160401b038111828210171562002f7f5762002f7f62003098565b604052919050565b6000821982111562002f9d5762002f9d62003082565b500190565b600081600019048311821515161562002fbf5762002fbf62003082565b500290565b60008282101562002fd95762002fd962003082565b500390565b60005b8381101562002ffb57818101518382015260200162002fe1565b8381111562002a545750506000910152565b6000816200301f576200301f62003082565b506000190190565b600181811c908216806200303c57607f821691505b602082108114156200305e57634e487b7160e01b600052602260045260246000fd5b50919050565b60006000198214156200307b576200307b62003082565b5060010190565b634e487b7160e01b600052601160045260246000fd5b634e487b7160e01b600052604160045260246000fd5b6001600160a01b03811681146200118257600080fdfe60806040526040516109a63803806109a68339810160408190526100229161048f565b61004d60017fa3f0ad74e5423aebfd80d3ef4346578335a9a72aeaee59ff6cb3582b35133d5161059a565b60008051602061095f8339815191521461007757634e487b7160e01b600052600160045260246000fd5b6100838282600061008a565b50506105ff565b61009383610164565b6040516001600160a01b038416907f1cf3b03a6cf19fa2baba4df148e9dcabedea7f8a5c07840e207e5c089be95d3e90600090a26000825111806100d45750805b1561015f5761015d836001600160a01b0316635c60da1b6040518163ffffffff1660e01b815260040160206040518083038186803b15801561011557600080fd5b505afa158015610129573d6000803e3d6000fd5b505050506040513d601f19601f8201168201806040525081019061014d9190610475565b8361030460201b6100291760201c565b505b505050565b6101778161033060201b6100551760201c565b6101d65760405162461bcd60e51b815260206004820152602560248201527f455243313936373a206e657720626561636f6e206973206e6f74206120636f6e6044820152641d1c9858dd60da1b60648201526084015b60405180910390fd5b610259816001600160a01b0316635c60da1b6040518163ffffffff1660e01b815260040160206040518083038186803b15801561021257600080fd5b505afa158015610226573d6000803e3d6000fd5b505050506040513d601f19601f8201168201806040525081019061024a9190610475565b61033060201b6100551760201c565b6102be5760405162461bcd60e51b815260206004820152603060248201527f455243313936373a20626561636f6e20696d706c656d656e746174696f6e206960448201526f1cc81b9bdd08184818dbdb9d1c9858dd60821b60648201526084016101cd565b806102e360008051602061095f83398151915260001b61033f60201b6100641760201c565b80546001600160a01b0319166001600160a01b039290921691909117905550565b6060610329838360405180606001604052806027815260200161097f60279139610342565b9392505050565b6001600160a01b03163b151590565b90565b60606001600160a01b0384163b6103aa5760405162461bcd60e51b815260206004820152602660248201527f416464726573733a2064656c65676174652063616c6c20746f206e6f6e2d636f6044820152651b9d1c9858dd60d21b60648201526084016101cd565b600080856001600160a01b0316856040516103c5919061054b565b600060405180830381855af49150503d8060008114610400576040519150601f19603f3d011682016040523d82523d6000602084013e610405565b606091505b509092509050610416828286610420565b9695505050505050565b6060831561042f575081610329565b82511561043f5782518084602001fd5b8160405162461bcd60e51b81526004016101cd9190610567565b80516001600160a01b038116811461047057600080fd5b919050565b600060208284031215610486578081fd5b61032982610459565b600080604083850312156104a1578081fd5b6104aa83610459565b60208401519092506001600160401b03808211156104c6578283fd5b818501915085601f8301126104d9578283fd5b8151818111156104eb576104eb6105e9565b604051601f8201601f19908116603f01168101908382118183101715610513576105136105e9565b8160405282815288602084870101111561052b578586fd5b61053c8360208301602088016105bd565b80955050505050509250929050565b6000825161055d8184602087016105bd565b9190910192915050565b60208152600082518060208401526105868160408501602087016105bd565b601f01601f19169190910160400192915050565b6000828210156105b857634e487b7160e01b81526011600452602481fd5b500390565b60005b838110156105d85781810151838201526020016105c0565b8381111561015d5750506000910152565b634e487b7160e01b600052604160045260246000fd5b6103518061060e6000396000f3fe60806040523661001357610011610017565b005b6100115b610027610022610067565b61010f565b565b606061004e83836040518060600160405280602781526020016102f560279139610133565b9392505050565b6001600160a01b03163b151590565b90565b600061009a7fa3f0ad74e5423aebfd80d3ef4346578335a9a72aeaee59ff6cb3582b35133d50546001600160a01b031690565b6001600160a01b0316635c60da1b6040518163ffffffff1660e01b815260040160206040518083038186803b1580156100d257600080fd5b505afa1580156100e6573d6000803e3d6000fd5b505050506040513d601f19601f8201168201806040525081019061010a919061024e565b905090565b3660008037600080366000845af43d6000803e80801561012e573d6000f35b3d6000fd5b60606001600160a01b0384163b6101a05760405162461bcd60e51b815260206004820152602660248201527f416464726573733a2064656c65676174652063616c6c20746f206e6f6e2d636f6044820152651b9d1c9858dd60d21b60648201526084015b60405180910390fd5b600080856001600160a01b0316856040516101bb9190610275565b600060405180830381855af49150503d80600081146101f6576040519150601f19603f3d011682016040523d82523d6000602084013e6101fb565b606091505b509150915061020b828286610215565b9695505050505050565b6060831561022457508161004e565b8251156102345782518084602001fd5b8160405162461bcd60e51b81526004016101979190610291565b60006020828403121561025f578081fd5b81516001600160a01b038116811461004e578182fd5b600082516102878184602087016102c4565b9190910192915050565b60208152600082518060208401526102b08160408501602087016102c4565b601f01601f19169190910160400192915050565b60005b838110156102df5781810151838201526020016102c7565b838111156102ee576000848401525b5050505056fe416464726573733a206c6f772d6c6576656c2064656c65676174652063616c6c206661696c6564a264697066735822122016ea08a7841a46184a644096b040aec774c73ce0c22b71eae6153978cbf35d5664736f6c63430008040033a3f0ad74e5423aebfd80d3ef4346578335a9a72aeaee59ff6cb3582b35133d50416464726573733a206c6f772d6c6576656c2064656c65676174652063616c6c206661696c656471840dc4906352362b0cdaf79870196c8e42acafade72d5d5a6d59291253ceb1a2646970667358221220ef6197f9274baaa495eea9e3b2e60dd0026940e2706d2c1b1fbfb399ff96cadd64736f6c63430008040033",
  "linkReferences": {},
  "deployedLinkReferences": {}
}