{
  "_format": "hh-sol-artifact-1",
  "contractName": "AliveFixedSong",
  "sourceName": "contracts/NewContracts/Songs/AliveFixedSong.sol",
  "abi": [
    {
      "inputs": [],
      "name": "ApprovalCallerNotOwnerNorApproved",
      "type": "error"
    },
    {
      "inputs": [],
      "name": "ApprovalQueryForNonexistentToken",
      "type": "error"
    },
    {
      "inputs": [],
      "name": "ApproveToCaller",
      "type": "error"
    },
    {
      "inputs": [],
      "name": "BalanceQueryForZeroAddress",
      "type": "error"
    },
    {
      "inputs": [],
      "name": "MintERC2309QuantityExceedsLimit",
      "type": "error"
    },
    {
      "inputs": [],
      "name": "MintToZeroAddress",
      "type": "error"
    },
    {
      "inputs": [],
      "name": "MintZeroQuantity",
      "type": "error"
    },
    {
      "inputs": [],
      "name": "OwnerQueryForNonexistentToken",
      "type": "error"
    },
    {
      "inputs": [],
      "name": "OwnershipNotInitializedForExtraData",
      "type": "error"
    },
    {
      "inputs": [],
      "name": "TransferCallerNotOwnerNorApproved",
      "type": "error"
    },
    {
      "inputs": [],
      "name": "TransferFromIncorrectOwner",
      "type": "error"
    },
    {
      "inputs": [],
      "name": "TransferToNonERC721ReceiverImplementer",
      "type": "error"
    },
    {
      "inputs": [],
      "name": "TransferToZeroAddress",
      "type": "error"
    },
    {
      "inputs": [],
      "name": "URIQueryForNonexistentToken",
      "type": "error"
    },
    {
      "anonymous": false,
      "inputs": [
        {
          "indexed": true,
          "internalType": "address",
          "name": "owner",
          "type": "address"
        },
        {
          "indexed": true,
          "internalType": "address",
          "name": "approved",
          "type": "address"
        },
        {
          "indexed": true,
          "internalType": "uint256",
          "name": "tokenId",
          "type": "uint256"
        }
      ],
      "name": "Approval",
      "type": "event"
    },
    {
      "anonymous": false,
      "inputs": [
        {
          "indexed": true,
          "internalType": "address",
          "name": "owner",
          "type": "address"
        },
        {
          "indexed": true,
          "internalType": "address",
          "name": "operator",
          "type": "address"
        },
        {
          "indexed": false,
          "internalType": "bool",
          "name": "approved",
          "type": "bool"
        }
      ],
      "name": "ApprovalForAll",
      "type": "event"
    },
    {
      "anonymous": false,
      "inputs": [
        {
          "indexed": false,
          "internalType": "address",
          "name": "owner",
          "type": "address"
        },
        {
          "indexed": false,
          "internalType": "uint256",
          "name": "tokenID",
          "type": "uint256"
        }
      ],
      "name": "ClaimAllDrop",
      "type": "event"
    },
    {
      "anonymous": false,
      "inputs": [
        {
          "indexed": false,
          "internalType": "address",
          "name": "owner",
          "type": "address"
        },
        {
          "indexed": false,
          "internalType": "uint256",
          "name": "dropID",
          "type": "uint256"
        },
        {
          "indexed": false,
          "internalType": "uint256",
          "name": "tokenID",
          "type": "uint256"
        },
        {
          "indexed": false,
          "internalType": "uint256",
          "name": "amount",
          "type": "uint256"
        }
      ],
      "name": "ClaimDrop",
      "type": "event"
    },
    {
      "anonymous": false,
      "inputs": [
        {
          "indexed": true,
          "internalType": "uint256",
          "name": "fromTokenId",
          "type": "uint256"
        },
        {
          "indexed": false,
          "internalType": "uint256",
          "name": "toTokenId",
          "type": "uint256"
        },
        {
          "indexed": true,
          "internalType": "address",
          "name": "from",
          "type": "address"
        },
        {
          "indexed": true,
          "internalType": "address",
          "name": "to",
          "type": "address"
        }
      ],
      "name": "ConsecutiveTransfer",
      "type": "event"
    },
    {
      "anonymous": false,
      "inputs": [
        {
          "indexed": false,
          "internalType": "address",
          "name": "account",
          "type": "address"
        }
      ],
      "name": "Paused",
      "type": "event"
    },
    {
      "anonymous": false,
      "inputs": [
        {
          "indexed": true,
          "internalType": "bytes32",
          "name": "role",
          "type": "bytes32"
        },
        {
          "indexed": true,
          "internalType": "bytes32",
          "name": "previousAdminRole",
          "type": "bytes32"
        },
        {
          "indexed": true,
          "internalType": "bytes32",
          "name": "newAdminRole",
          "type": "bytes32"
        }
      ],
      "name": "RoleAdminChanged",
      "type": "event"
    },
    {
      "anonymous": false,
      "inputs": [
        {
          "indexed": true,
          "internalType": "bytes32",
          "name": "role",
          "type": "bytes32"
        },
        {
          "indexed": true,
          "internalType": "address",
          "name": "account",
          "type": "address"
        },
        {
          "indexed": true,
          "internalType": "address",
          "name": "sender",
          "type": "address"
        }
      ],
      "name": "RoleGranted",
      "type": "event"
    },
    {
      "anonymous": false,
      "inputs": [
        {
          "indexed": true,
          "internalType": "bytes32",
          "name": "role",
          "type": "bytes32"
        },
        {
          "indexed": true,
          "internalType": "address",
          "name": "account",
          "type": "address"
        },
        {
          "indexed": true,
          "internalType": "address",
          "name": "sender",
          "type": "address"
        }
      ],
      "name": "RoleRevoked",
      "type": "event"
    },
    {
      "anonymous": false,
      "inputs": [
        {
          "indexed": false,
          "internalType": "address",
          "name": "owner",
          "type": "address"
        },
        {
          "indexed": false,
          "internalType": "uint256",
          "name": "quantity",
          "type": "uint256"
        },
        {
          "indexed": false,
          "internalType": "uint256",
          "name": "totalSupply",
          "type": "uint256"
        },
        {
          "indexed": false,
          "internalType": "address",
          "name": "songAddress",
          "type": "address"
        }
      ],
      "name": "SongMinted",
      "type": "event"
    },
    {
      "anonymous": false,
      "inputs": [
        {
          "indexed": true,
          "internalType": "address",
          "name": "from",
          "type": "address"
        },
        {
          "indexed": true,
          "internalType": "address",
          "name": "to",
          "type": "address"
        },
        {
          "indexed": true,
          "internalType": "uint256",
          "name": "tokenId",
          "type": "uint256"
        }
      ],
      "name": "Transfer",
      "type": "event"
    },
    {
      "anonymous": false,
      "inputs": [
        {
          "indexed": false,
          "internalType": "address",
          "name": "account",
          "type": "address"
        }
      ],
      "name": "Unpaused",
      "type": "event"
    },
    {
      "inputs": [],
      "name": "DEFAULT_ADMIN_ROLE",
      "outputs": [
        {
          "internalType": "bytes32",
          "name": "",
          "type": "bytes32"
        }
      ],
      "stateMutability": "view",
      "type": "function"
    },
    {
      "inputs": [
        {
          "internalType": "address",
          "name": "",
          "type": "address"
        },
        {
          "internalType": "uint256",
          "name": "",
          "type": "uint256"
        }
      ],
      "name": "addressTokenIds",
      "outputs": [
        {
          "internalType": "uint256",
          "name": "",
          "type": "uint256"
        }
      ],
      "stateMutability": "view",
      "type": "function"
    },
    {
      "inputs": [],
      "name": "aliveRegistry",
      "outputs": [
        {
          "internalType": "address",
          "name": "",
          "type": "address"
        }
      ],
      "stateMutability": "view",
      "type": "function"
    },
    {
      "inputs": [
        {
          "internalType": "uint256",
          "name": "",
          "type": "uint256"
        }
      ],
      "name": "allDrops",
      "outputs": [
        {
          "internalType": "uint256",
          "name": "dropID",
          "type": "uint256"
        },
        {
          "internalType": "uint256",
          "name": "dropTotalAmount",
          "type": "uint256"
        },
        {
          "internalType": "uint256",
          "name": "dropPerNFT",
          "type": "uint256"
        },
        {
          "internalType": "uint256",
          "name": "totalClaimed",
          "type": "uint256"
        },
        {
          "internalType": "uint256",
          "name": "dropNumber",
          "type": "uint256"
        }
      ],
      "stateMutability": "view",
      "type": "function"
    },
    {
      "inputs": [
        {
          "internalType": "address",
          "name": "to",
          "type": "address"
        },
        {
          "internalType": "uint256",
          "name": "tokenId",
          "type": "uint256"
        }
      ],
      "name": "approve",
      "outputs": [],
      "stateMutability": "nonpayable",
      "type": "function"
    },
    {
      "inputs": [
        {
          "internalType": "address",
          "name": "owner",
          "type": "address"
        }
      ],
      "name": "balanceOf",
      "outputs": [
        {
          "internalType": "uint256",
          "name": "",
          "type": "uint256"
        }
      ],
      "stateMutability": "view",
      "type": "function"
    },
    {
      "inputs": [],
      "name": "band",
      "outputs": [
        {
          "internalType": "address",
          "name": "",
          "type": "address"
        }
      ],
      "stateMutability": "view",
      "type": "function"
    },
    {
      "inputs": [
        {
          "internalType": "address[]",
          "name": "_arrayOfReceivers",
          "type": "address[]"
        },
        {
          "internalType": "uint256",
          "name": "_amountForEach",
          "type": "uint256"
        }
      ],
      "name": "batchAirDrop",
      "outputs": [],
      "stateMutability": "nonpayable",
      "type": "function"
    },
    {
      "inputs": [
        {
          "internalType": "uint256",
          "name": "tokenId",
          "type": "uint256"
        }
      ],
      "name": "burn",
      "outputs": [],
      "stateMutability": "nonpayable",
      "type": "function"
    },
    {
      "inputs": [
        {
          "internalType": "uint256",
          "name": "tokenID",
          "type": "uint256"
        }
      ],
      "name": "claimAllDrop",
      "outputs": [
        {
          "internalType": "bool",
          "name": "success",
          "type": "bool"
        }
      ],
      "stateMutability": "nonpayable",
      "type": "function"
    },
    {
      "inputs": [
        {
          "internalType": "uint256",
          "name": "dropID",
          "type": "uint256"
        },
        {
          "internalType": "uint256",
          "name": "tokenID",
          "type": "uint256"
        }
      ],
      "name": "claimDrop",
      "outputs": [
        {
          "internalType": "bool",
          "name": "",
          "type": "bool"
        }
      ],
      "stateMutability": "nonpayable",
      "type": "function"
    },
    {
      "inputs": [
        {
          "internalType": "uint256",
          "name": "",
          "type": "uint256"
        },
        {
          "internalType": "uint256",
          "name": "",
          "type": "uint256"
        }
      ],
      "name": "claimedOfTokenId",
      "outputs": [
        {
          "internalType": "bool",
          "name": "",
          "type": "bool"
        }
      ],
      "stateMutability": "view",
      "type": "function"
    },
    {
      "inputs": [],
      "name": "contractURI",
      "outputs": [
        {
          "internalType": "string",
          "name": "",
          "type": "string"
        }
      ],
      "stateMutability": "view",
      "type": "function"
    },
    {
      "inputs": [],
      "name": "getAllDrops",
      "outputs": [
        {
          "components": [
            {
              "internalType": "uint256",
              "name": "dropID",
              "type": "uint256"
            },
            {
              "internalType": "uint256",
              "name": "dropTotalAmount",
              "type": "uint256"
            },
            {
              "internalType": "uint256",
              "name": "dropPerNFT",
              "type": "uint256"
            },
            {
              "internalType": "uint256",
              "name": "totalClaimed",
              "type": "uint256"
            },
            {
              "internalType": "uint256",
              "name": "dropNumber",
              "type": "uint256"
            }
          ],
          "internalType": "struct AliveCommonSong.Drop[]",
          "name": "",
          "type": "tuple[]"
        }
      ],
      "stateMutability": "view",
      "type": "function"
    },
    {
      "inputs": [
        {
          "internalType": "address",
          "name": "_owner",
          "type": "address"
        }
      ],
      "name": "getAllTokensByOwner",
      "outputs": [
        {
          "internalType": "uint256[]",
          "name": "",
          "type": "uint256[]"
        }
      ],
      "stateMutability": "view",
      "type": "function"
    },
    {
      "inputs": [
        {
          "internalType": "uint256",
          "name": "tokenId",
          "type": "uint256"
        }
      ],
      "name": "getApproved",
      "outputs": [
        {
          "internalType": "address",
          "name": "",
          "type": "address"
        }
      ],
      "stateMutability": "view",
      "type": "function"
    },
    {
      "inputs": [
        {
          "internalType": "uint256",
          "name": "tokenID",
          "type": "uint256"
        }
      ],
      "name": "getClaimStatusByTokenID",
      "outputs": [
        {
          "internalType": "bool[]",
          "name": "",
          "type": "bool[]"
        }
      ],
      "stateMutability": "view",
      "type": "function"
    },
    {
      "inputs": [],
      "name": "getContractURI",
      "outputs": [
        {
          "internalType": "string",
          "name": "",
          "type": "string"
        }
      ],
      "stateMutability": "view",
      "type": "function"
    },
    {
      "inputs": [
        {
          "internalType": "uint256",
          "name": "_quantity",
          "type": "uint256"
        }
      ],
      "name": "getPrice",
      "outputs": [
        {
          "internalType": "uint256",
          "name": "price",
          "type": "uint256"
        }
      ],
      "stateMutability": "view",
      "type": "function"
    },
    {
      "inputs": [
        {
          "internalType": "bytes32",
          "name": "role",
          "type": "bytes32"
        }
      ],
      "name": "getRoleAdmin",
      "outputs": [
        {
          "internalType": "bytes32",
          "name": "",
          "type": "bytes32"
        }
      ],
      "stateMutability": "view",
      "type": "function"
    },
    {
      "inputs": [
        {
          "internalType": "bytes32",
          "name": "role",
          "type": "bytes32"
        },
        {
          "internalType": "address",
          "name": "account",
          "type": "address"
        }
      ],
      "name": "grantRole",
      "outputs": [],
      "stateMutability": "nonpayable",
      "type": "function"
    },
    {
      "inputs": [
        {
          "internalType": "bytes32",
          "name": "role",
          "type": "bytes32"
        },
        {
          "internalType": "address",
          "name": "account",
          "type": "address"
        }
      ],
      "name": "hasRole",
      "outputs": [
        {
          "internalType": "bool",
          "name": "",
          "type": "bool"
        }
      ],
      "stateMutability": "view",
      "type": "function"
    },
    {
      "inputs": [],
      "name": "initialPrice",
      "outputs": [
        {
          "internalType": "uint256",
          "name": "",
          "type": "uint256"
        }
      ],
      "stateMutability": "view",
      "type": "function"
    },
    {
      "inputs": [
        {
          "internalType": "address",
          "name": "_aliveRegistry",
          "type": "address"
        },
        {
          "internalType": "address",
          "name": "_royaltyReceiverSecondary",
          "type": "address"
        },
        {
          "internalType": "uint96",
          "name": "_royaltyFeesInBips",
          "type": "uint96"
        },
        {
          "internalType": "address",
          "name": "_royaltyReceiverSplit",
          "type": "address"
        },
        {
          "internalType": "uint96",
          "name": "_offchainRoyaltyPercentageInBips",
          "type": "uint96"
        },
        {
          "internalType": "string",
          "name": "_songURI",
          "type": "string"
        },
        {
          "internalType": "string",
          "name": "_contractURI",
          "type": "string"
        },
        {
          "internalType": "address",
          "name": "_artist",
          "type": "address"
        },
        {
          "internalType": "uint256",
          "name": "_songId",
          "type": "uint256"
        },
        {
          "internalType": "uint256[3]",
          "name": "_songInfos",
          "type": "uint256[3]"
        }
      ],
      "name": "initialize",
      "outputs": [],
      "stateMutability": "nonpayable",
      "type": "function"
    },
    {
      "inputs": [
        {
          "internalType": "address",
          "name": "owner",
          "type": "address"
        },
        {
          "internalType": "address",
          "name": "operator",
          "type": "address"
        }
      ],
      "name": "isApprovedForAll",
      "outputs": [
        {
          "internalType": "bool",
          "name": "",
          "type": "bool"
        }
      ],
      "stateMutability": "view",
      "type": "function"
    },
    {
      "inputs": [],
      "name": "maxMintAmount",
      "outputs": [
        {
          "internalType": "uint256",
          "name": "",
          "type": "uint256"
        }
      ],
      "stateMutability": "view",
      "type": "function"
    },
    {
      "inputs": [
        {
          "internalType": "address",
          "name": "_to",
          "type": "address"
        },
        {
          "internalType": "uint256",
          "name": "_quantity",
          "type": "uint256"
        }
      ],
      "name": "mint",
      "outputs": [],
      "stateMutability": "payable",
      "type": "function"
    },
    {
      "inputs": [],
      "name": "mintRoyaltyReceiver",
      "outputs": [
        {
          "internalType": "address",
          "name": "",
          "type": "address"
        }
      ],
      "stateMutability": "view",
      "type": "function"
    },
    {
      "inputs": [
        {
          "internalType": "uint256",
          "name": "_tokenId",
          "type": "uint256"
        }
      ],
      "name": "myTotalBalance",
      "outputs": [
        {
          "internalType": "uint256",
          "name": "",
          "type": "uint256"
        }
      ],
      "stateMutability": "view",
      "type": "function"
    },
    {
      "inputs": [],
      "name": "name",
      "outputs": [
        {
          "internalType": "string",
          "name": "",
          "type": "string"
        }
      ],
      "stateMutability": "view",
      "type": "function"
    },
    {
      "inputs": [],
      "name": "newDrop",
      "outputs": [],
      "stateMutability": "payable",
      "type": "function"
    },
    {
      "inputs": [],
      "name": "offchainRoyaltyPercentageInBips",
      "outputs": [
        {
          "internalType": "uint256",
          "name": "",
          "type": "uint256"
        }
      ],
      "stateMutability": "view",
      "type": "function"
    },
    {
      "inputs": [
        {
          "internalType": "uint256",
          "name": "tokenId",
          "type": "uint256"
        }
      ],
      "name": "ownerOf",
      "outputs": [
        {
          "internalType": "address",
          "name": "",
          "type": "address"
        }
      ],
      "stateMutability": "view",
      "type": "function"
    },
    {
      "inputs": [],
      "name": "pause",
      "outputs": [],
      "stateMutability": "nonpayable",
      "type": "function"
    },
    {
      "inputs": [],
      "name": "paused",
      "outputs": [
        {
          "internalType": "bool",
          "name": "",
          "type": "bool"
        }
      ],
      "stateMutability": "view",
      "type": "function"
    },
    {
      "inputs": [
        {
          "internalType": "bytes32",
          "name": "role",
          "type": "bytes32"
        },
        {
          "internalType": "address",
          "name": "account",
          "type": "address"
        }
      ],
      "name": "renounceRole",
      "outputs": [],
      "stateMutability": "nonpayable",
      "type": "function"
    },
    {
      "inputs": [
        {
          "internalType": "bytes32",
          "name": "role",
          "type": "bytes32"
        },
        {
          "internalType": "address",
          "name": "account",
          "type": "address"
        }
      ],
      "name": "revokeRole",
      "outputs": [],
      "stateMutability": "nonpayable",
      "type": "function"
    },
    {
      "inputs": [
        {
          "internalType": "uint256",
          "name": "_tokenId",
          "type": "uint256"
        },
        {
          "internalType": "uint256",
          "name": "_salePrice",
          "type": "uint256"
        }
      ],
      "name": "royaltyInfo",
      "outputs": [
        {
          "internalType": "address",
          "name": "",
          "type": "address"
        },
        {
          "internalType": "uint256",
          "name": "",
          "type": "uint256"
        }
      ],
      "stateMutability": "view",
      "type": "function"
    },
    {
      "inputs": [
        {
          "internalType": "address",
          "name": "from",
          "type": "address"
        },
        {
          "internalType": "address",
          "name": "to",
          "type": "address"
        },
        {
          "internalType": "uint256",
          "name": "tokenId",
          "type": "uint256"
        }
      ],
      "name": "safeTransferFrom",
      "outputs": [],
      "stateMutability": "nonpayable",
      "type": "function"
    },
    {
      "inputs": [
        {
          "internalType": "address",
          "name": "from",
          "type": "address"
        },
        {
          "internalType": "address",
          "name": "to",
          "type": "address"
        },
        {
          "internalType": "uint256",
          "name": "tokenId",
          "type": "uint256"
        },
        {
          "internalType": "bytes",
          "name": "_data",
          "type": "bytes"
        }
      ],
      "name": "safeTransferFrom",
      "outputs": [],
      "stateMutability": "nonpayable",
      "type": "function"
    },
    {
      "inputs": [
        {
          "internalType": "address",
          "name": "operator",
          "type": "address"
        },
        {
          "internalType": "bool",
          "name": "approved",
          "type": "bool"
        }
      ],
      "name": "setApprovalForAll",
      "outputs": [],
      "stateMutability": "nonpayable",
      "type": "function"
    },
    {
      "inputs": [
        {
          "internalType": "string",
          "name": "_uri",
          "type": "string"
        }
      ],
      "name": "setContractURI",
      "outputs": [],
      "stateMutability": "nonpayable",
      "type": "function"
    },
    {
      "inputs": [
        {
          "internalType": "uint256",
          "name": "_tokenId",
          "type": "uint256"
        },
        {
          "internalType": "address payable",
          "name": "_royaltiesReceipientAddress",
          "type": "address"
        },
        {
          "internalType": "uint96",
          "name": "_percentageBasisPoints",
          "type": "uint96"
        }
      ],
      "name": "setRoyalties",
      "outputs": [],
      "stateMutability": "nonpayable",
      "type": "function"
    },
    {
      "inputs": [
        {
          "internalType": "string",
          "name": "_uri",
          "type": "string"
        }
      ],
      "name": "setURI",
      "outputs": [],
      "stateMutability": "nonpayable",
      "type": "function"
    },
    {
      "inputs": [],
      "name": "songId",
      "outputs": [
        {
          "internalType": "uint256",
          "name": "",
          "type": "uint256"
        }
      ],
      "stateMutability": "view",
      "type": "function"
    },
    {
      "inputs": [],
      "name": "songType",
      "outputs": [
        {
          "internalType": "uint8",
          "name": "",
          "type": "uint8"
        }
      ],
      "stateMutability": "view",
      "type": "function"
    },
    {
      "inputs": [],
      "name": "startedAt",
      "outputs": [
        {
          "internalType": "uint256",
          "name": "",
          "type": "uint256"
        }
      ],
      "stateMutability": "view",
      "type": "function"
    },
    {
      "inputs": [
        {
          "internalType": "bytes4",
          "name": "interfaceId",
          "type": "bytes4"
        }
      ],
      "name": "supportsInterface",
      "outputs": [
        {
          "internalType": "bool",
          "name": "",
          "type": "bool"
        }
      ],
      "stateMutability": "view",
      "type": "function"
    },
    {
      "inputs": [],
      "name": "symbol",
      "outputs": [
        {
          "internalType": "string",
          "name": "",
          "type": "string"
        }
      ],
      "stateMutability": "view",
      "type": "function"
    },
    {
      "inputs": [
        {
          "internalType": "uint256",
          "name": "tokenId",
          "type": "uint256"
        }
      ],
      "name": "tokenURI",
      "outputs": [
        {
          "internalType": "string",
          "name": "",
          "type": "string"
        }
      ],
      "stateMutability": "view",
      "type": "function"
    },
    {
      "inputs": [],
      "name": "totalSupply",
      "outputs": [
        {
          "internalType": "uint256",
          "name": "",
          "type": "uint256"
        }
      ],
      "stateMutability": "view",
      "type": "function"
    },
    {
      "inputs": [
        {
          "internalType": "address",
          "name": "from",
          "type": "address"
        },
        {
          "internalType": "address",
          "name": "to",
          "type": "address"
        },
        {
          "internalType": "uint256",
          "name": "tokenId",
          "type": "uint256"
        }
      ],
      "name": "transferFrom",
      "outputs": [],
      "stateMutability": "nonpayable",
      "type": "function"
    },
    {
      "inputs": [],
      "name": "unpause",
      "outputs": [],
      "stateMutability": "nonpayable",
      "type": "function"
    },
    {
      "inputs": [
        {
          "internalType": "address",
          "name": "receiver",
          "type": "address"
        },
        {
          "internalType": "uint96",
          "name": "feeNumerator",
          "type": "uint96"
        }
      ],
      "name": "updateRoyalty",
      "outputs": [],
      "stateMutability": "nonpayable",
      "type": "function"
    },
    {
      "inputs": [
        {
          "internalType": "uint256",
          "name": "time",
          "type": "uint256"
        }
      ],
      "name": "updateStartAt",
      "outputs": [],
      "stateMutability": "nonpayable",
      "type": "function"
    }
  ],
  "bytecode": "0x608060405234801561001057600080fd5b50614413806100206000396000f3fe6080604052600436106103505760003560e01c80636352211e116101c6578063b88d4fde116100f7578063e8a3d48511610095578063f21f537d1161006f578063f21f537d14610a0d578063f50c7e4114610a24578063f52308d714610a2c578063fe2233be14610a4c57600080fd5b8063e8a3d485146109ab578063e985e9c5146109c0578063e9fda7d4146109e057600080fd5b8063cc942bad116100d1578063cc942bad1461092a578063d547741f1461094b578063daa83c6d1461096b578063e75722301461098b57600080fd5b8063b88d4fde146108bd578063c7c8b7fd146108dd578063c87b56dd1461090a57600080fd5b8063942aa5ae11610164578063a217fddf1161013e578063a217fddf14610850578063a22cb46514610865578063a54d02ff14610885578063ad5b882c1461089c57600080fd5b8063942aa5ae146107d357806395d89b41146107f35780639d45c3f71461080857600080fd5b80638456cb59116101a05780638456cb59146107675780639129f7cf1461077c57806391d1485414610793578063938e3d7b146107b357600080fd5b80636352211e14610707578063678e1d941461072757806370a082311461074757600080fd5b806323b872dd116102a05780633c2726d41161023e57806342842e0e1161021857806342842e0e1461068f57806342966c68146106af57806358579f6f146106cf5780635c975abb146106ef57600080fd5b80633c2726d4146106475780633f4ba83a1461066757806340c10f191461067c57600080fd5b80632a55205a1161027a5780632a55205a146105b35780632f2ff15d146105f257806336568abe1461061257806337929eb41461063257600080fd5b806323b872dd14610543578063248a9ca314610563578063288b6a471461059357600080fd5b80631007c8e91161030d57806318160ddd116102e757806318160ddd146104d05780631d0806ae146104f3578063222be9301461050a578063239c70ae1461052c57600080fd5b80631007c8e91461045357806310ea891a1461048f578063143094db146104b057600080fd5b806301ffc9a71461035557806302fe53051461038a57806306fdde03146103ac578063081812fc146103ce57806308c6959914610406578063095ea7b314610433575b600080fd5b34801561036157600080fd5b50610375610370366004613deb565b610a6c565b60405190151581526020015b60405180910390f35b34801561039657600080fd5b506103aa6103a5366004613e23565b610a8c565b005b3480156103b857600080fd5b506103c1610b2e565b60405161038191906140d3565b3480156103da57600080fd5b506103ee6103e9366004613daf565b610bc9565b6040516001600160a01b039091168152602001610381565b34801561041257600080fd5b50610426610421366004613daf565b610c16565b6040516103819190613fe7565b34801561043f57600080fd5b506103aa61044e366004613c7a565b610cee565b34801561045f57600080fd5b5061037561046e366004613eab565b61012d60209081526000928352604080842090915290825290205460ff1681565b34801561049b57600080fd5b50610130546103ee906001600160a01b031681565b3480156104bc57600080fd5b506103aa6104cb366004613e6e565b610d9c565b3480156104dc57600080fd5b506104e5610e36565b604051908152602001610381565b3480156104ff57600080fd5b506104e56101395481565b34801561051657600080fd5b5061051f610e56565b604051610381919061402d565b34801561053857600080fd5b506104e56101345481565b34801561054f57600080fd5b506103aa61055e366004613aae565b610ee8565b34801561056f57600080fd5b506104e561057e366004613daf565b60009081526097602052604090206001015490565b34801561059f57600080fd5b506103756105ae366004613eab565b6110d7565b3480156105bf57600080fd5b506105d36105ce366004613eab565b611221565b604080516001600160a01b039093168352602083019190915201610381565b3480156105fe57600080fd5b506103aa61060d366004613dc7565b6112cd565b34801561061e57600080fd5b506103aa61062d366004613dc7565b6112f3565b34801561063e57600080fd5b506103c161136d565b34801561065357600080fd5b506104e5610662366004613daf565b61137d565b34801561067357600080fd5b506103aa6114b7565b6103aa61068a366004613c7a565b61158d565b34801561069b57600080fd5b506103aa6106aa366004613aae565b611ab7565b3480156106bb57600080fd5b506103aa6106ca366004613daf565b611ad2565b3480156106db57600080fd5b506103aa6106ea366004613b6b565b611ae0565b3480156106fb57600080fd5b5060c95460ff16610375565b34801561071357600080fd5b506103ee610722366004613daf565b611de6565b34801561073357600080fd5b506103aa610742366004613daf565b611df1565b34801561075357600080fd5b506104e5610762366004613a3e565b611e81565b34801561077357600080fd5b506103aa611eea565b34801561078857600080fd5b506104e56101335481565b34801561079f57600080fd5b506103756107ae366004613dc7565b611fbe565b3480156107bf57600080fd5b506103aa6107ce366004613e23565b611fe9565b3480156107df57600080fd5b506103756107ee366004613daf565b612087565b3480156107ff57600080fd5b506103c1612202565b34801561081457600080fd5b50610828610823366004613daf565b61221a565b604080519586526020860194909452928401919091526060830152608082015260a001610381565b34801561085c57600080fd5b506104e5600081565b34801561087157600080fd5b506103aa610880366004613c4d565b61225c565b34801561089157600080fd5b506104e56101375481565b3480156108a857600080fd5b5061012f546103ee906001600160a01b031681565b3480156108c957600080fd5b506103aa6108d8366004613aee565b612303565b3480156108e957600080fd5b50610138546108f89060ff1681565b60405160ff9091168152602001610381565b34801561091657600080fd5b506103c1610925366004613daf565b61234d565b34801561093657600080fd5b5061012e546103ee906001600160a01b031681565b34801561095757600080fd5b506103aa610966366004613dc7565b6123c8565b34801561097757600080fd5b506103aa610986366004613ca5565b6123ee565b34801561099757600080fd5b506104e56109a6366004613daf565b612482565b3480156109b757600080fd5b506103c1612493565b3480156109cc57600080fd5b506103756109db366004613a76565b612522565b3480156109ec57600080fd5b50610a006109fb366004613a3e565b61255f565b604051610381919061409b565b348015610a1957600080fd5b506104e561013a5481565b6103aa61265b565b348015610a3857600080fd5b506104e5610a47366004613c7a565b612926565b348015610a5857600080fd5b506103aa610a67366004613cd9565b612958565b6000610a7782612ada565b80610a865750610a8682612b28565b92915050565b61012e5460405163082b9f9760e11b81523360048201526001600160a01b03909116906310573f2e9060240160206040518083038186803b158015610ad057600080fd5b505afa158015610ae4573d6000803e3d6000fd5b505050506040513d601f19601f82011682018060405250810190610b089190613d93565b1515600114610b1657600080fd5b8051610b2a90610131906020840190613894565b5050565b6060610b38612b5d565b6002018054610b46906142b8565b80601f0160208091040260200160405190810160405280929190818152602001828054610b72906142b8565b8015610bbf5780601f10610b9457610100808354040283529160200191610bbf565b820191906000526020600020905b815481529060010190602001808311610ba257829003601f168201915b5050505050905090565b6000610bd482612b81565b610bf1576040516333d1c03960e21b815260040160405180910390fd5b610bf9612b5d565b60009283526006016020525060409020546001600160a01b031690565b6101355460609060008167ffffffffffffffff811115610c4657634e487b7160e01b600052604160045260246000fd5b604051908082528060200260200182016040528015610c6f578160200160208202803683370190505b50905060015b828111610ce657600081815261012d6020908152604080832088845290915290205460ff1682610ca660018461425e565b81518110610cc457634e487b7160e01b600052603260045260246000fd5b9115156020928302919091019091015280610cde816142f3565b915050610c75565b509392505050565b6000610cf982611de6565b9050336001600160a01b03821614610d3257610d158133612522565b610d32576040516367d9dca160e11b815260040160405180910390fd5b82610d3b612b5d565b6000848152600691909101602052604080822080546001600160a01b0319166001600160a01b0394851617905551849286811692908516917f8c5be1e5ebec7d5bd14f71427d1e84f3dd0314c0f7b2291e5b200ac8c7c3b9259190a4505050565b61012e5460405163082b9f9760e11b81523360048201526001600160a01b03909116906310573f2e9060240160206040518083038186803b158015610de057600080fd5b505afa158015610df4573d6000803e3d6000fd5b505050506040513d601f19601f82011682018060405250810190610e189190613d93565b1515600114610e2657600080fd5b610e31838383612bca565b505050565b60006001610e42612b5d565b60010154610e4e612b5d565b540303919050565b6060610135805480602002602001604051908101604052809291908181526020016000905b82821015610edf57838290600052602060002090600502016040518060a00160405290816000820154815260200160018201548152602001600282015481526020016003820154815260200160048201548152505081526020019060010190610e7b565b50505050905090565b6000610ef382612c95565b9050836001600160a01b0316816001600160a01b031614610f265760405162a1148160e81b815260040160405180910390fd5b600080610f3284612d24565b91509150610f578187610f423390565b6001600160a01b039081169116811491141790565b610f8257610f658633612522565b610f8257604051632ce44b5f60e11b815260040160405180910390fd5b6001600160a01b038516610fa957604051633a954ecd60e21b815260040160405180910390fd5b8015610fb457600082555b610fbc612b5d565b6001600160a01b0387166000908152600591909101602052604090208054600019019055610fe8612b5d565b6001600160a01b03861660008181526005929092016020526040909120805460010190554260a01b17600160e11b1761101f612b5d565b60008681526004919091016020526040902055600160e11b831661108e5760018401611049612b5d565b6000828152600491909101602052604090205461108c57611068612b5d565b54811461108c5783611078612b5d565b600083815260049190910160205260409020555b505b83856001600160a01b0316876001600160a01b03167fddf252ad1be2c89b69c2b068fc378daa952ba7f163c4a11628f55a4df523b3ef60405160405180910390a4505050505050565b6000600260fb5414156111055760405162461bcd60e51b81526004016110fc906141ab565b60405180910390fd5b600260fb55610135548311156111525760405162461bcd60e51b8152602060048201526012602482015271111c9bdc08191bd95cdb89dd08195e1a5cdd60721b60448201526064016110fc565b61013561116060018561425e565b8154811061117e57634e487b7160e01b600052603260045260246000fd5b9060005260206000209060050201600401546101356001856111a0919061425e565b815481106111be57634e487b7160e01b600052603260045260246000fd5b9060005260206000209060050201600301541061120a5760405162461bcd60e51b815260206004820152600a60248201526944726f7020656d70747960b01b60448201526064016110fc565b6112148383612d4c565b5060018060fb5592915050565b60008281526066602090815260408083208151808301909252546001600160a01b038116808352600160a01b9091046001600160601b03169282019290925282916112965750604080518082019091526065546001600160a01b0381168252600160a01b90046001600160601b031660208201525b6020810151600090612710906112b5906001600160601b03168761423f565b6112bf919061422b565b915196919550909350505050565b6000828152609760205260409020600101546112e98133612f28565b610e318383612f8c565b6001600160a01b03811633146113635760405162461bcd60e51b815260206004820152602f60248201527f416363657373436f6e74726f6c3a2063616e206f6e6c792072656e6f756e636560448201526e103937b632b9903337b91039b2b63360891b60648201526084016110fc565b610b2a8282613012565b60606101328054610b46906142b8565b610135546000906113bf5760405162461bcd60e51b815260206004820152600c60248201526b1b9bc8191c9bdc1cc81e595d60a21b60448201526064016110fc565b60006001805b6101355481116114ae5761013560018203815481106113f457634e487b7160e01b600052603260045260246000fd5b906000526020600020906005020160040154610135600183038154811061142b57634e487b7160e01b600052603260045260246000fd5b9060005260206000209060050201600301541080156114655750600081815261012d6020908152604080832088845290915290205460ff16155b156114a657610135600182038154811061148f57634e487b7160e01b600052603260045260246000fd5b906000526020600020906005020160020154830192505b6001016113c5565b50909392505050565b61012e5460405163082b9f9760e11b81523360048201526001600160a01b03909116906310573f2e9060240160206040518083038186803b1580156114fb57600080fd5b505afa15801561150f573d6000803e3d6000fd5b505050506040513d601f19601f820116820180604052508101906115339190613d93565b151560011480611556575061155660008051602061439e83398151915233611fbe565b806115675750611567600033611fbe565b6115835760405162461bcd60e51b81526004016110fc9061413a565b61158b613079565b565b60c95460ff16156115d35760405162461bcd60e51b815260206004820152601060248201526f14185d5cd8589b194e881c185d5cd95960821b60448201526064016110fc565b600260fb5414156115f65760405162461bcd60e51b81526004016110fc906141ab565b600260fb5561013a54421161160a57600080fd5b61012e54610138546040516303f195e360e41b815260ff90911660048201526001600160a01b0390911690633f195e309060240160206040518083038186803b15801561165657600080fd5b505afa15801561166a573d6000803e3d6000fd5b505050506040513d601f19601f8201168201806040525081019061168e9190613e56565b81106116f15760405162461bcd60e51b815260206004820152602c60248201527f596f752063616e206d696e7420536f6e6773206d6f7265207468616e204c696d60448201526b697420706572206d696e742160a01b60648201526084016110fc565b61013454816116fe610e36565b6117089190614213565b11156117565760405162461bcd60e51b815260206004820152601b60248201527f43616e2774206d696e74206d6f7265207468616e204c696d697421000000000060448201526064016110fc565b600081116117a65760405162461bcd60e51b815260206004820152601a60248201527f596f75206d757374206d696e74206d6f7265207468616e20302100000000000060448201526064016110fc565b60006117b182612482565b9050803410156117f95760405162461bcd60e51b8152602060048201526013602482015272496e73756666696369656e742066756e64732160681b60448201526064016110fc565b8034111561183957336108fc61180f833461425e565b6040518115909202916000818181858888f19350505050158015611837573d6000803e3d6000fd5b505b61012e5460408051631ff5bc5760e21b815290516000926001600160a01b031691637fd6f15c916004808301926020929190829003018186803b15801561187f57600080fd5b505afa158015611893573d6000803e3d6000fd5b505050506040513d601f19601f820116820180604052508101906118b79190613ecc565b60ff169050600060646118ca838561423f565b6118d4919061422b565b905061012e60009054906101000a90046001600160a01b03166001600160a01b0316630214a0216040518163ffffffff1660e01b815260040160206040518083038186803b15801561192557600080fd5b505afa158015611939573d6000803e3d6000fd5b505050506040513d601f19601f8201168201806040525081019061195d9190613a5a565b6001600160a01b03166108fc829081150290604051600060405180830381858888f19350505050158015611995573d6000803e3d6000fd5b5061012f546001600160a01b03166108fc6119b0838661425e565b6040518115909202916000818181858888f193505050501580156119d8573d6000803e3d6000fd5b5060006119e3610e36565b90506119ef868661310c565b60005b85811015611a50576001600160a01b038716600090815261013660205260409020611a1d8284614213565b611a28906001614213565b8154600181018355600092835260209092209091015580611a48816142f3565b9150506119f2565b507f604068490629504047613c80d2350f62dca38c81f8a5fbcc10f2be65f246a9438686611a7c610e36565b604080516001600160a01b03909416845260208401929092529082015230606082015260800160405180910390a15050600160fb5550505050565b610e3183838360405180602001604052806000815250612303565b611add816001613219565b50565b600054610100900460ff16611afb5760005460ff1615611aff565b303b155b611b625760405162461bcd60e51b815260206004820152602e60248201527f496e697469616c697a61626c653a20636f6e747261637420697320616c72656160448201526d191e481a5b9a5d1a585b1a5e995960921b60648201526084016110fc565b600054610100900460ff16158015611b84576000805461ffff19166101011790555b6000805160206143be83398151915254610100900460ff16611bb9576000805160206143be8339815191525460ff1615611bbd565b303b155b611c2f5760405162461bcd60e51b815260206004820152603760248201527f455243373231415f5f496e697469616c697a61626c653a20636f6e747261637460448201527f20697320616c726561647920696e697469616c697a656400000000000000000060648201526084016110fc565b6000805160206143be83398151915254610100900460ff16158015611c6b576000805160206143be833981519152805461ffff19166101011790555b611caf60405180604001604052806007815260200166416c697665453160c81b8152506040518060400160405280600381526020016241453160e81b815250613393565b611cba600086612f8c565b611cd260008051602061439e83398151915286612f8c565b611cfc7f65d7a28e3265b37a6474929f336521b332c1681b933f6cb9f3376673440d862a86612f8c565b6101308054336001600160a01b03199182161790915561012e805482166001600160a01b038f81169190911790915561012f8054909216908b161790556001600160601b03881661013355611d518b8b6133d1565b6101378490558651611d6b906101319060208a0190613894565b508551611d8090610132906020890190613894565b50610138805460ff19166001179055825161013455602083015161013955604083015161013a558015611dc6576000805160206143be833981519152805461ff00191690555b508015611dd9576000805461ff00191690555b5050505050505050505050565b6000610a8682612c95565b61012e5460405163082b9f9760e11b81523360048201526001600160a01b03909116906310573f2e9060240160206040518083038186803b158015611e3557600080fd5b505afa158015611e49573d6000803e3d6000fd5b505050506040513d601f19601f82011682018060405250810190611e6d9190613d93565b1515600114611e7b57600080fd5b61013a55565b60006001600160a01b038216611eaa576040516323d3ad8160e21b815260040160405180910390fd5b67ffffffffffffffff611ebb612b5d565b6005016000846001600160a01b03166001600160a01b0316815260200190815260200160002054169050919050565b61012e5460405163082b9f9760e11b81523360048201526001600160a01b03909116906310573f2e9060240160206040518083038186803b158015611f2e57600080fd5b505afa158015611f42573d6000803e3d6000fd5b505050506040513d601f19601f82011682018060405250810190611f669190613d93565b151560011480611f895750611f8960008051602061439e83398151915233611fbe565b80611f9a5750611f9a600033611fbe565b611fb65760405162461bcd60e51b81526004016110fc9061413a565b61158b61348b565b60009182526097602090815260408084206001600160a01b0393909316845291905290205460ff1690565b61012e5460405163082b9f9760e11b81523360048201526001600160a01b03909116906310573f2e9060240160206040518083038186803b15801561202d57600080fd5b505afa158015612041573d6000803e3d6000fd5b505050506040513d601f19601f820116820180604052508101906120659190613d93565b151560011461207357600080fd5b8051610b2a90610132906020840190613894565b6000600260fb5414156120ac5760405162461bcd60e51b81526004016110fc906141ab565b600260fb55610135546120f05760405162461bcd60e51b815260206004820152600c60248201526b139bc8191c9bdc1cc81e595d60a21b60448201526064016110fc565b60015b6101355481116121aa57600081815261012d6020908152604080832086845290915290205460ff161580156121935750610135600182038154811061214857634e487b7160e01b600052603260045260246000fd5b906000526020600020906005020160040154610135600183038154811061217f57634e487b7160e01b600052603260045260246000fd5b906000526020600020906005020160030154105b156121a2576121a28184612d4c565b6001016120f3565b507fc8d822c89968f73aa167a9d5674842ed0061ebb408251f640f72e72d6ecc3fda6121d583611de6565b604080516001600160a01b039092168252602082018590520160405180910390a15060018060fb55919050565b606061220c612b5d565b6003018054610b46906142b8565b610135818154811061222b57600080fd5b6000918252602090912060059091020180546001820154600283015460038401546004909401549294509092909185565b6001600160a01b0382163314156122865760405163b06307db60e01b815260040160405180910390fd5b8061228f612b5d565b336000818152600792909201602090815260408084206001600160a01b03881680865290835293819020805460ff19169515159590951790945592518415158152919290917f17307eab39ab6107e8899845ad3d59bd9653f200f220920489ca2b5937696c31910160405180910390a35050565b61230e848484610ee8565b6001600160a01b0383163b156123475761232a84848484613506565b612347576040516368d2bf6b60e11b815260040160405180910390fd5b50505050565b606061235882612b81565b61237557604051630a14c4b560e41b815260040160405180910390fd5b600061237f6135fe565b90508051600014156123a057604051806020016040528060008152506123c1565b806040516020016123b19190613f19565b6040516020818303038152906040525b9392505050565b6000828152609760205260409020600101546123e48133612f28565b610e318383613012565b61012e5460405163082b9f9760e11b81523360048201526001600160a01b03909116906310573f2e9060240160206040518083038186803b15801561243257600080fd5b505afa158015612446573d6000803e3d6000fd5b505050506040513d601f19601f8201168201806040525081019061246a9190613d93565b151560011461247857600080fd5b610b2a82826133d1565b60008161013954610a86919061423f565b61013280546124a1906142b8565b80601f01602080910402602001604051908101604052809291908181526020018280546124cd906142b8565b801561251a5780601f106124ef5761010080835404028352916020019161251a565b820191906000526020600020905b8154815290600101906020018083116124fd57829003601f168201915b505050505081565b600061252c612b5d565b6001600160a01b039384166000908152600791909101602090815260408083209490951682529290925250205460ff1690565b6001600160a01b038116600090815261013660205260408120546060918167ffffffffffffffff8111156125a357634e487b7160e01b600052604160045260246000fd5b6040519080825280602002602001820160405280156125cc578160200160208202803683370190505b50905060005b82811015610ce6576001600160a01b03851660009081526101366020526040902080548290811061261357634e487b7160e01b600052603260045260246000fd5b906000526020600020015482828151811061263e57634e487b7160e01b600052603260045260246000fd5b602090810291909101015280612653816142f3565b9150506125d2565b61012e5460405163082b9f9760e11b81523360048201526001600160a01b03909116906310573f2e9060240160206040518083038186803b15801561269f57600080fd5b505afa1580156126b3573d6000803e3d6000fd5b505050506040513d601f19601f820116820180604052508101906126d79190613d93565b1515600114806126fa57506126fa60008051602061439e83398151915233611fbe565b8061270b575061270b600033611fbe565b6127275760405162461bcd60e51b81526004016110fc9061413a565b670de0b6b3a764000034116127935760405162461bcd60e51b815260206004820152602c60248201527f4d696e2064726f7020616d6f756e74206d75737420626520626967676572207460448201526b68616e20312065746865722160a01b60648201526084016110fc565b60006127a6346127a1610e36565b61360e565b610135549091506000906127bb906001614213565b905060006040518060a00160405280838152602001348152602001848152602001600081526020016127eb610e36565b9052610135805460018101825560009190915281517fdf37d27e88e3bd0b85262482997e409a463f5be0ebb19232abf994dd8474090d60059092029182015560208201517fdf37d27e88e3bd0b85262482997e409a463f5be0ebb19232abf994dd8474090e82015560408201517fdf37d27e88e3bd0b85262482997e409a463f5be0ebb19232abf994dd8474090f82015560608201517fdf37d27e88e3bd0b85262482997e409a463f5be0ebb19232abf994dd8474091082015560808201517fdf37d27e88e3bd0b85262482997e409a463f5be0ebb19232abf994dd847409119091015590506128d9610e36565b6128e3903461430e565b15610e3157336108fc6128f4610e36565b6128fe903461430e565b6040518115909202916000818181858888f19350505050158015612347573d6000803e3d6000fd5b610136602052816000526040600020818154811061294357600080fd5b90600052602060002001600091509150505481565b61012e5460405163082b9f9760e11b81523360048201526001600160a01b03909116906310573f2e9060240160206040518083038186803b15801561299c57600080fd5b505afa1580156129b0573d6000803e3d6000fd5b505050506040513d601f19601f820116820180604052508101906129d49190613d93565b1515600114806129f757506129f760008051602061439e83398151915233611fbe565b80612a085750612a08600033611fbe565b612a245760405162461bcd60e51b81526004016110fc9061413a565b61013454818351612a35919061423f565b612a3d610e36565b612a479190614213565b1115612a955760405162461bcd60e51b815260206004820152601b60248201527f63616e2774206d696e74206d6f7265207468616e20737570706c79000000000060448201526064016110fc565b60005b8251811015610e3157612ad2838281518110612ac457634e487b7160e01b600052603260045260246000fd5b60200260200101518361310c565b600101612a98565b60006301ffc9a760e01b6001600160e01b031983161480612b0b57506380ac58cd60e01b6001600160e01b03198316145b80610a865750506001600160e01b031916635b5e139f60e01b1490565b60006001600160e01b0319821663152a902d60e11b1480610a8657506301ffc9a760e01b6001600160e01b0319831614610a86565b7f2569078dfb4b0305704d3008e7403993ae9601b85f7ae5e742de3de8f8011c4090565b600081600111158015612b9b5750612b97612b5d565b5482105b8015610a865750600160e01b612baf612b5d565b60008481526004919091016020526040902054161592915050565b6127106001600160601b0382161115612bf55760405162461bcd60e51b81526004016110fc90614161565b6001600160a01b038216612c4b5760405162461bcd60e51b815260206004820152601b60248201527f455243323938313a20496e76616c696420706172616d6574657273000000000060448201526064016110fc565b6040805180820182526001600160a01b0393841681526001600160601b0392831660208083019182526000968752606690529190942093519051909116600160a01b029116179055565b60008180600111612d0b57612ca8612b5d565b54811015612d0b576000612cba612b5d565b600083815260049190910160205260409020549050600160e01b8116612d09575b806123c157612ce8612b5d565b60001990920160008181526004939093016020526040909220549050612cdb565b505b604051636f96cda160e11b815260040160405180910390fd5b6000806000612d31612b5d565b60009485526006016020525050604090912080549092909150565b600082815261012d6020908152604080832084845290915290205460ff1615612da95760405162461bcd60e51b815260206004820152600f60248201526e105b1c9958591e4818db185a5b5959608a1b60448201526064016110fc565b612db281611de6565b6001600160a01b03166108fc610135612dcc60018661425e565b81548110612dea57634e487b7160e01b600052603260045260246000fd5b9060005260206000209060050201600201549081150290604051600060405180830381858888f19350505050158015612e27573d6000803e3d6000fd5b50600082815261012d602090815260408083208484529091529020805460ff191660011790557fc4eb2a79938c9ef60d6162cf270d0ae3369b01dc2adaa2d48a8416e760c8e0dd612e7782611de6565b8383610135612e8760018461425e565b81548110612ea557634e487b7160e01b600052603260045260246000fd5b600091825260209182902060026005909202010154604080516001600160a01b03909616865291850193909352830152606082015260800160405180910390a16101356001830381548110612f0a57634e487b7160e01b600052603260045260246000fd5b60009182526020909120600360059092020101805460010190555050565b612f328282611fbe565b610b2a57612f4a816001600160a01b0316601461362f565b612f5583602061362f565b604051602001612f66929190613f35565b60408051601f198184030181529082905262461bcd60e51b82526110fc916004016140d3565b612f968282611fbe565b610b2a5760008281526097602090815260408083206001600160a01b03851684529091529020805460ff19166001179055612fce3390565b6001600160a01b0316816001600160a01b0316837f2f8788117e7eff1d82e926ec794901d17c78024a50270940304540a733656f0d60405160405180910390a45050565b61301c8282611fbe565b15610b2a5760008281526097602090815260408083206001600160a01b0385168085529252808320805460ff1916905551339285917ff6391f5c32d9c69d2a47ea670b442974b53935d1edc7fd64eb21e047a839171b9190a45050565b60c95460ff166130c25760405162461bcd60e51b815260206004820152601460248201527314185d5cd8589b194e881b9bdd081c185d5cd95960621b60448201526064016110fc565b60c9805460ff191690557f5db9ee0a495bf2e6ff9c91a7834c1ba4fdd244a5e8aa4e537bd38aeae4b073aa335b6040516001600160a01b03909116815260200160405180910390a1565b6000613116612b5d565b5490506001600160a01b03831661313f57604051622e076360e81b815260040160405180910390fd5b8161315d5760405163b562e8dd60e01b815260040160405180910390fd5b680100000000000000018202613171612b5d565b6001600160a01b038516600081815260059290920160205260409091208054929092019091554260a01b6001841460e11b17176131ac612b5d565b60008381526004919091016020526040902055808281015b6040516001830192906001600160a01b038716906000907fddf252ad1be2c89b69c2b068fc378daa952ba7f163c4a11628f55a4df523b3ef908290a48082106131c45780613210612b5d565b5550610e319050565b600061322483612c95565b90508060008061323386612d24565b91509150841561327357613248818433610f42565b613273576132568333612522565b61327357604051632ce44b5f60e11b815260040160405180910390fd5b801561327e57600082555b6fffffffffffffffffffffffffffffffff613297612b5d565b6001600160a01b038516600081815260059290920160205260409091208054929092019091554260a01b17600360e01b176132d0612b5d565b60008881526004919091016020526040902055600160e11b841661333f57600186016132fa612b5d565b6000828152600491909101602052604090205461333d57613319612b5d565b54811461333d5784613329612b5d565b600083815260049190910160205260409020555b505b60405186906000906001600160a01b038616907fddf252ad1be2c89b69c2b068fc378daa952ba7f163c4a11628f55a4df523b3ef908390a461337f612b5d565b600190810180549091019055505050505050565b6000805160206143be83398151915254610100900460ff166133c75760405162461bcd60e51b81526004016110fc906140e6565b610b2a8282613811565b6127106001600160601b03821611156133fc5760405162461bcd60e51b81526004016110fc90614161565b6001600160a01b0382166134525760405162461bcd60e51b815260206004820152601960248201527f455243323938313a20696e76616c69642072656365697665720000000000000060448201526064016110fc565b604080518082019091526001600160a01b039092168083526001600160601b039091166020909201829052600160a01b90910217606555565b60c95460ff16156134d15760405162461bcd60e51b815260206004820152601060248201526f14185d5cd8589b194e881c185d5cd95960821b60448201526064016110fc565b60c9805460ff191660011790557f62e78cea01bee320cd4e420270b5ea74000d11b0c9f74754ebdbfc544b05a2586130ef3390565b604051630a85bd0160e11b81526000906001600160a01b0385169063150b7a029061353b903390899088908890600401613faa565b602060405180830381600087803b15801561355557600080fd5b505af1925050508015613585575060408051601f3d908101601f1916820190925261358291810190613e07565b60015b6135e0573d8080156135b3576040519150601f19603f3d011682016040523d82523d6000602084013e6135b8565b606091505b5080516135d8576040516368d2bf6b60e11b815260040160405180910390fd5b805181602001fd5b6001600160e01b031916630a85bd0160e11b1490505b949350505050565b60606101318054610b46906142b8565b60008161361b818561430e565b613625908561425e565b6123c1919061422b565b6060600061363e83600261423f565b613649906002614213565b67ffffffffffffffff81111561366f57634e487b7160e01b600052604160045260246000fd5b6040519080825280601f01601f191660200182016040528015613699576020820181803683370190505b509050600360fc1b816000815181106136c257634e487b7160e01b600052603260045260246000fd5b60200101906001600160f81b031916908160001a905350600f60fb1b816001815181106136ff57634e487b7160e01b600052603260045260246000fd5b60200101906001600160f81b031916908160001a905350600061372384600261423f565b61372e906001614213565b90505b60018111156137c2576f181899199a1a9b1b9c1cb0b131b232b360811b85600f166010811061377057634e487b7160e01b600052603260045260246000fd5b1a60f81b82828151811061379457634e487b7160e01b600052603260045260246000fd5b60200101906001600160f81b031916908160001a90535060049490941c936137bb816142a1565b9050613731565b5083156123c15760405162461bcd60e51b815260206004820181905260248201527f537472696e67733a20686578206c656e67746820696e73756666696369656e7460448201526064016110fc565b6000805160206143be83398151915254610100900460ff166138455760405162461bcd60e51b81526004016110fc906140e6565b8161384e612b5d565b6002019080519060200190613864929190613894565b508061386e612b5d565b6003019080519060200190613884929190613894565b50600161388f612b5d565b555050565b8280546138a0906142b8565b90600052602060002090601f0160209004810192826138c25760008555613908565b82601f106138db57805160ff1916838001178555613908565b82800160010185558215613908579182015b828111156139085782518255916020019190600101906138ed565b50613914929150613918565b5090565b5b808211156139145760008155600101613919565b600067ffffffffffffffff8311156139475761394761434e565b61395a601f8401601f19166020016141e2565b905082815283838301111561396e57600080fd5b828260208301376000602084830101529392505050565b803561399081614364565b919050565b600082601f8301126139a5578081fd5b6040516060810181811067ffffffffffffffff821117156139c8576139c861434e565b6040528083606081018610156139dc578384fd5b835b60038110156139fd5781358352602092830192909101906001016139de565b509195945050505050565b600082601f830112613a18578081fd5b6123c18383356020850161392d565b80356001600160601b038116811461399057600080fd5b600060208284031215613a4f578081fd5b81356123c181614364565b600060208284031215613a6b578081fd5b81516123c181614364565b60008060408385031215613a88578081fd5b8235613a9381614364565b91506020830135613aa381614364565b809150509250929050565b600080600060608486031215613ac2578081fd5b8335613acd81614364565b92506020840135613add81614364565b929592945050506040919091013590565b60008060008060808587031215613b03578081fd5b8435613b0e81614364565b93506020850135613b1e81614364565b925060408501359150606085013567ffffffffffffffff811115613b40578182fd5b8501601f81018713613b50578182fd5b613b5f8782356020840161392d565b91505092959194509250565b6000806000806000806000806000806101808b8d031215613b8a578788fd5b613b938b613985565b9950613ba160208c01613985565b9850613baf60408c01613a27565b9750613bbd60608c01613985565b9650613bcb60808c01613a27565b955060a08b013567ffffffffffffffff80821115613be7578687fd5b613bf38e838f01613a08565b965060c08d0135915080821115613c08578586fd5b50613c158d828e01613a08565b945050613c2460e08c01613985565b92506101008b01359150613c3c8c6101208d01613995565b90509295989b9194979a5092959850565b60008060408385031215613c5f578182fd5b8235613c6a81614364565b91506020830135613aa381614379565b60008060408385031215613c8c578182fd5b8235613c9781614364565b946020939093013593505050565b60008060408385031215613cb7578182fd5b8235613cc281614364565b9150613cd060208401613a27565b90509250929050565b60008060408385031215613ceb578182fd5b823567ffffffffffffffff80821115613d02578384fd5b818501915085601f830112613d15578384fd5b8135602082821115613d2957613d2961434e565b8160051b9250613d3a8184016141e2565b8281528181019085830185870184018b1015613d54578889fd5b8896505b84871015613d825780359550613d6d86614364565b85835260019690960195918301918301613d58565b509997909101359750505050505050565b600060208284031215613da4578081fd5b81516123c181614379565b600060208284031215613dc0578081fd5b5035919050565b60008060408385031215613dd9578182fd5b823591506020830135613aa381614364565b600060208284031215613dfc578081fd5b81356123c181614387565b600060208284031215613e18578081fd5b81516123c181614387565b600060208284031215613e34578081fd5b813567ffffffffffffffff811115613e4a578182fd5b6135f684828501613a08565b600060208284031215613e67578081fd5b5051919050565b600080600060608486031215613e82578081fd5b833592506020840135613e9481614364565b9150613ea260408501613a27565b90509250925092565b60008060408385031215613ebd578182fd5b50508035926020909101359150565b600060208284031215613edd578081fd5b815160ff811681146123c1578182fd5b60008151808452613f05816020860160208601614275565b601f01601f19169290920160200192915050565b60008251613f2b818460208701614275565b9190910192915050565b7f416363657373436f6e74726f6c3a206163636f756e7420000000000000000000815260008351613f6d816017850160208801614275565b7001034b99036b4b9b9b4b733903937b6329607d1b6017918401918201528351613f9e816028840160208801614275565b01602801949350505050565b6001600160a01b0385811682528416602082015260408101839052608060608201819052600090613fdd90830184613eed565b9695505050505050565b6020808252825182820181905260009190848201906040850190845b81811015614021578351151583529284019291840191600101614003565b50909695505050505050565b602080825282518282018190526000919060409081850190868401855b8281101561408e5781518051855286810151878601528581015186860152606080820151908601526080908101519085015260a0909301929085019060010161404a565b5091979650505050505050565b6020808252825182820181905260009190848201906040850190845b81811015614021578351835292840192918401916001016140b7565b6020815260006123c16020830184613eed565b60208082526034908201527f455243373231415f5f496e697469616c697a61626c653a20636f6e7472616374604082015273206973206e6f7420696e697469616c697a696e6760601b606082015260800190565b6020808252600d908201526c37b7363c9033b7bb32b93737b960991b604082015260600190565b6020808252602a908201527f455243323938313a20726f79616c7479206665652077696c6c206578636565646040820152692073616c65507269636560b01b606082015260800190565b6020808252601f908201527f5265656e7472616e637947756172643a207265656e7472616e742063616c6c00604082015260600190565b604051601f8201601f1916810167ffffffffffffffff8111828210171561420b5761420b61434e565b604052919050565b6000821982111561422657614226614322565b500190565b60008261423a5761423a614338565b500490565b600081600019048311821515161561425957614259614322565b500290565b60008282101561427057614270614322565b500390565b60005b83811015614290578181015183820152602001614278565b838111156123475750506000910152565b6000816142b0576142b0614322565b506000190190565b600181811c908216806142cc57607f821691505b602082108114156142ed57634e487b7160e01b600052602260045260246000fd5b50919050565b600060001982141561430757614307614322565b5060010190565b60008261431d5761431d614338565b500690565b634e487b7160e01b600052601160045260246000fd5b634e487b7160e01b600052601260045260246000fd5b634e487b7160e01b600052604160045260246000fd5b6001600160a01b0381168114611add57600080fd5b8015158114611add57600080fd5b6001600160e01b031981168114611add57600080fdfe71840dc4906352362b0cdaf79870196c8e42acafade72d5d5a6d59291253ceb1ee151c8401928dc223602bb187aff91b9a56c7cae5476ef1b3287b085a16c85fa26469706673582212203859c3252201c2da98d0804526249d966015cff52bff80e4632e16520156e42d64736f6c63430008040033",
  "linkReferences": {},
  "deployedLinkReferences": {}
}