{
  "_format": "hh-sol-artifact-1",
  "contractName": "AliveRegistry",
  "sourceName": "contracts/NewContracts/RegistryContracts/AliveRegistry.sol",
  "abi": [
    {
      "anonymous": false,
      "inputs": [
        {
          "indexed": false,
          "internalType": "address[]",
          "name": "managers",
          "type": "address[]"
        }
      ],
      "name": "AddManagers",
      "type": "event"
    },
    {
      "anonymous": false,
      "inputs": [
        {
          "indexed": false,
          "internalType": "address",
          "name": "newSongImp",
          "type": "address"
        },
        {
          "indexed": false,
          "internalType": "uint256",
          "name": "maxMintAmount",
          "type": "uint256"
        }
      ],
      "name": "AddNewSongImp",
      "type": "event"
    },
    {
      "anonymous": false,
      "inputs": [
        {
          "indexed": false,
          "internalType": "address",
          "name": "oldAdmin",
          "type": "address"
        },
        {
          "indexed": false,
          "internalType": "address",
          "name": "newAdmin",
          "type": "address"
        }
      ],
      "name": "ChangeAdmin",
      "type": "event"
    },
    {
      "anonymous": false,
      "inputs": [
        {
          "indexed": false,
          "internalType": "address[]",
          "name": "managers",
          "type": "address[]"
        }
      ],
      "name": "RemoveManagers",
      "type": "event"
    },
    {
      "anonymous": false,
      "inputs": [
        {
          "indexed": false,
          "internalType": "address",
          "name": "to",
          "type": "address"
        },
        {
          "indexed": false,
          "internalType": "uint8",
          "name": "version",
          "type": "uint8"
        }
      ],
      "name": "UpgradeAliveBandImp",
      "type": "event"
    },
    {
      "anonymous": false,
      "inputs": [
        {
          "indexed": false,
          "internalType": "uint8",
          "name": "songType",
          "type": "uint8"
        },
        {
          "indexed": false,
          "internalType": "address",
          "name": "to",
          "type": "address"
        },
        {
          "indexed": false,
          "internalType": "uint8",
          "name": "version",
          "type": "uint8"
        }
      ],
      "name": "UpgradeAliveSongImp",
      "type": "event"
    },
    {
      "anonymous": false,
      "inputs": [
        {
          "indexed": false,
          "internalType": "address",
          "name": "to",
          "type": "address"
        },
        {
          "indexed": false,
          "internalType": "uint8",
          "name": "version",
          "type": "uint8"
        }
      ],
      "name": "UpgradeHouse",
      "type": "event"
    },
    {
      "anonymous": false,
      "inputs": [
        {
          "indexed": false,
          "internalType": "address",
          "name": "to",
          "type": "address"
        },
        {
          "indexed": false,
          "internalType": "uint8",
          "name": "version",
          "type": "uint8"
        }
      ],
      "name": "UpgradeRegistry",
      "type": "event"
    },
    {
      "inputs": [
        {
          "internalType": "address[]",
          "name": "_newManagerWallets",
          "type": "address[]"
        }
      ],
      "name": "addMangerWallets",
      "outputs": [],
      "stateMutability": "nonpayable",
      "type": "function"
    },
    {
      "inputs": [
        {
          "internalType": "address",
          "name": "_newSongImp",
          "type": "address"
        },
        {
          "internalType": "uint256",
          "name": "_maxMintAmount",
          "type": "uint256"
        }
      ],
      "name": "addNewSongImp",
      "outputs": [],
      "stateMutability": "nonpayable",
      "type": "function"
    },
    {
      "inputs": [],
      "name": "adminAddress",
      "outputs": [
        {
          "internalType": "address",
          "name": "",
          "type": "address"
        }
      ],
      "stateMutability": "view",
      "type": "function"
    },
    {
      "inputs": [],
      "name": "aliveBandBeacon",
      "outputs": [
        {
          "internalType": "contract AliveBandBeacon",
          "name": "",
          "type": "address"
        }
      ],
      "stateMutability": "view",
      "type": "function"
    },
    {
      "inputs": [],
      "name": "aliveHouseRoyaltyReceiver",
      "outputs": [
        {
          "internalType": "address",
          "name": "",
          "type": "address"
        }
      ],
      "stateMutability": "view",
      "type": "function"
    },
    {
      "inputs": [
        {
          "internalType": "uint8",
          "name": "",
          "type": "uint8"
        }
      ],
      "name": "aliveSongByType",
      "outputs": [
        {
          "internalType": "address",
          "name": "impAddress",
          "type": "address"
        },
        {
          "internalType": "uint256",
          "name": "maxMintAmountPerTx",
          "type": "uint256"
        },
        {
          "internalType": "contract AliveSongBeacon",
          "name": "aliveSongBeacon",
          "type": "address"
        },
        {
          "internalType": "uint8",
          "name": "songVersion",
          "type": "uint8"
        }
      ],
      "stateMutability": "view",
      "type": "function"
    },
    {
      "inputs": [],
      "name": "bandVersion",
      "outputs": [
        {
          "internalType": "uint8",
          "name": "",
          "type": "uint8"
        }
      ],
      "stateMutability": "view",
      "type": "function"
    },
    {
      "inputs": [
        {
          "internalType": "address",
          "name": "_to",
          "type": "address"
        }
      ],
      "name": "changeAdmin",
      "outputs": [],
      "stateMutability": "nonpayable",
      "type": "function"
    },
    {
      "inputs": [
        {
          "internalType": "contract TransparentUpgradeableProxy",
          "name": "proxy",
          "type": "address"
        },
        {
          "internalType": "address",
          "name": "newAdmin",
          "type": "address"
        }
      ],
      "name": "changeProxyAdmin",
      "outputs": [],
      "stateMutability": "nonpayable",
      "type": "function"
    },
    {
      "inputs": [],
      "name": "feePercent",
      "outputs": [
        {
          "internalType": "uint8",
          "name": "",
          "type": "uint8"
        }
      ],
      "stateMutability": "view",
      "type": "function"
    },
    {
      "inputs": [
        {
          "internalType": "uint8",
          "name": "_songType",
          "type": "uint8"
        }
      ],
      "name": "getAliveSongImp",
      "outputs": [
        {
          "components": [
            {
              "internalType": "address",
              "name": "impAddress",
              "type": "address"
            },
            {
              "internalType": "uint256",
              "name": "maxMintAmountPerTx",
              "type": "uint256"
            },
            {
              "internalType": "contract AliveSongBeacon",
              "name": "aliveSongBeacon",
              "type": "address"
            },
            {
              "internalType": "uint8",
              "name": "songVersion",
              "type": "uint8"
            }
          ],
          "internalType": "struct AliveRegistry.AliveSongImp",
          "name": "",
          "type": "tuple"
        }
      ],
      "stateMutability": "view",
      "type": "function"
    },
    {
      "inputs": [
        {
          "internalType": "uint8",
          "name": "_songType",
          "type": "uint8"
        }
      ],
      "name": "getAliveSongMaxMintPerTxByType",
      "outputs": [
        {
          "internalType": "uint256",
          "name": "",
          "type": "uint256"
        }
      ],
      "stateMutability": "view",
      "type": "function"
    },
    {
      "inputs": [
        {
          "internalType": "contract TransparentUpgradeableProxy",
          "name": "proxy",
          "type": "address"
        }
      ],
      "name": "getProxyAdmin",
      "outputs": [
        {
          "internalType": "address",
          "name": "",
          "type": "address"
        }
      ],
      "stateMutability": "view",
      "type": "function"
    },
    {
      "inputs": [
        {
          "internalType": "contract TransparentUpgradeableProxy",
          "name": "proxy",
          "type": "address"
        }
      ],
      "name": "getProxyImplementation",
      "outputs": [
        {
          "internalType": "address",
          "name": "",
          "type": "address"
        }
      ],
      "stateMutability": "view",
      "type": "function"
    },
    {
      "inputs": [],
      "name": "houseVersion",
      "outputs": [
        {
          "internalType": "uint8",
          "name": "",
          "type": "uint8"
        }
      ],
      "stateMutability": "view",
      "type": "function"
    },
    {
      "inputs": [
        {
          "internalType": "address",
          "name": "_aliveHouseRoyaltyReceiver",
          "type": "address"
        },
        {
          "internalType": "uint8",
          "name": "_feePercent",
          "type": "uint8"
        },
        {
          "internalType": "address",
          "name": "_managerWallet",
          "type": "address"
        },
        {
          "internalType": "address",
          "name": "_bandImp",
          "type": "address"
        },
        {
          "internalType": "address[]",
          "name": "_songImps",
          "type": "address[]"
        },
        {
          "internalType": "uint256[]",
          "name": "_maxMintAmountsPerTx",
          "type": "uint256[]"
        },
        {
          "internalType": "address",
          "name": "_splitsAddress",
          "type": "address"
        },
        {
          "internalType": "address",
          "name": "_admin",
          "type": "address"
        }
      ],
      "name": "initialize",
      "outputs": [],
      "stateMutability": "nonpayable",
      "type": "function"
    },
    {
      "inputs": [
        {
          "internalType": "address",
          "name": "",
          "type": "address"
        }
      ],
      "name": "isManagerWallet",
      "outputs": [
        {
          "internalType": "bool",
          "name": "",
          "type": "bool"
        }
      ],
      "stateMutability": "view",
      "type": "function"
    },
    {
      "inputs": [],
      "name": "registryVersion",
      "outputs": [
        {
          "internalType": "uint8",
          "name": "",
          "type": "uint8"
        }
      ],
      "stateMutability": "view",
      "type": "function"
    },
    {
      "inputs": [
        {
          "internalType": "address[]",
          "name": "_removeManagerWallets",
          "type": "address[]"
        }
      ],
      "name": "removeManagerWallets",
      "outputs": [],
      "stateMutability": "nonpayable",
      "type": "function"
    },
    {
      "inputs": [
        {
          "internalType": "address",
          "name": "_aliveHouseRoyaltyReceiver",
          "type": "address"
        },
        {
          "internalType": "uint8",
          "name": "_feePercent",
          "type": "uint8"
        },
        {
          "internalType": "address",
          "name": "_managerWallet",
          "type": "address"
        },
        {
          "internalType": "address",
          "name": "_bandImp",
          "type": "address"
        },
        {
          "internalType": "address[]",
          "name": "_songImps",
          "type": "address[]"
        },
        {
          "internalType": "uint256[]",
          "name": "_maxMintAmountsPerTx",
          "type": "uint256[]"
        },
        {
          "internalType": "address",
          "name": "_splitsAddress",
          "type": "address"
        }
      ],
      "name": "reset",
      "outputs": [],
      "stateMutability": "nonpayable",
      "type": "function"
    },
    {
      "inputs": [
        {
          "internalType": "uint256",
          "name": "_maxMintAmount",
          "type": "uint256"
        }
      ],
      "name": "setInitialMaxMintAmountPerTx",
      "outputs": [],
      "stateMutability": "nonpayable",
      "type": "function"
    },
    {
      "inputs": [],
      "name": "splitsAddress",
      "outputs": [
        {
          "internalType": "address",
          "name": "",
          "type": "address"
        }
      ],
      "stateMutability": "view",
      "type": "function"
    },
    {
      "inputs": [],
      "name": "totalSongTypes",
      "outputs": [
        {
          "internalType": "uint8",
          "name": "",
          "type": "uint8"
        }
      ],
      "stateMutability": "view",
      "type": "function"
    },
    {
      "inputs": [
        {
          "internalType": "address",
          "name": "_newTreasuryWallet",
          "type": "address"
        }
      ],
      "name": "updateAliveHouseRoyaltyReceiver",
      "outputs": [],
      "stateMutability": "nonpayable",
      "type": "function"
    },
    {
      "inputs": [
        {
          "internalType": "uint8",
          "name": "_songType",
          "type": "uint8"
        },
        {
          "internalType": "uint256",
          "name": "_maxMintAmount",
          "type": "uint256"
        }
      ],
      "name": "updateMaxMintAmountPerTxBySongType",
      "outputs": [],
      "stateMutability": "nonpayable",
      "type": "function"
    },
    {
      "inputs": [
        {
          "internalType": "uint256[]",
          "name": "_maxMintAmountsPerTx",
          "type": "uint256[]"
        }
      ],
      "name": "updateMaxMintAmountsPerTx",
      "outputs": [],
      "stateMutability": "nonpayable",
      "type": "function"
    },
    {
      "inputs": [
        {
          "internalType": "uint8",
          "name": "_newFeePercent",
          "type": "uint8"
        }
      ],
      "name": "updateRoyaltyFee",
      "outputs": [],
      "stateMutability": "nonpayable",
      "type": "function"
    },
    {
      "inputs": [
        {
          "internalType": "address",
          "name": "_newSplit",
          "type": "address"
        }
      ],
      "name": "updateSplitsAddress",
      "outputs": [],
      "stateMutability": "nonpayable",
      "type": "function"
    },
    {
      "inputs": [
        {
          "internalType": "address",
          "name": "_to",
          "type": "address"
        }
      ],
      "name": "upgradeAliveBandImp",
      "outputs": [
        {
          "internalType": "bool",
          "name": "",
          "type": "bool"
        }
      ],
      "stateMutability": "nonpayable",
      "type": "function"
    },
    {
      "inputs": [
        {
          "internalType": "uint8",
          "name": "_songType",
          "type": "uint8"
        },
        {
          "internalType": "address",
          "name": "_to",
          "type": "address"
        }
      ],
      "name": "upgradeAliveSongImp",
      "outputs": [
        {
          "internalType": "bool",
          "name": "",
          "type": "bool"
        }
      ],
      "stateMutability": "nonpayable",
      "type": "function"
    },
    {
      "inputs": [
        {
          "internalType": "contract TransparentUpgradeableProxy",
          "name": "proxy",
          "type": "address"
        },
        {
          "internalType": "address",
          "name": "implementation",
          "type": "address"
        },
        {
          "internalType": "bytes",
          "name": "data",
          "type": "bytes"
        }
      ],
      "name": "upgradeAndCall",
      "outputs": [],
      "stateMutability": "payable",
      "type": "function"
    },
    {
      "inputs": [
        {
          "internalType": "contract TransparentUpgradeableProxy",
          "name": "proxy",
          "type": "address"
        },
        {
          "internalType": "address",
          "name": "implementation",
          "type": "address"
        },
        {
          "internalType": "uint8",
          "name": "contractNum",
          "type": "uint8"
        }
      ],
      "name": "upgradeVersion",
      "outputs": [],
      "stateMutability": "nonpayable",
      "type": "function"
    }
  ],
  "bytecode": "0x608060405234801561001057600080fd5b506139ee806100206000396000f3fe6080604052600436106200020b5760003560e01c80637fd6f15c1162000117578063b3553ee911620000a1578063f3b7dead116200006c578063f3b7dead146200070d578063fac576631462000732578063fba33a811462000757578063fc6f9468146200077c57600080fd5b8063b3553ee9146200067d578063bb744bca146200069f578063bfb1647514620006c4578063eabced4514620006e957600080fd5b80639623609d11620000e25780639623609d14620005b5578063a33e5c6614620005cc578063a64890e814620005f1578063ab576827146200061657600080fd5b80637fd6f15c146200052a5780638c57301514620005465780638f283970146200056b5780639489253c146200059057600080fd5b80633f195e301162000199578063684514a31162000164578063684514a3146200049a57806371b33f0e14620004bb578063796a0a3f14620004e05780637eff275e146200050557600080fd5b80633f195e3014620003e8578063411ecfb7146200042e5780635c883360146200045357806365137ea6146200047857600080fd5b80631417dbf111620001da5780631417dbf11462000355578063204e1c7a146200037c57806322cf015614620003a15780633010f2b614620003c657600080fd5b80630214a02114620002105780630980b2b0146200024f5780630f9be51c14620002da57806310573f2e1462000310575b600080fd5b3480156200021d57600080fd5b5060025462000232906001600160a01b031681565b6040516001600160a01b0390911681526020015b60405180910390f35b3480156200025c57600080fd5b50620002a66200026e366004620021ba565b6007602052600090815260409020805460018201546002909201546001600160a01b039182169291811690600160a01b900460ff1684565b604080516001600160a01b0395861681526020810194909452919093169082015260ff909116606082015260800162000246565b348015620002e757600080fd5b50600854620002fd906301000000900460ff1681565b60405160ff909116815260200162000246565b3480156200031d57600080fd5b50620003446200032f36600462001deb565b60066020526000908152604090205460ff1681565b604051901515815260200162000246565b3480156200036257600080fd5b506200037a6200037436600462001deb565b6200079e565b005b3480156200038957600080fd5b50620002326200039b36600462001deb565b620007f6565b348015620003ae57600080fd5b506200037a620003c036600462002154565b6200088d565b348015620003d357600080fd5b5060035462000232906001600160a01b031681565b348015620003f557600080fd5b506200041f62000407366004620021ba565b60ff1660009081526007602052604090206001015490565b60405190815260200162000246565b3480156200043b57600080fd5b506200037a6200044d36600462001e30565b620009f3565b3480156200046057600080fd5b506200037a6200047236600462001f2d565b62000b96565b3480156200048557600080fd5b50600854620002fd9062010000900460ff1681565b348015620004a757600080fd5b50600854620002fd90610100900460ff1681565b348015620004c857600080fd5b506200037a620004da366004620021ba565b62000f73565b348015620004ed57600080fd5b506200037a620004ff36600462001e5e565b62000fdc565b3480156200051257600080fd5b506200037a6200052436600462002055565b620012f3565b3480156200053757600080fd5b50600854620002fd9060ff1681565b3480156200055357600080fd5b506200037a6200056536600462002011565b62001382565b3480156200057857600080fd5b506200037a6200058a36600462001deb565b62001457565b3480156200059d57600080fd5b5062000344620005af366004620021d7565b620014ed565b6200037a620005c636600462002092565b62001694565b348015620005d957600080fd5b506200037a620005eb36600462002011565b6200172c565b348015620005fe57600080fd5b506200037a62000610366004620021a1565b62001814565b3480156200062357600080fd5b506200063b62000635366004620021ba565b62001846565b6040805182516001600160a01b0390811682526020808501519083015283830151169181019190915260609182015160ff169181019190915260800162000246565b3480156200068a57600080fd5b5060055462000232906001600160a01b031681565b348015620006ac57600080fd5b506200037a620006be36600462002011565b62001908565b348015620006d157600080fd5b506200037a620006e3366004620021f5565b620019f0565b348015620006f657600080fd5b50600854620002fd90640100000000900460ff1681565b3480156200071a57600080fd5b50620002326200072c36600462001deb565b62001a9a565b3480156200073f57600080fd5b50620003446200075136600462001deb565b62001ac1565b3480156200076457600080fd5b506200037a6200077636600462001deb565b62001bdf565b3480156200078957600080fd5b5060045462000232906001600160a01b031681565b6004546001600160a01b03163314620007d45760405162461bcd60e51b8152600401620007cb90620022cb565b60405180910390fd5b600280546001600160a01b0319166001600160a01b0392909216919091179055565b6000806000836001600160a01b03166040516200081d90635c60da1b60e01b815260040190565b600060405180830381855afa9150503d80600081146200085a576040519150601f19603f3d011682016040523d82523d6000602084013e6200085f565b606091505b5091509150816200086f57600080fd5b8080602001905181019062000885919062001e11565b949350505050565b6004546001600160a01b03163314620008ba5760405162461bcd60e51b8152600401620007cb90620022cb565b620008c6838362001c2e565b60ff81166200095957600880546301000000900460ff16906003620008eb8362002460565b82546101009290920a60ff818102199093169183160217909155600854604080516001600160a01b0387168152630100000090920490921660208201527f7155141d659d8c892fe6ca710463a0dfa4e30cb6f86e8da292a1037c4c20fffb92500160405180910390a1505050565b8060ff1660011415620009ee5760088054640100000000900460ff16906004620009838362002460565b82546101009290920a60ff818102199093169183160217909155600854604080516001600160a01b038716815264010000000090920490921660208201527fb1239537ce8774a498c4af9c76adb7ed24fc1f450dac3387f79b34ea8266137792500160405180910390a15b505050565b6004546001600160a01b0316331462000a205760405162461bcd60e51b8152600401620007cb90620022cb565b6000811162000a435760405162461bcd60e51b8152600401620007cb9062002374565b60085462000a5b90610100900460ff1660016200241a565b600860016101000a81548160ff021916908360ff1602179055506040518060800160405280836001600160a01b031681526020018281526020018360405162000aa49062001c8a565b6001600160a01b039091168152602001604051809103906000f08015801562000ad1573d6000803e3d6000fd5b506001600160a01b0390811682526001602092830181905260085460ff6101009091048116600090815260078552604090819020865181546001600160a01b031916908616178155868601519381019390935585810151600290930180546060909701519385166001600160a81b031990971696909617600160a01b939092169290920217909355825190851681529081018390527f798da2409fd264e1d38b1cc50531695794b4fcd903e6a0d71744abb6ae2ea12591015b60405180910390a15050565b600054610100900460ff1662000bb35760005460ff161562000bb7565b303b155b62000c1c5760405162461bcd60e51b815260206004820152602e60248201527f496e697469616c697a61626c653a20636f6e747261637420697320616c72656160448201526d191e481a5b9a5d1a585b1a5e995960921b6064820152608401620007cb565b600054610100900460ff1615801562000c3f576000805461ffff19166101011790555b60648860ff161062000c655760405162461bcd60e51b8152600401620007cb90620022f0565b600a60019081556001600160a01b0388811660009081526006602052604090819020805460ff1916909317909255600280546001600160a01b031916918c1691909117905551869062000cb89062001c98565b6001600160a01b039091168152602001604051809103906000f08015801562000ce5573d6000803e3d6000fd5b50600580546001600160a01b039283166001600160a01b03199182161790915586516008805460ff9092166101000261ff0019909216919091179055600480549285169290911691909117905560005b60085460ff6101009091048116908216101562000f24576000858260ff168151811062000d7257634e487b7160e01b600052603260045260246000fd5b602002602001015160001462000db657858260ff168151811062000da657634e487b7160e01b600052603260045260246000fd5b6020026020010151905062000dbb565b506001545b6040518060800160405280888460ff168151811062000dea57634e487b7160e01b600052603260045260246000fd5b60200260200101516001600160a01b03168152602001878460ff168151811062000e2457634e487b7160e01b600052603260045260246000fd5b60200260200101518152602001888460ff168151811062000e5557634e487b7160e01b600052603260045260246000fd5b602002602001015160405162000e6b9062001c8a565b6001600160a01b039091168152602001604051809103906000f08015801562000e98573d6000803e3d6000fd5b506001600160a01b0390811682526001602092830181905294850160ff818116600090815260078552604090819020865181549086166001600160a01b031990911617815594860151978501979097559584015160029093018054606090950151909616600160a01b026001600160a81b03199094169290911691909117919091179092555062000d35565b50600380546001600160a01b0319166001600160a01b0385161790556008805464ffffff00001916640101010000179055801562000f68576000805461ff00191690555b505050505050505050565b6004546001600160a01b0316331462000fa05760405162461bcd60e51b8152600401620007cb90620022cb565b60648160ff161062000fc65760405162461bcd60e51b8152600401620007cb90620022f0565b6008805460ff191660ff92909216919091179055565b6004546001600160a01b03163314620010095760405162461bcd60e51b8152600401620007cb90620022cb565b60648660ff16106200102f5760405162461bcd60e51b8152600401620007cb90620022f0565b600a60019081556001600160a01b0386811660009081526006602052604090819020805460ff1916909317909255600280546001600160a01b031916918a16919091179055518490620010829062001c98565b6001600160a01b039091168152602001604051809103906000f080158015620010af573d6000803e3d6000fd5b50600580546001600160a01b0319166001600160a01b039290921691909117905560005b83518160ff161015620012b8576000838260ff16815181106200110657634e487b7160e01b600052603260045260246000fd5b60200260200101516000146200114a57838260ff16815181106200113a57634e487b7160e01b600052603260045260246000fd5b602002602001015190506200114f565b506001545b6040518060800160405280868460ff16815181106200117e57634e487b7160e01b600052603260045260246000fd5b60200260200101516001600160a01b03168152602001858460ff1681518110620011b857634e487b7160e01b600052603260045260246000fd5b60200260200101518152602001868460ff1681518110620011e957634e487b7160e01b600052603260045260246000fd5b6020026020010151604051620011ff9062001c8a565b6001600160a01b039091168152602001604051809103906000f0801580156200122c573d6000803e3d6000fd5b506001600160a01b0390811682526001602092830181905294850160ff818116600090815260078552604090819020865181549086166001600160a01b031990911617815594860151978501979097559584015160029093018054606090950151909616600160a01b026001600160a81b031990941692909116919091179190911790925550620010d3565b50600380546001600160a01b039092166001600160a01b031990921691909117905550506008805462ff000019166201000017905550505050565b6004546001600160a01b03163314620013205760405162461bcd60e51b8152600401620007cb90620022cb565b6040516308f2839760e41b81526001600160a01b038281166004830152831690638f283970906024015b600060405180830381600087803b1580156200136557600080fd5b505af11580156200137a573d6000803e3d6000fd5b505050505050565b6004546001600160a01b03163314620013af5760405162461bcd60e51b8152600401620007cb90620022cb565b60005b60085460ff61010090910481169082161015620009ee57600083838360ff16818110620013ef57634e487b7160e01b600052603260045260246000fd5b90506020020135600014620014315783838360ff168181106200142257634e487b7160e01b600052603260045260246000fd5b90506020020135905062001436565b506001545b600191820160ff8116600090815260076020526040902090920155620013b2565b6004546001600160a01b03163314620014845760405162461bcd60e51b8152600401620007cb90620022cb565b600454604080516001600160a01b03928316815291831660208301527fcf9b665e0639e0b81a8db37b60ac7ddf45aeb1b484e11adeb7dff4bf4a3a6258910160405180910390a1600480546001600160a01b0319166001600160a01b0392909216919091179055565b6004546000906001600160a01b031633146200151d5760405162461bcd60e51b8152600401620007cb90620022cb565b60008360ff161180156200153f575060085460ff610100909104811690841611155b6200155e5760405162461bcd60e51b8152600401620007cb9062002331565b60ff831660009081526007602052604090819020600201549051630e0dc3b960e11b81526001600160a01b03848116600483015290911690631c1b877290602401600060405180830381600087803b158015620015ba57600080fd5b505af1158015620015cf573d6000803e3d6000fd5b50505060ff80851660009081526007602052604090206002018054600160a01b900490911691506014620016038362002460565b82546101009290920a60ff8181021990931691831602179091558481166000818152600760209081526040918290206002015482519384526001600160a01b03881691840191909152600160a01b9004909216918101919091527f40285681655860eb96191553b39e0f651a132a3f83bfbc9f268ba4646ba16430915060600160405180910390a150600192915050565b6004546001600160a01b03163314620016c15760405162461bcd60e51b8152600401620007cb90620022cb565b60405163278f794360e11b81526001600160a01b03841690634f1ef286903490620016f3908690869060040162002213565b6000604051808303818588803b1580156200170d57600080fd5b505af115801562001722573d6000803e3d6000fd5b5050505050505050565b6004546001600160a01b03163314620017595760405162461bcd60e51b8152600401620007cb90620022cb565b60005b81811015620017e0576000600660008585858181106200178c57634e487b7160e01b600052603260045260246000fd5b9050602002016020810190620017a3919062001deb565b6001600160a01b031681526020810191909152604001600020805460ff191691151591909117905580620017d78162002442565b9150506200175c565b507f96b899640d4155ed6e380545044f61a6e1e9f87e76a12b3e533c7c30005c473f828260405162000b8a92919062002279565b6004546001600160a01b03163314620018415760405162461bcd60e51b8152600401620007cb90620022cb565b600155565b60408051608081018252600080825260208201819052918101829052606081019190915260008260ff161180156200188c575060085460ff610100909104811690831611155b620018ab5760405162461bcd60e51b8152600401620007cb9062002331565b5060ff908116600090815260076020908152604091829020825160808101845281546001600160a01b03908116825260018301549382019390935260029091015491821692810192909252600160a01b9004909116606082015290565b6004546001600160a01b03163314620019355760405162461bcd60e51b8152600401620007cb90620022cb565b60005b81811015620019bc576001600660008585858181106200196857634e487b7160e01b600052603260045260246000fd5b90506020020160208101906200197f919062001deb565b6001600160a01b031681526020810191909152604001600020805460ff191691151591909117905580620019b38162002442565b91505062001938565b507fadbd65150f651ff47b415b7de846e3b9685a2835cd7fc118f7748cfd11ead51a828260405162000b8a92919062002279565b6004546001600160a01b0316331462001a1d5760405162461bcd60e51b8152600401620007cb90620022cb565b60008260ff1611801562001a3f575060085460ff610100909104811690831611155b62001a5e5760405162461bcd60e51b8152600401620007cb9062002331565b6000811162001a815760405162461bcd60e51b8152600401620007cb9062002374565b60ff909116600090815260076020526040902060010155565b6000806000836001600160a01b03166040516200081d906303e1469160e61b815260040190565b6004546000906001600160a01b0316331462001af15760405162461bcd60e51b8152600401620007cb90620022cb565b600554604051630e0dc3b960e11b81526001600160a01b03848116600483015290911690631c1b877290602401600060405180830381600087803b15801562001b3957600080fd5b505af115801562001b4e573d6000803e3d6000fd5b50506008805462010000900460ff1692509050600262001b6e8362002460565b82546101009290920a60ff818102199093169183160217909155600854604080516001600160a01b03871681526201000090920490921660208201527feec990966b436b3c2e647cd68e4aaf99db7ebf0373ee8ed79d2f31f5b54f580092500160405180910390a15060015b919050565b6004546001600160a01b0316331462001c0c5760405162461bcd60e51b8152600401620007cb90620022cb565b600380546001600160a01b0319166001600160a01b0392909216919091179055565b6004546001600160a01b0316331462001c5b5760405162461bcd60e51b8152600401620007cb90620022cb565b604051631b2ce7f360e11b81526001600160a01b038281166004830152831690633659cfe6906024016200134a565b610a7880620024c983390190565b610a788062002f4183390190565b60008083601f84011262001cb8578182fd5b50813567ffffffffffffffff81111562001cd0578182fd5b6020830191508360208260051b850101111562001cec57600080fd5b9250929050565b600082601f83011262001d04578081fd5b8135602062001d1d62001d1783620023f3565b620023bf565b80838252828201915082860187848660051b890101111562001d3d578586fd5b855b8581101562001d6857813562001d5581620024af565b8452928401929084019060010162001d3f565b5090979650505050505050565b600082601f83011262001d86578081fd5b8135602062001d9962001d1783620023f3565b80838252828201915082860187848660051b890101111562001db9578586fd5b855b8581101562001d685781358452928401929084019060010162001dbb565b803560ff8116811462001bda57600080fd5b60006020828403121562001dfd578081fd5b813562001e0a81620024af565b9392505050565b60006020828403121562001e23578081fd5b815162001e0a81620024af565b6000806040838503121562001e43578081fd5b823562001e5081620024af565b946020939093013593505050565b600080600080600080600060e0888a03121562001e79578283fd5b873562001e8681620024af565b965062001e966020890162001dd9565b9550604088013562001ea881620024af565b9450606088013562001eba81620024af565b9350608088013567ffffffffffffffff8082111562001ed7578485fd5b62001ee58b838c0162001cf3565b945060a08a013591508082111562001efb578384fd5b5062001f0a8a828b0162001d75565b92505060c088013562001f1d81620024af565b8091505092959891949750929550565b600080600080600080600080610100898b03121562001f4a578081fd5b883562001f5781620024af565b975062001f6760208a0162001dd9565b9650604089013562001f7981620024af565b9550606089013562001f8b81620024af565b9450608089013567ffffffffffffffff8082111562001fa8578283fd5b62001fb68c838d0162001cf3565b955060a08b013591508082111562001fcc578283fd5b5062001fdb8b828c0162001d75565b93505060c089013562001fee81620024af565b915060e08901356200200081620024af565b809150509295985092959890939650565b6000806020838503121562002024578182fd5b823567ffffffffffffffff8111156200203b578283fd5b620020498582860162001ca6565b90969095509350505050565b6000806040838503121562002068578182fd5b82356200207581620024af565b915060208301356200208781620024af565b809150509250929050565b600080600060608486031215620020a7578081fd5b8335620020b481620024af565b9250602084810135620020c781620024af565b9250604085013567ffffffffffffffff80821115620020e4578384fd5b818701915087601f830112620020f8578384fd5b8135818111156200210d576200210d62002499565b62002121601f8201601f19168501620023bf565b9150808252888482850101111562002137578485fd5b808484018584013784848284010152508093505050509250925092565b60008060006060848603121562002169578081fd5b83356200217681620024af565b925060208401356200218881620024af565b9150620021986040850162001dd9565b90509250925092565b600060208284031215620021b3578081fd5b5035919050565b600060208284031215620021cc578081fd5b62001e0a8262001dd9565b60008060408385031215620021ea578182fd5b620020758362001dd9565b6000806040838503121562002208578182fd5b62001e508362001dd9565b60018060a01b0383168152600060206040818401528351806040850152825b81811015620022505785810183015185820160600152820162002232565b81811115620022625783606083870101525b50601f01601f191692909201606001949350505050565b60208082528181018390526000908460408401835b86811015620022c0578235620022a481620024af565b6001600160a01b0316825291830191908301906001016200228e565b509695505050505050565b6020808252600b908201526a4f6e6c792041646d696e2160a81b604082015260600190565b60208082526021908201527f50657263656e74616765206d757374206265206c657373207468616e203130306040820152602160f81b606082015260800190565b60208082526023908201527f5468657265206973206e6f20536f6e67207468617420796f752073656c65637460408201526265642160e81b606082015260800190565b6020808252602b908201527f546865206d6178206d696e7420616d6f756e74206f6620736f6e67206d75737460408201526a206265206f76657220302160a81b606082015260800190565b604051601f8201601f1916810167ffffffffffffffff81118282101715620023eb57620023eb62002499565b604052919050565b600067ffffffffffffffff82111562002410576200241062002499565b5060051b60200190565b600060ff821660ff84168060ff038211156200243a576200243a62002483565b019392505050565b600060001982141562002459576200245962002483565b5060010190565b600060ff821660ff8114156200247a576200247a62002483565b60010192915050565b634e487b7160e01b600052601160045260246000fd5b634e487b7160e01b600052604160045260246000fd5b6001600160a01b0381168114620024c557600080fd5b5056fe60a060405234801561001057600080fd5b50604051610a78380380610a7883398101604081905261002f916100e5565b61003833610088565b80604051610045906100d8565b6001600160a01b039091168152602001604051809103906000f080158015610071573d6000803e3d6000fd5b5060601b6001600160601b03191660805250610113565b600080546001600160a01b038381166001600160a01b0319831681178455604051919092169283917f8be0079c531659141344cd1fd0a4f28419497f9722a3daafe3b4186f6b6457e09190a35050565b6105258061055383390190565b6000602082840312156100f6578081fd5b81516001600160a01b038116811461010c578182fd5b9392505050565b60805160601c61041561013e6000396000818160a501528181610112015261017501526104156000f3fe608060405234801561001057600080fd5b50600436106100625760003560e01c80631c1b8772146100675780635c60da1b1461007c5780635df16896146100a0578063715018a6146100c75780638da5cb5b146100cf578063f2fde38b146100e0575b600080fd5b61007a61007536600461038f565b6100f3565b005b610084610171565b6040516001600160a01b03909116815260200160405180910390f35b6100847f000000000000000000000000000000000000000000000000000000000000000081565b61007a610209565b6000546001600160a01b0316610084565b61007a6100ee36600461038f565b610274565b604051631b2ce7f360e11b81526001600160a01b0382811660048301527f00000000000000000000000000000000000000000000000000000000000000001690633659cfe690602401600060405180830381600087803b15801561015657600080fd5b505af115801561016a573d6000803e3d6000fd5b5050505050565b60007f00000000000000000000000000000000000000000000000000000000000000006001600160a01b0316635c60da1b6040518163ffffffff1660e01b815260040160206040518083038186803b1580156101cc57600080fd5b505afa1580156101e0573d6000803e3d6000fd5b505050506040513d601f19601f8201168201806040525081019061020491906103b2565b905090565b6000546001600160a01b031633146102685760405162461bcd60e51b815260206004820181905260248201527f4f776e61626c653a2063616c6c6572206973206e6f7420746865206f776e657260448201526064015b60405180910390fd5b610272600061033f565b565b6000546001600160a01b031633146102ce5760405162461bcd60e51b815260206004820181905260248201527f4f776e61626c653a2063616c6c6572206973206e6f7420746865206f776e6572604482015260640161025f565b6001600160a01b0381166103335760405162461bcd60e51b815260206004820152602660248201527f4f776e61626c653a206e6577206f776e657220697320746865207a65726f206160448201526564647265737360d01b606482015260840161025f565b61033c8161033f565b50565b600080546001600160a01b038381166001600160a01b0319831681178455604051919092169283917f8be0079c531659141344cd1fd0a4f28419497f9722a3daafe3b4186f6b6457e09190a35050565b6000602082840312156103a0578081fd5b81356103ab816103ca565b9392505050565b6000602082840312156103c3578081fd5b81516103ab815b6001600160a01b038116811461033c57600080fdfea26469706673582212208cbde6cf025742b2f36359245ec757b33ba2db31ebea62e1f44c25d5f2dfc47264736f6c63430008040033608060405234801561001057600080fd5b5060405161052538038061052583398101604081905261002f91610151565b61003833610047565b61004181610097565b5061017f565b600080546001600160a01b038381166001600160a01b0319831681178455604051919092169283917f8be0079c531659141344cd1fd0a4f28419497f9722a3daafe3b4186f6b6457e09190a35050565b6100aa8161014260201b61020a1760201c565b6101205760405162461bcd60e51b815260206004820152603360248201527f5570677261646561626c65426561636f6e3a20696d706c656d656e746174696f60448201527f6e206973206e6f74206120636f6e747261637400000000000000000000000000606482015260840160405180910390fd5b600180546001600160a01b0319166001600160a01b0392909216919091179055565b6001600160a01b03163b151590565b600060208284031215610162578081fd5b81516001600160a01b0381168114610178578182fd5b9392505050565b6103978061018e6000396000f3fe608060405234801561001057600080fd5b50600436106100575760003560e01c80633659cfe61461005c5780635c60da1b14610071578063715018a61461009a5780638da5cb5b146100a2578063f2fde38b146100b3575b600080fd5b61006f61006a3660046102fe565b6100c6565b005b6001546001600160a01b03165b6040516001600160a01b03909116815260200160405180910390f35b61006f610139565b6000546001600160a01b031661007e565b61006f6100c13660046102fe565b61016f565b6000546001600160a01b031633146100f95760405162461bcd60e51b81526004016100f09061032c565b60405180910390fd5b61010281610219565b6040516001600160a01b038216907fbc7cd75a20ee27fd9adebab32041f755214dbc6bffa90cc0225b39da2e5c2d3b90600090a250565b6000546001600160a01b031633146101635760405162461bcd60e51b81526004016100f09061032c565b61016d60006102ae565b565b6000546001600160a01b031633146101995760405162461bcd60e51b81526004016100f09061032c565b6001600160a01b0381166101fe5760405162461bcd60e51b815260206004820152602660248201527f4f776e61626c653a206e6577206f776e657220697320746865207a65726f206160448201526564647265737360d01b60648201526084016100f0565b610207816102ae565b50565b6001600160a01b03163b151590565b6001600160a01b0381163b61028c5760405162461bcd60e51b815260206004820152603360248201527f5570677261646561626c65426561636f6e3a20696d706c656d656e746174696f6044820152721b881a5cc81b9bdd08184818dbdb9d1c9858dd606a1b60648201526084016100f0565b600180546001600160a01b0319166001600160a01b0392909216919091179055565b600080546001600160a01b038381166001600160a01b0319831681178455604051919092169283917f8be0079c531659141344cd1fd0a4f28419497f9722a3daafe3b4186f6b6457e09190a35050565b60006020828403121561030f578081fd5b81356001600160a01b0381168114610325578182fd5b9392505050565b6020808252818101527f4f776e61626c653a2063616c6c6572206973206e6f7420746865206f776e657260408201526060019056fea2646970667358221220b10efbd9b58f106df798d2be3af2ac632aa9637719879ddce199c76df2c4d53f64736f6c6343000804003360a060405234801561001057600080fd5b50604051610a78380380610a7883398101604081905261002f916100e5565b61003833610088565b80604051610045906100d8565b6001600160a01b039091168152602001604051809103906000f080158015610071573d6000803e3d6000fd5b5060601b6001600160601b03191660805250610113565b600080546001600160a01b038381166001600160a01b0319831681178455604051919092169283917f8be0079c531659141344cd1fd0a4f28419497f9722a3daafe3b4186f6b6457e09190a35050565b6105258061055383390190565b6000602082840312156100f6578081fd5b81516001600160a01b038116811461010c578182fd5b9392505050565b60805160601c61041561013e6000396000818160be01528181610112015261017501526104156000f3fe608060405234801561001057600080fd5b50600436106100625760003560e01c80631c1b8772146100675780635c60da1b1461007c578063715018a6146100a05780638da5cb5b146100a8578063b3553ee9146100b9578063f2fde38b146100e0575b600080fd5b61007a61007536600461038f565b6100f3565b005b610084610171565b6040516001600160a01b03909116815260200160405180910390f35b61007a610209565b6000546001600160a01b0316610084565b6100847f000000000000000000000000000000000000000000000000000000000000000081565b61007a6100ee36600461038f565b610274565b604051631b2ce7f360e11b81526001600160a01b0382811660048301527f00000000000000000000000000000000000000000000000000000000000000001690633659cfe690602401600060405180830381600087803b15801561015657600080fd5b505af115801561016a573d6000803e3d6000fd5b5050505050565b60007f00000000000000000000000000000000000000000000000000000000000000006001600160a01b0316635c60da1b6040518163ffffffff1660e01b815260040160206040518083038186803b1580156101cc57600080fd5b505afa1580156101e0573d6000803e3d6000fd5b505050506040513d601f19601f8201168201806040525081019061020491906103b2565b905090565b6000546001600160a01b031633146102685760405162461bcd60e51b815260206004820181905260248201527f4f776e61626c653a2063616c6c6572206973206e6f7420746865206f776e657260448201526064015b60405180910390fd5b610272600061033f565b565b6000546001600160a01b031633146102ce5760405162461bcd60e51b815260206004820181905260248201527f4f776e61626c653a2063616c6c6572206973206e6f7420746865206f776e6572604482015260640161025f565b6001600160a01b0381166103335760405162461bcd60e51b815260206004820152602660248201527f4f776e61626c653a206e6577206f776e657220697320746865207a65726f206160448201526564647265737360d01b606482015260840161025f565b61033c8161033f565b50565b600080546001600160a01b038381166001600160a01b0319831681178455604051919092169283917f8be0079c531659141344cd1fd0a4f28419497f9722a3daafe3b4186f6b6457e09190a35050565b6000602082840312156103a0578081fd5b81356103ab816103ca565b9392505050565b6000602082840312156103c3578081fd5b81516103ab815b6001600160a01b038116811461033c57600080fdfea2646970667358221220bc24bae1cb9b28a9b7d56d363033cd98a9476f9f3269ed76b6754ceeb6de542964736f6c63430008040033608060405234801561001057600080fd5b5060405161052538038061052583398101604081905261002f91610151565b61003833610047565b61004181610097565b5061017f565b600080546001600160a01b038381166001600160a01b0319831681178455604051919092169283917f8be0079c531659141344cd1fd0a4f28419497f9722a3daafe3b4186f6b6457e09190a35050565b6100aa8161014260201b61020a1760201c565b6101205760405162461bcd60e51b815260206004820152603360248201527f5570677261646561626c65426561636f6e3a20696d706c656d656e746174696f60448201527f6e206973206e6f74206120636f6e747261637400000000000000000000000000606482015260840160405180910390fd5b600180546001600160a01b0319166001600160a01b0392909216919091179055565b6001600160a01b03163b151590565b600060208284031215610162578081fd5b81516001600160a01b0381168114610178578182fd5b9392505050565b6103978061018e6000396000f3fe608060405234801561001057600080fd5b50600436106100575760003560e01c80633659cfe61461005c5780635c60da1b14610071578063715018a61461009a5780638da5cb5b146100a2578063f2fde38b146100b3575b600080fd5b61006f61006a3660046102fe565b6100c6565b005b6001546001600160a01b03165b6040516001600160a01b03909116815260200160405180910390f35b61006f610139565b6000546001600160a01b031661007e565b61006f6100c13660046102fe565b61016f565b6000546001600160a01b031633146100f95760405162461bcd60e51b81526004016100f09061032c565b60405180910390fd5b61010281610219565b6040516001600160a01b038216907fbc7cd75a20ee27fd9adebab32041f755214dbc6bffa90cc0225b39da2e5c2d3b90600090a250565b6000546001600160a01b031633146101635760405162461bcd60e51b81526004016100f09061032c565b61016d60006102ae565b565b6000546001600160a01b031633146101995760405162461bcd60e51b81526004016100f09061032c565b6001600160a01b0381166101fe5760405162461bcd60e51b815260206004820152602660248201527f4f776e61626c653a206e6577206f776e657220697320746865207a65726f206160448201526564647265737360d01b60648201526084016100f0565b610207816102ae565b50565b6001600160a01b03163b151590565b6001600160a01b0381163b61028c5760405162461bcd60e51b815260206004820152603360248201527f5570677261646561626c65426561636f6e3a20696d706c656d656e746174696f6044820152721b881a5cc81b9bdd08184818dbdb9d1c9858dd606a1b60648201526084016100f0565b600180546001600160a01b0319166001600160a01b0392909216919091179055565b600080546001600160a01b038381166001600160a01b0319831681178455604051919092169283917f8be0079c531659141344cd1fd0a4f28419497f9722a3daafe3b4186f6b6457e09190a35050565b60006020828403121561030f578081fd5b81356001600160a01b0381168114610325578182fd5b9392505050565b6020808252818101527f4f776e61626c653a2063616c6c6572206973206e6f7420746865206f776e657260408201526060019056fea2646970667358221220b10efbd9b58f106df798d2be3af2ac632aa9637719879ddce199c76df2c4d53f64736f6c63430008040033a264697066735822122009cbc85448d938c8a5c24bc90359ffebd9ed864b033948b46bdc4effe336501564736f6c63430008040033",
  "linkReferences": {},
  "deployedLinkReferences": {}
}